{
  "contractName": "Doorbell",
  "abi": [
    {
      "constant": true,
      "inputs": [
        {
          "name": "",
          "type": "address"
        }
      ],
      "name": "addressBlockMap",
      "outputs": [
        {
          "name": "",
          "type": "uint256"
        }
      ],
      "payable": false,
      "stateMutability": "view",
      "type": "function",
      "signature": "0xd7413969"
    },
    {
      "constant": false,
      "inputs": [],
      "name": "setBlock",
      "outputs": [],
      "payable": false,
      "stateMutability": "nonpayable",
      "type": "function",
      "signature": "0xfe5afe51"
    }
  ],
  "bytecode": "0x608060405234801561001057600080fd5b5060f08061001f6000396000f30060806040526004361060485763ffffffff7c0100000000000000000000000000000000000000000000000000000000600035041663d74139698114604d578063fe5afe5114608a575b600080fd5b348015605857600080fd5b50607873ffffffffffffffffffffffffffffffffffffffff60043516609e565b60408051918252519081900360200190f35b348015609557600080fd5b50609c60b0565b005b60006020819052908152604090205481565b3360009081526020819052604090204390555600a165627a7a72305820593a1a822c5c395d861e10b2858edf4283f7009a9722f09d263c89cb490714160029",
  "source": "pragma solidity ^0.4.24;\n\n/**\n * @title Maps a user's Ethereum address to the block number of a block that contains a transaction sent by the address\n * @author Tom Waite\n * @dev Purpose of this contract is to enable an AZTEC Dapp to get a user's public key from their Ethereum address.\n *      The public key is required in order to generate AZTEC note shared secrets.\n **/\ncontract Doorbell {\n\n  mapping(address => uint) public addressBlockMap;\n\n  /**\n  * @dev Writes to ```addressBlockMap``` to map from msg.sender to block.number\n  **/\n  function setBlock() external {\n    uint number = block.number; \n    addressBlockMap[msg.sender] = number;        \n  }\n}\n",
  "sourcePath": "/Users/paulrberg/Documents/Work/AZTEC/Coding/AZTEC/contracts/AZTEC/Doorbell.sol",
  "compiler": {
    "name": "solc",
    "version": "0.4.24+commit.e67f0147.Emscripten.clang"
  },
  "schemaVersion": "3.0.1",
  "updatedAt": "2019-01-15T14:33:33.583Z",
  "devdoc": {
    "author": "Tom Waite",
    "methods": {
      "setBlock()": {
        "details": "Writes to ```addressBlockMap``` to map from msg.sender to block.number*"
      }
    },
    "title": "Maps a user's Ethereum address to the block number of a block that contains a transaction sent by the address"
  },
  "userdoc": {
    "methods": {}
  }
}