{
  "contractName": "AZTECAccountRegistry",
  "abi": [
    {
      "constant": true,
      "inputs": [
        {
          "name": "",
          "type": "address"
        }
      ],
      "name": "accountMapping",
      "outputs": [
        {
          "name": "",
          "type": "bytes"
        }
      ],
      "payable": false,
      "stateMutability": "view",
      "type": "function"
    },
    {
      "constant": true,
      "inputs": [],
      "name": "EIP712_DOMAIN_HASH",
      "outputs": [
        {
          "name": "",
          "type": "bytes32"
        }
      ],
      "payable": false,
      "stateMutability": "view",
      "type": "function"
    },
    {
      "anonymous": false,
      "inputs": [
        {
          "indexed": true,
          "name": "account",
          "type": "address"
        },
        {
          "indexed": false,
          "name": "linkedPublicKey",
          "type": "bytes"
        },
        {
          "indexed": false,
          "name": "spendingPublicKey",
          "type": "bytes"
        }
      ],
      "name": "RegisterExtension",
      "type": "event"
    },
    {
      "anonymous": false,
      "inputs": [
        {
          "indexed": false,
          "name": "account",
          "type": "address"
        }
      ],
      "name": "LogAddress",
      "type": "event"
    },
    {
      "anonymous": false,
      "inputs": [
        {
          "indexed": false,
          "name": "message",
          "type": "string"
        }
      ],
      "name": "LogString",
      "type": "event"
    },
    {
      "anonymous": false,
      "inputs": [
        {
          "indexed": false,
          "name": "sig",
          "type": "bytes32"
        }
      ],
      "name": "LogBytes",
      "type": "event"
    },
    {
      "constant": false,
      "inputs": [
        {
          "name": "_account",
          "type": "address"
        },
        {
          "name": "_linkedPublicKey",
          "type": "bytes"
        },
        {
          "name": "_spendingPublicKey",
          "type": "bytes"
        },
        {
          "name": "_signature",
          "type": "bytes"
        }
      ],
      "name": "registerAZTECExtension",
      "outputs": [],
      "payable": false,
      "stateMutability": "nonpayable",
      "type": "function"
    }
  ],
  "bytecode": "0x7f454950373132446f6d61696e280000000000000000000000000000000000000060a09081527f737472696e67206e616d652c000000000000000000000000000000000000000060ad527f737472696e672076657273696f6e2c000000000000000000000000000000000060b9527f6164647265737320766572696679696e67436f6e74726163740000000000000060c8527f290000000000000000000000000000000000000000000000000000000000000060e152604260808181529120601960e2527f415a5445435f43525950544f4752415048595f454e47494e4500000000000000610102526001610122527f3100000000000000000000000000000000000000000000000000000000000000610142526101829081527fc8066e2c715ce196630b273cd256d8959d5b9fefc55e9e6d999fb0f08bb7f75f6101a2527fc89efdaa54c0f20c7adf612882df0950f5a951637e0307cdcb4c672f298b8bc66101c252306101e25261016282905261020260405220600055610a33806101876000396000f3fe608060405234801561001057600080fd5b50600436106100415760003560e01c8063821a3ee014610046578063e0b28d221461020c578063e306f779146102a7575b600080fd5b61020a6004803603608081101561005c57600080fd5b600160a060020a03823516919081019060408101602082013564010000000081111561008757600080fd5b82018360208201111561009957600080fd5b803590602001918460018302840111640100000000831117156100bb57600080fd5b91908080601f016020809104026020016040519081016040528093929190818152602001838380828437600092019190915250929594936020810193503591505064010000000081111561010e57600080fd5b82018360208201111561012057600080fd5b8035906020019184600183028401116401000000008311171561014257600080fd5b91908080601f016020809104026020016040519081016040528093929190818152602001838380828437600092019190915250929594936020810193503591505064010000000081111561019557600080fd5b8201836020820111156101a757600080fd5b803590602001918460018302840111640100000000831117156101c957600080fd5b91908080601f0160208091040260200160405190810160405280939291908181526020018383808284376000920191909152509295506102c1945050505050565b005b6102326004803603602081101561022257600080fd5b5035600160a060020a03166104a9565b6040805160208082528351818301528351919283929083019185019080838360005b8381101561026c578181015183820152602001610254565b50505050905090810190601f1680156102995780820380516001836020036101000a031916815260200191505b509250505060405180910390f35b6102af610543565b60408051918252519081900360200190f35b60006102f26102ec604080519081016040528088600160a060020a0316815260200187815250610549565b83610789565b9050600160a060020a038581169082161461036e57604080517f08c379a000000000000000000000000000000000000000000000000000000000815260206004820152601a60248201527f7369676e6572206d75737420626520746865206163636f756e74000000000000604482015290519081900360640190fd5b600160a060020a03851660009081526001602090815260409091208551610397928701906108f7565b5084600160a060020a03167f6943ea2c7fa944e0014e912e815bb331b63af36341f53622fce2f97d26a928e28585604051808060200180602001838103835285818151815260200191508051906020019080838360005b838110156104065781810151838201526020016103ee565b50505050905090810190601f1680156104335780820380516001836020036101000a031916815260200191505b50838103825284518152845160209182019186019080838360005b8381101561046657818101518382015260200161044e565b50505050905090810190601f1680156104935780820380516001836020036101000a031916815260200191505b5094505050505060405180910390a25050505050565b60016020818152600092835260409283902080548451600294821615610100026000190190911693909304601f810183900483028401830190945283835291929083018282801561053b5780601f106105105761010080835404028352916020019161053b565b820191906000526020600020905b81548152906001019060200180831161051e57829003601f168201915b505050505081565b60005481565b600080608060405190810160405280604281526020016109c6604291396040516020018082805190602001908083835b602083106105985780518252601f199092019160209182019101610579565b518151600019602094850361010090810a919091019182169119929092161790915260408051601f19969094018481039690960184528581528351938301939093207f415a5445434163636f756e745265676973747279000000000000000000000000865283519586900360140186207f32000000000000000000000000000000000000000000000000000000000000008752845196879003600101872087850192909252868501526060860152306080808701919091528351808703909101815260a08601808552815191909301209085019092526033808252919650869550935091610993915060c001396040516020018082805190602001908083835b602083106106b75780518252601f199092019160209182019101610698565b51815160209384036101000a60001901801990921691161790526040805192909401828103601f190183528085528251928201929092208a519a82015180519083012083830191909152600160a060020a03909a168285015260608083019a909a528351808303909a018a526080820184528951998101999099207f190100000000000000000000000000000000000000000000000000000000000060a083015260a282019690965260c2808201969096528251808203909601865260e2019091525050815191909401209392505050565b600080825184845260608401518060f81c9050604085015160608601526020850151604086015280602086015260208560808760015afa601c8214601b8314176060841460418514171616925084518614600081146107e7576107ec565b855194505b505083528080156108055750600160a060020a03821615155b15156108f057600160a060020a038216151561088257604080517f08c379a000000000000000000000000000000000000000000000000000000000815260206004820152601a60248201527f7369676e657220616464726573732063616e6e6f742062652030000000000000604482015290519081900360640190fd5b8015156108f057604080517f08c379a000000000000000000000000000000000000000000000000000000000815260206004820152601960248201527f7369676e6174757265207265636f76657279206661696c656400000000000000604482015290519081900360640190fd5b5092915050565b828054600181600116156101000203166002900490600052602060002090601f016020900481019282601f1061093857805160ff1916838001178555610965565b82800160010185558215610965579182015b8281111561096557825182559160200191906001019061094a565b50610971929150610975565b5090565b61098f91905b80821115610971576000815560010161097b565b9056fe415a5445434163636f756e742861646472657373206163636f756e742c6279746573206c696e6b65645075626c69634b657929454950373132446f6d61696e28737472696e67206e616d652c737472696e672076657273696f6e2c6164647265737320766572696679696e67436f6e747261637429a165627a7a72305820aa5a4d7ca9f5630dc3510f732fd3f5289170caee7b8ffc4bf520982ebf5b4b2b0029",
  "source": "pragma solidity >=0.5.0 <0.6.0;\n\nimport \"../../protocol/contracts/libs/LibEIP712.sol\";\n\n/**\n * @title AZTECAccountRegistry implementation\n * @author AZTEC\n * Copyright Spilbury Holdings Ltd 2019. All rights reserved.\n **/\n\ncontract AZTECAccountRegistry is LibEIP712 {\n\n    mapping(address => bytes) public accountMapping;\n\n\n    struct AZTECAccount {\n        address account;\n        bytes linkedPublicKey;\n    }\n\n    string private constant EIP712_DOMAIN  = \"EIP712Domain(string name,string version,address verifyingContract)\";\n    string private constant SIGNATURE_TYPE = \"AZTECAccount(address account,bytes linkedPublicKey)\";\n\n    bytes32 private constant EIP712_DOMAIN_TYPEHASH = keccak256(abi.encodePacked(EIP712_DOMAIN));\n    bytes32 private constant SIGNATURE_TYPEHASH = keccak256(abi.encodePacked(SIGNATURE_TYPE));\n\n    function hashAZTECAccount(AZTECAccount memory _AZTECAccount) internal view returns (bytes32){\n        bytes32 DOMAIN_SEPARATOR = keccak256(abi.encode(\n            EIP712_DOMAIN_TYPEHASH,\n            keccak256(\"AZTECAccountRegistry\"),\n            keccak256(\"2\"),\n            address(this)\n        ));\n            return keccak256(abi.encodePacked(\n                \"\\x19\\x01\",\n                DOMAIN_SEPARATOR,\n                keccak256(abi.encode(\n                    SIGNATURE_TYPEHASH,\n                    _AZTECAccount.account,\n                    keccak256(bytes(_AZTECAccount.linkedPublicKey)\n            )))));\n    }\n\n\n    event RegisterExtension(\n        address indexed account,\n        bytes linkedPublicKey,\n        bytes spendingPublicKey \n    );\n\n    event LogAddress(\n        address account\n    );\n    event LogString(\n        string message\n    );\n\n    event LogBytes(\n        bytes32 sig\n    );\n\n    /**\n        * @dev function to validate the user is either the sender or has submitted an EIP712 signature from the account they\n        * are registering in the AZTEC extension.\n    **/\n\n\n    /**\n     * @dev Registers a specific public key pair to an ethereum address if a valid signature is provided or the\n     * sender is the ethereum address in question        *\n     * @param _account - address the address to which a public key is being         registered\n     * @param _linkedPublicKey - the public key the sender wishes to link to the _account\n     * @param _signature - an EIP712 compatible signature of the acount & public key \n     */\n\n    function registerAZTECExtension(\n        address _account,\n        bytes memory _linkedPublicKey,\n        bytes memory _spendingPublicKey,\n        bytes memory _signature\n    ) public {\n        address signer = recoverSignature(\n            hashAZTECAccount(AZTECAccount(_account, _linkedPublicKey)),\n            _signature\n        );\n        require(_account == signer, 'signer must be the account');\n        accountMapping[_account] = _linkedPublicKey;\n        // emit event for the graph\n        emit RegisterExtension(_account, _linkedPublicKey, _spendingPublicKey);\n    }\n\n}\n",
  "sourcePath": "/Users/joeandrews/Documents/Code/AZTEC/packages/extension/contracts/AZTECAccountRegistry.sol",
  "compiler": {
    "name": "solc",
    "version": "0.5.4+commit.9549d8ff.Emscripten.clang"
  },
  "schemaVersion": "3.0.9",
  "updatedAt": "2019-09-27T15:26:53.351Z",
  "devdoc": {
    "author": "AZTEC Copyright Spilbury Holdings Ltd 2019. All rights reserved.*",
    "methods": {
      "registerAZTECExtension(address,bytes,bytes)": {
        "details": "Registers a specific public key pair to an ethereum address if a valid signature is provided or the sender is the ethereum address in question        *",
        "params": {
          "_account": "- address the address to which a public key is being         registered",
          "_linkedPublicKey": "- the public key the sender wishes to link to the _account",
          "_signature": "- an EIP712 compatible signature of the acount & public key "
        }
      },
      "registerAZTECExtension(address,bytes,bytes,bytes)": {
        "details": "Registers a specific public key pair to an ethereum address if a valid signature is provided or the sender is the ethereum address in question        *",
        "params": {
          "_account": "- address the address to which a public key is being         registered",
          "_linkedPublicKey": "- the public key the sender wishes to link to the _account",
          "_signature": "- an EIP712 compatible signature of the acount & public key "
        }
      }
    },
    "title": "AZTECAccountRegistry implementation"
  },
  "userdoc": {
    "methods": {}
  }
}