{
  "contractName": "AZTECAccountRegistry",
  "abi": [
    {
      "constant": true,
      "inputs": [
        {
          "name": "",
          "type": "address"
        }
      ],
      "name": "accountMapping",
      "outputs": [
        {
          "name": "",
          "type": "bytes"
        }
      ],
      "payable": false,
      "stateMutability": "view",
      "type": "function"
    },
    {
      "constant": true,
      "inputs": [],
      "name": "EIP712_DOMAIN_HASH",
      "outputs": [
        {
          "name": "",
          "type": "bytes32"
        }
      ],
      "payable": false,
      "stateMutability": "view",
      "type": "function"
    },
    {
      "anonymous": false,
      "inputs": [
        {
          "indexed": true,
          "name": "account",
          "type": "address"
        },
        {
          "indexed": false,
          "name": "linkedPublicKey",
          "type": "bytes"
        }
      ],
      "name": "RegisterExtension",
      "type": "event"
    },
    {
      "anonymous": false,
      "inputs": [
        {
          "indexed": false,
          "name": "account",
          "type": "address"
        }
      ],
      "name": "LogAddress",
      "type": "event"
    },
    {
      "anonymous": false,
      "inputs": [
        {
          "indexed": false,
          "name": "message",
          "type": "string"
        }
      ],
      "name": "LogString",
      "type": "event"
    },
    {
      "anonymous": false,
      "inputs": [
        {
          "indexed": false,
          "name": "sig",
          "type": "bytes32"
        }
      ],
      "name": "LogBytes",
      "type": "event"
    },
    {
      "constant": false,
      "inputs": [
        {
          "name": "_account",
          "type": "address"
        },
        {
          "name": "_linkedPublicKey",
          "type": "bytes"
        },
        {
          "name": "_signature",
          "type": "bytes"
        }
      ],
      "name": "registerAZTECExtension",
      "outputs": [],
      "payable": false,
      "stateMutability": "nonpayable",
      "type": "function"
    }
  ],
  "bytecode": "0x7f454950373132446f6d61696e280000000000000000000000000000000000000060a09081527f737472696e67206e616d652c000000000000000000000000000000000000000060ad527f737472696e672076657273696f6e2c000000000000000000000000000000000060b9527f6164647265737320766572696679696e67436f6e74726163740000000000000060c8527f290000000000000000000000000000000000000000000000000000000000000060e152604260808181529120601960e2527f415a5445435f43525950544f4752415048595f454e47494e4500000000000000610102526001610122527f3100000000000000000000000000000000000000000000000000000000000000610142526101829081527fc8066e2c715ce196630b273cd256d8959d5b9fefc55e9e6d999fb0f08bb7f75f6101a2527fc89efdaa54c0f20c7adf612882df0950f5a951637e0307cdcb4c672f298b8bc66101c252306101e25261016282905261020260405220600055610944806101876000396000f3fe608060405234801561001057600080fd5b50600436106100415760003560e01c8063de0293f914610046578063e0b28d2214610185578063e306f77914610220575b600080fd5b6101836004803603606081101561005c57600080fd5b600160a060020a03823516919081019060408101602082013564010000000081111561008757600080fd5b82018360208201111561009957600080fd5b803590602001918460018302840111640100000000831117156100bb57600080fd5b91908080601f016020809104026020016040519081016040528093929190818152602001838380828437600092019190915250929594936020810193503591505064010000000081111561010e57600080fd5b82018360208201111561012057600080fd5b8035906020019184600183028401116401000000008311171561014257600080fd5b91908080601f01602080910402602001604051908101604052809392919081815260200183838082843760009201919091525092955061023a945050505050565b005b6101ab6004803603602081101561019b57600080fd5b5035600160a060020a03166103ba565b6040805160208082528351818301528351919283929083019185019080838360005b838110156101e55781810151838201526020016101cd565b50505050905090810190601f1680156102125780820380516001836020036101000a031916815260200191505b509250505060405180910390f35b610228610454565b60408051918252519081900360200190f35b600061026b610265604080519081016040528087600160a060020a031681526020018681525061045a565b8361069a565b9050600160a060020a03848116908216146102e757604080517f08c379a000000000000000000000000000000000000000000000000000000000815260206004820152601a60248201527f7369676e6572206d75737420626520746865206163636f756e74000000000000604482015290519081900360640190fd5b600160a060020a0384166000908152600160209081526040909120845161031092860190610808565b5083600160a060020a03167faa42f7e719e0ed2fa2458c14793c82d134a946168ca9529a56be2b5c6925bca1846040518080602001828103825283818151815260200191508051906020019080838360005b8381101561037a578181015183820152602001610362565b50505050905090810190601f1680156103a75780820380516001836020036101000a031916815260200191505b509250505060405180910390a250505050565b60016020818152600092835260409283902080548451600294821615610100026000190190911693909304601f810183900483028401830190945283835291929083018282801561044c5780601f106104215761010080835404028352916020019161044c565b820191906000526020600020905b81548152906001019060200180831161042f57829003601f168201915b505050505081565b60005481565b600080608060405190810160405280604281526020016108d7604291396040516020018082805190602001908083835b602083106104a95780518252601f19909201916020918201910161048a565b518151600019602094850361010090810a919091019182169119929092161790915260408051601f19969094018481039690960184528581528351938301939093207f415a5445434163636f756e745265676973747279000000000000000000000000865283519586900360140186207f32000000000000000000000000000000000000000000000000000000000000008752845196879003600101872087850192909252868501526060860152306080808701919091528351808703909101815260a086018085528151919093012090850190925260338082529196508695509350916108a4915060c001396040516020018082805190602001908083835b602083106105c85780518252601f1990920191602091820191016105a9565b51815160209384036101000a60001901801990921691161790526040805192909401828103601f190183528085528251928201929092208a519a82015180519083012083830191909152600160a060020a03909a168285015260608083019a909a528351808303909a018a526080820184528951998101999099207f190100000000000000000000000000000000000000000000000000000000000060a083015260a282019690965260c2808201969096528251808203909601865260e2019091525050815191909401209392505050565b600080825184845260608401518060f81c9050604085015160608601526020850151604086015280602086015260208560808760015afa601c8214601b8314176060841460418514171616925084518614600081146106f8576106fd565b855194505b505083528080156107165750600160a060020a03821615155b151561080157600160a060020a038216151561079357604080517f08c379a000000000000000000000000000000000000000000000000000000000815260206004820152601a60248201527f7369676e657220616464726573732063616e6e6f742062652030000000000000604482015290519081900360640190fd5b80151561080157604080517f08c379a000000000000000000000000000000000000000000000000000000000815260206004820152601960248201527f7369676e6174757265207265636f76657279206661696c656400000000000000604482015290519081900360640190fd5b5092915050565b828054600181600116156101000203166002900490600052602060002090601f016020900481019282601f1061084957805160ff1916838001178555610876565b82800160010185558215610876579182015b8281111561087657825182559160200191906001019061085b565b50610882929150610886565b5090565b6108a091905b80821115610882576000815560010161088c565b9056fe415a5445434163636f756e742861646472657373206163636f756e742c6279746573206c696e6b65645075626c69634b657929454950373132446f6d61696e28737472696e67206e616d652c737472696e672076657273696f6e2c6164647265737320766572696679696e67436f6e747261637429a165627a7a72305820c013b633fb143727a71ee1ea2339a25445ddd5d98224391da1b83981ac429c430029",
  "source": "pragma solidity >=0.5.0 <0.6.0;\n\nimport \"../../protocol/contracts/libs/LibEIP712.sol\";\n\n/**\n * @title AZTECAccountRegistry implementation\n * @author AZTEC\n * Copyright Spilbury Holdings Ltd 2019. All rights reserved.\n **/\n\ncontract AZTECAccountRegistry is LibEIP712 {\n\n    mapping(address => bytes) public accountMapping;\n\n\n    struct AZTECAccount {\n        address account;\n        bytes linkedPublicKey;\n    }\n\n    string private constant EIP712_DOMAIN  = \"EIP712Domain(string name,string version,address verifyingContract)\";\n    string private constant SIGNATURE_TYPE = \"AZTECAccount(address account,bytes linkedPublicKey)\";\n\n    bytes32 private constant EIP712_DOMAIN_TYPEHASH = keccak256(abi.encodePacked(EIP712_DOMAIN));\n    bytes32 private constant SIGNATURE_TYPEHASH = keccak256(abi.encodePacked(SIGNATURE_TYPE));\n\n    function hashAZTECAccount(AZTECAccount memory _AZTECAccount) internal view returns (bytes32){\n        bytes32 DOMAIN_SEPARATOR = keccak256(abi.encode(\n            EIP712_DOMAIN_TYPEHASH,\n            keccak256(\"AZTECAccountRegistry\"),\n            keccak256(\"2\"),\n            address(this)\n        ));\n            return keccak256(abi.encodePacked(\n                \"\\x19\\x01\",\n                DOMAIN_SEPARATOR,\n                keccak256(abi.encode(\n                    SIGNATURE_TYPEHASH,\n                    _AZTECAccount.account,\n                    keccak256(bytes(_AZTECAccount.linkedPublicKey)\n            )))));\n    }\n\n\n    event RegisterExtension(\n        address indexed account,\n        bytes linkedPublicKey\n    );\n\n    event LogAddress(\n        address account\n    );\n    event LogString(\n        string message\n    );\n\n    event LogBytes(\n        bytes32 sig\n    );\n\n    /**\n        * @dev function to validate the user is either the sender or has submitted an EIP712 signature from the account they\n        * are registering in the AZTEC extension.\n    **/\n\n\n    /**\n     * @dev Registers a specific public key pair to an ethereum address if a valid signature is provided or the\n     * sender is the ethereum address in question        *\n     * @param _account - address the address to which a public key is being         registered\n     * @param _linkedPublicKey - the public key the sender wishes to link to the _account\n     * @param _signature - an EIP712 compatible signature of the acount & public key \n     */\n\n    function registerAZTECExtension(\n        address _account,\n        bytes memory _linkedPublicKey,\n        bytes memory _signature\n    ) public {\n        address signer = recoverSignature(\n            hashAZTECAccount(AZTECAccount(_account, _linkedPublicKey)),\n            _signature\n        );\n        require(_account == signer, 'signer must be the account');\n        accountMapping[_account] = _linkedPublicKey;\n        // emit event for the graph\n        emit RegisterExtension(_account, _linkedPublicKey);\n    }\n\n}\n",
  "sourcePath": "/Users/joeandrews/Documents/Code/AZTEC/packages/extension/contracts/AZTECAccountRegistry.sol",
  "compiler": {
    "name": "solc",
    "version": "0.5.4+commit.9549d8ff.Emscripten.clang"
  },
  "schemaVersion": "3.0.9",
  "updatedAt": "2019-09-26T16:54:32.932Z",
  "devdoc": {
    "author": "AZTEC Copyright Spilbury Holdings Ltd 2019. All rights reserved.*",
    "methods": {
      "registerAZTECExtension(address,bytes,bytes)": {
        "details": "Registers a specific public key pair to an ethereum address if a valid signature is provided or the sender is the ethereum address in question        *",
        "params": {
          "_account": "- address the address to which a public key is being         registered",
          "_linkedPublicKey": "- the public key the sender wishes to link to the _account",
          "_signature": "- an EIP712 compatible signature of the acount & public key "
        }
      }
    },
    "title": "AZTECAccountRegistry implementation"
  },
  "userdoc": {
    "methods": {}
  }
}