{
  "contractName": "Behaviour20200305",
  "abi": [
    {
      "anonymous": false,
      "inputs": [
        {
          "indexed": false,
          "internalType": "address",
          "name": "accountAddress",
          "type": "address"
        },
        {
          "indexed": false,
          "internalType": "address",
          "name": "signerAddress",
          "type": "address"
        }
      ],
      "name": "Addresses",
      "type": "event"
    },
    {
      "anonymous": false,
      "inputs": [
        {
          "indexed": true,
          "internalType": "bytes32",
          "name": "signatureHash",
          "type": "bytes32"
        },
        {
          "indexed": true,
          "internalType": "bool",
          "name": "success",
          "type": "bool"
        },
        {
          "indexed": false,
          "internalType": "uint256",
          "name": "actualCharge",
          "type": "uint256"
        }
      ],
      "name": "GSNTransactionProcessed",
      "type": "event"
    },
    {
      "anonymous": false,
      "inputs": [
        {
          "indexed": true,
          "internalType": "address",
          "name": "account",
          "type": "address"
        },
        {
          "indexed": false,
          "internalType": "bytes",
          "name": "linkedPublicKey",
          "type": "bytes"
        },
        {
          "indexed": false,
          "internalType": "bytes",
          "name": "spendingPublicKey",
          "type": "bytes"
        }
      ],
      "name": "RegisterExtension",
      "type": "event"
    },
    {
      "anonymous": false,
      "inputs": [
        {
          "indexed": true,
          "internalType": "address",
          "name": "oldRelayHub",
          "type": "address"
        },
        {
          "indexed": true,
          "internalType": "address",
          "name": "newRelayHub",
          "type": "address"
        }
      ],
      "name": "RelayHubChanged",
      "type": "event"
    },
    {
      "constant": true,
      "inputs": [],
      "name": "BURN_PROOF",
      "outputs": [
        {
          "internalType": "uint24",
          "name": "",
          "type": "uint24"
        }
      ],
      "payable": false,
      "stateMutability": "view",
      "type": "function"
    },
    {
      "constant": true,
      "inputs": [],
      "name": "DIVIDEND_PROOF",
      "outputs": [
        {
          "internalType": "uint24",
          "name": "",
          "type": "uint24"
        }
      ],
      "payable": false,
      "stateMutability": "view",
      "type": "function"
    },
    {
      "constant": true,
      "inputs": [],
      "name": "EIP712_DOMAIN_HASH",
      "outputs": [
        {
          "internalType": "bytes32",
          "name": "",
          "type": "bytes32"
        }
      ],
      "payable": false,
      "stateMutability": "view",
      "type": "function"
    },
    {
      "constant": true,
      "inputs": [],
      "name": "GSNSigner",
      "outputs": [
        {
          "internalType": "address",
          "name": "",
          "type": "address"
        }
      ],
      "payable": false,
      "stateMutability": "view",
      "type": "function"
    },
    {
      "constant": true,
      "inputs": [],
      "name": "JOIN_SPLIT_PROOF",
      "outputs": [
        {
          "internalType": "uint24",
          "name": "",
          "type": "uint24"
        }
      ],
      "payable": false,
      "stateMutability": "view",
      "type": "function"
    },
    {
      "constant": true,
      "inputs": [],
      "name": "MINT_PROOF",
      "outputs": [
        {
          "internalType": "uint24",
          "name": "",
          "type": "uint24"
        }
      ],
      "payable": false,
      "stateMutability": "view",
      "type": "function"
    },
    {
      "constant": true,
      "inputs": [],
      "name": "PRIVATE_RANGE_PROOF",
      "outputs": [
        {
          "internalType": "uint24",
          "name": "",
          "type": "uint24"
        }
      ],
      "payable": false,
      "stateMutability": "view",
      "type": "function"
    },
    {
      "constant": true,
      "inputs": [],
      "name": "PUBLIC_RANGE_PROOF",
      "outputs": [
        {
          "internalType": "uint24",
          "name": "",
          "type": "uint24"
        }
      ],
      "payable": false,
      "stateMutability": "view",
      "type": "function"
    },
    {
      "constant": true,
      "inputs": [
        {
          "internalType": "address",
          "name": "relay",
          "type": "address"
        },
        {
          "internalType": "address",
          "name": "from",
          "type": "address"
        },
        {
          "internalType": "bytes",
          "name": "encodedFunction",
          "type": "bytes"
        },
        {
          "internalType": "uint256",
          "name": "transactionFee",
          "type": "uint256"
        },
        {
          "internalType": "uint256",
          "name": "gasPrice",
          "type": "uint256"
        },
        {
          "internalType": "uint256",
          "name": "gasLimit",
          "type": "uint256"
        },
        {
          "internalType": "uint256",
          "name": "nonce",
          "type": "uint256"
        },
        {
          "internalType": "bytes",
          "name": "approvalData",
          "type": "bytes"
        },
        {
          "internalType": "uint256",
          "name": "",
          "type": "uint256"
        }
      ],
      "name": "acceptRelayedCall",
      "outputs": [
        {
          "internalType": "uint256",
          "name": "",
          "type": "uint256"
        },
        {
          "internalType": "bytes",
          "name": "context",
          "type": "bytes"
        }
      ],
      "payable": false,
      "stateMutability": "view",
      "type": "function"
    },
    {
      "constant": true,
      "inputs": [
        {
          "internalType": "address",
          "name": "",
          "type": "address"
        }
      ],
      "name": "accountMapping",
      "outputs": [
        {
          "internalType": "bytes",
          "name": "",
          "type": "bytes"
        }
      ],
      "payable": false,
      "stateMutability": "view",
      "type": "function"
    },
    {
      "constant": false,
      "inputs": [
        {
          "internalType": "address",
          "name": "_registryOwner",
          "type": "address"
        },
        {
          "internalType": "address",
          "name": "_owner",
          "type": "address"
        },
        {
          "internalType": "bytes32",
          "name": "_proofHash",
          "type": "bytes32"
        },
        {
          "internalType": "bytes",
          "name": "_proofData",
          "type": "bytes"
        },
        {
          "internalType": "uint256",
          "name": "_value",
          "type": "uint256"
        }
      ],
      "name": "deposit",
      "outputs": [],
      "payable": false,
      "stateMutability": "nonpayable",
      "type": "function"
    },
    {
      "constant": false,
      "inputs": [
        {
          "internalType": "address",
          "name": "_registryOwner",
          "type": "address"
        },
        {
          "internalType": "address",
          "name": "_owner",
          "type": "address"
        },
        {
          "internalType": "bytes32",
          "name": "_proofHash",
          "type": "bytes32"
        },
        {
          "internalType": "bytes",
          "name": "_proofData",
          "type": "bytes"
        },
        {
          "internalType": "uint256",
          "name": "_value",
          "type": "uint256"
        },
        {
          "internalType": "bytes",
          "name": "signature",
          "type": "bytes"
        },
        {
          "internalType": "uint256",
          "name": "nonce",
          "type": "uint256"
        },
        {
          "internalType": "uint256",
          "name": "expiry",
          "type": "uint256"
        }
      ],
      "name": "deposit",
      "outputs": [],
      "payable": false,
      "stateMutability": "nonpayable",
      "type": "function"
    },
    {
      "constant": true,
      "inputs": [],
      "name": "epoch",
      "outputs": [
        {
          "internalType": "uint256",
          "name": "",
          "type": "uint256"
        }
      ],
      "payable": false,
      "stateMutability": "view",
      "type": "function"
    },
    {
      "constant": true,
      "inputs": [],
      "name": "getHubAddr",
      "outputs": [
        {
          "internalType": "address",
          "name": "",
          "type": "address"
        }
      ],
      "payable": false,
      "stateMutability": "view",
      "type": "function"
    },
    {
      "constant": false,
      "inputs": [
        {
          "internalType": "address",
          "name": "_aceAddress",
          "type": "address"
        },
        {
          "internalType": "address",
          "name": "_trustedGSNSignerAddress",
          "type": "address"
        }
      ],
      "name": "initialize",
      "outputs": [],
      "payable": false,
      "stateMutability": "nonpayable",
      "type": "function"
    },
    {
      "constant": false,
      "inputs": [],
      "name": "initialize",
      "outputs": [],
      "payable": false,
      "stateMutability": "nonpayable",
      "type": "function"
    },
    {
      "constant": false,
      "inputs": [
        {
          "internalType": "address",
          "name": "linkedTokenAddress",
          "type": "address"
        },
        {
          "internalType": "address",
          "name": "holder",
          "type": "address"
        },
        {
          "internalType": "uint256",
          "name": "nonce",
          "type": "uint256"
        },
        {
          "internalType": "bool",
          "name": "allowed",
          "type": "bool"
        },
        {
          "internalType": "uint256",
          "name": "expiry",
          "type": "uint256"
        },
        {
          "internalType": "address",
          "name": "spender",
          "type": "address"
        },
        {
          "internalType": "bytes",
          "name": "signature",
          "type": "bytes"
        }
      ],
      "name": "permit",
      "outputs": [],
      "payable": false,
      "stateMutability": "nonpayable",
      "type": "function"
    },
    {
      "constant": false,
      "inputs": [
        {
          "internalType": "bytes",
          "name": "context",
          "type": "bytes"
        },
        {
          "internalType": "bool",
          "name": "success",
          "type": "bool"
        },
        {
          "internalType": "uint256",
          "name": "actualCharge",
          "type": "uint256"
        },
        {
          "internalType": "bytes32",
          "name": "preRetVal",
          "type": "bytes32"
        }
      ],
      "name": "postRelayedCall",
      "outputs": [],
      "payable": false,
      "stateMutability": "nonpayable",
      "type": "function"
    },
    {
      "constant": false,
      "inputs": [
        {
          "internalType": "bytes",
          "name": "context",
          "type": "bytes"
        }
      ],
      "name": "preRelayedCall",
      "outputs": [
        {
          "internalType": "bytes32",
          "name": "",
          "type": "bytes32"
        }
      ],
      "payable": false,
      "stateMutability": "nonpayable",
      "type": "function"
    },
    {
      "constant": false,
      "inputs": [
        {
          "internalType": "address",
          "name": "_registryOwner",
          "type": "address"
        },
        {
          "internalType": "bytes32",
          "name": "_proofHash",
          "type": "bytes32"
        },
        {
          "internalType": "uint256",
          "name": "_value",
          "type": "uint256"
        }
      ],
      "name": "publicApprove",
      "outputs": [],
      "payable": false,
      "stateMutability": "nonpayable",
      "type": "function"
    },
    {
      "constant": false,
      "inputs": [
        {
          "internalType": "address",
          "name": "_account",
          "type": "address"
        },
        {
          "internalType": "address",
          "name": "_AZTECaddress",
          "type": "address"
        },
        {
          "internalType": "bytes",
          "name": "_linkedPublicKey",
          "type": "bytes"
        },
        {
          "internalType": "bytes",
          "name": "_spendingPublicKey",
          "type": "bytes"
        },
        {
          "internalType": "bytes",
          "name": "_signature",
          "type": "bytes"
        }
      ],
      "name": "registerAZTECExtension",
      "outputs": [],
      "payable": false,
      "stateMutability": "nonpayable",
      "type": "function"
    },
    {
      "constant": true,
      "inputs": [],
      "name": "relayHubVersion",
      "outputs": [
        {
          "internalType": "string",
          "name": "",
          "type": "string"
        }
      ],
      "payable": false,
      "stateMutability": "view",
      "type": "function"
    },
    {
      "constant": false,
      "inputs": [],
      "name": "setDefaultRelayHub",
      "outputs": [],
      "payable": false,
      "stateMutability": "nonpayable",
      "type": "function"
    },
    {
      "constant": false,
      "inputs": [],
      "name": "setGSNSigner",
      "outputs": [],
      "payable": false,
      "stateMutability": "nonpayable",
      "type": "function"
    },
    {
      "constant": true,
      "inputs": [
        {
          "internalType": "bytes32",
          "name": "",
          "type": "bytes32"
        }
      ],
      "name": "signatureLog",
      "outputs": [
        {
          "internalType": "bool",
          "name": "",
          "type": "bool"
        }
      ],
      "payable": false,
      "stateMutability": "view",
      "type": "function"
    },
    {
      "constant": true,
      "inputs": [
        {
          "internalType": "address",
          "name": "",
          "type": "address"
        }
      ],
      "name": "userToAZTECAccountMapping",
      "outputs": [
        {
          "internalType": "address",
          "name": "",
          "type": "address"
        }
      ],
      "payable": false,
      "stateMutability": "view",
      "type": "function"
    },
    {
      "constant": false,
      "inputs": [
        {
          "internalType": "uint24",
          "name": "_proofId",
          "type": "uint24"
        },
        {
          "internalType": "address",
          "name": "_registryOwner",
          "type": "address"
        },
        {
          "internalType": "bytes",
          "name": "_proofData",
          "type": "bytes"
        },
        {
          "internalType": "address",
          "name": "_spender",
          "type": "address"
        },
        {
          "internalType": "bytes",
          "name": "_proofSignature",
          "type": "bytes"
        }
      ],
      "name": "confidentialTransferFrom",
      "outputs": [],
      "payable": false,
      "stateMutability": "nonpayable",
      "type": "function"
    },
    {
      "constant": false,
      "inputs": [
        {
          "internalType": "uint24",
          "name": "_proofId",
          "type": "uint24"
        },
        {
          "internalType": "address",
          "name": "_registryOwner",
          "type": "address"
        },
        {
          "internalType": "bytes",
          "name": "_proofData",
          "type": "bytes"
        },
        {
          "internalType": "address",
          "name": "_spender",
          "type": "address"
        },
        {
          "internalType": "bytes",
          "name": "_proofSignature",
          "type": "bytes"
        },
        {
          "internalType": "bytes",
          "name": "_proofSignature2",
          "type": "bytes"
        }
      ],
      "name": "confidentialTransferFrom",
      "outputs": [],
      "payable": false,
      "stateMutability": "nonpayable",
      "type": "function"
    }
  ],
  "bytecode": "0x6301343aaa6036556301343b0f603b556301343b1c603d556301343b71603e557f454950373132446f6d61696e280000000000000000000000000000000000000060a09081527f737472696e67206e616d652c000000000000000000000000000000000000000060ad527f737472696e672076657273696f6e2c000000000000000000000000000000000060b9527f6164647265737320766572696679696e67436f6e74726163740000000000000060c8527f290000000000000000000000000000000000000000000000000000000000000060e152604260808181529120601960e2527f415a5445435f43525950544f4752415048595f454e47494e4500000000000000610102526001610122527f3100000000000000000000000000000000000000000000000000000000000000610142526101829081527fc8066e2c715ce196630b273cd256d8959d5b9fefc55e9e6d999fb0f08bb7f75f6101a2527fc89efdaa54c0f20c7adf612882df0950f5a951637e0307cdcb4c672f298b8bc66101c252306101e2526101628290526102026040522060355561351a806101a76000396000f3fe608060405234801561001057600080fd5b50600436106101c35760003560e01c806383947ea0116100f9578063d0da38ab11610097578063e0b28d2211610071578063e0b28d2214610dab578063e306f77914610dd1578063e308d6ff14610dd9578063f6cf6ab314610e0b576101c3565b8063d0da38ab14610bd0578063df92462514610d27578063e06e0e2214610d2f576101c3565b8063900cf0cf116100d3578063900cf0cf146108be578063ad61ccd5146108c6578063bb2fa91b14610943578063c52b2ff314610b0a576101c3565b806383947ea0146107415780638500e1f8146108ae5780638e526d9b146108b6576101c3565b8063485cc95511610166578063733276a911610140578063733276a9146106a957806374e861d6146106b157806380274db7146106b95780638129fc1c14610739576101c3565b8063485cc9551461049a57806349518b28146104c85780635a3c6a62146104d0576101c3565b80631220e2ff116101a25780631220e2ff1461022157806318cb65e61461022b5780633d6bb32c1461037f5780633d7d0988146103c1576101c3565b80625bf732146101c857806308ae900a146101e857806309146c7c146101f0575b600080fd5b6101d0610e13565b6040805162ffffff9092168252519081900360200190f35b6101d0610e1a565b61020d6004803603602081101561020657600080fd5b5035610e21565b604080519115158252519081900360200190f35b610229610e36565b005b610229600480360360a081101561024157600080fd5b62ffffff823516916001600160a01b0360208201351691810190606081016040820135600160201b81111561027557600080fd5b82018360208201111561028757600080fd5b803590602001918460018302840111600160201b831117156102a857600080fd5b91908080601f01602080910402602001604051908101604052809392919081815260200183838082843760009201919091525092956001600160a01b03853516959094909350604081019250602001359050600160201b81111561030b57600080fd5b82018360208201111561031d57600080fd5b803590602001918460018302840111600160201b8311171561033e57600080fd5b91908080601f016020809104026020016040519081016040528093929190818152602001838380828437600092019190915250929550610e55945050505050565b6103a56004803603602081101561039557600080fd5b50356001600160a01b031661124a565b604080516001600160a01b039092168252519081900360200190f35b610229600480360360e08110156103d757600080fd5b6001600160a01b0382358116926020810135821692604082013592606083013515159260808101359260a08201359092169181019060e0810160c0820135600160201b81111561042657600080fd5b82018360208201111561043857600080fd5b803590602001918460018302840111600160201b8311171561045957600080fd5b91908080601f016020809104026020016040519081016040528093929190818152602001838380828437600092019190915250929550611265945050505050565b610229600480360360408110156104b057600080fd5b506001600160a01b038135811691602001351661131c565b6101d06113e4565b610229600480360360c08110156104e657600080fd5b62ffffff823516916001600160a01b0360208201351691810190606081016040820135600160201b81111561051a57600080fd5b82018360208201111561052c57600080fd5b803590602001918460018302840111600160201b8311171561054d57600080fd5b91908080601f01602080910402602001604051908101604052809392919081815260200183838082843760009201919091525092956001600160a01b03853516959094909350604081019250602001359050600160201b8111156105b057600080fd5b8201836020820111156105c257600080fd5b803590602001918460018302840111600160201b831117156105e357600080fd5b91908080601f0160208091040260200160405190810160405280939291908181526020018383808284376000920191909152509295949360208101935035915050600160201b81111561063557600080fd5b82018360208201111561064757600080fd5b803590602001918460018302840111600160201b8311171561066857600080fd5b91908080601f0160208091040260200160405190810160405280939291908181526020018383808284376000920191909152509295506113eb945050505050565b610229611938565b6103a5611960565b610727600480360360208110156106cf57600080fd5b810190602081018135600160201b8111156106e957600080fd5b8201836020820111156106fb57600080fd5b803590602001918460018302840111600160201b8311171561071c57600080fd5b509092509050611970565b60408051918252519081900360200190f35b610229611a11565b61082f600480360361012081101561075857600080fd5b6001600160a01b038235811692602081013590911691810190606081016040820135600160201b81111561078b57600080fd5b82018360208201111561079d57600080fd5b803590602001918460018302840111600160201b831117156107be57600080fd5b9193909282359260208101359260408201359260608301359260a081019060800135600160201b8111156107f157600080fd5b82018360208201111561080357600080fd5b803590602001918460018302840111600160201b8311171561082457600080fd5b919350915035611acb565b6040518083815260200180602001828103825283818151815260200191508051906020019080838360005b8381101561087257818101518382015260200161085a565b50505050905090810190601f16801561089f5780820380516001836020036101000a031916815260200191505b50935050505060405180910390f35b6101d0611d47565b6101d0611d4e565b610727611d55565b6108ce611d5b565b6040805160208082528351818301528351919283929083019185019080838360005b838110156109085781810151838201526020016108f0565b50505050905090810190601f1680156109355780820380516001836020036101000a031916815260200191505b509250505060405180910390f35b610229600480360360a081101561095957600080fd5b6001600160a01b038235811692602081013590911691810190606081016040820135600160201b81111561098c57600080fd5b82018360208201111561099e57600080fd5b803590602001918460018302840111600160201b831117156109bf57600080fd5b91908080601f0160208091040260200160405190810160405280939291908181526020018383808284376000920191909152509295949360208101935035915050600160201b811115610a1157600080fd5b820183602082011115610a2357600080fd5b803590602001918460018302840111600160201b83111715610a4457600080fd5b91908080601f0160208091040260200160405190810160405280939291908181526020018383808284376000920191909152509295949360208101935035915050600160201b811115610a9657600080fd5b820183602082011115610aa857600080fd5b803590602001918460018302840111600160201b83111715610ac957600080fd5b91908080601f016020809104026020016040519081016040528093929190818152602001838380828437600092019190915250929550611d7a945050505050565b610229600480360360a0811015610b2057600080fd5b6001600160a01b03823581169260208101359091169160408201359190810190608081016060820135600160201b811115610b5a57600080fd5b820183602082011115610b6c57600080fd5b803590602001918460018302840111600160201b83111715610b8d57600080fd5b91908080601f0160208091040260200160405190810160405280939291908181526020018383808284376000920191909152509295505091359250612109915050565b6102296004803603610100811015610be757600080fd5b6001600160a01b03823581169260208101359091169160408201359190810190608081016060820135600160201b811115610c2157600080fd5b820183602082011115610c3357600080fd5b803590602001918460018302840111600160201b83111715610c5457600080fd5b91908080601f01602080910402602001604051908101604052809392919081815260200183838082843760009201919091525092958435959094909350604081019250602001359050600160201b811115610cae57600080fd5b820183602082011115610cc057600080fd5b803590602001918460018302840111600160201b83111715610ce157600080fd5b91908080601f01602080910402602001604051908101604052809392919081815260200183838082843760009201919091525092955050823593505050602001356126d6565b6101d0612776565b61022960048036036080811015610d4557600080fd5b810190602081018135600160201b811115610d5f57600080fd5b820183602082011115610d7157600080fd5b803590602001918460018302840111600160201b83111715610d9257600080fd5b919350915080351515906020810135906040013561277d565b6108ce60048036036020811015610dc157600080fd5b50356001600160a01b031661281f565b6107276128ba565b61022960048036036060811015610def57600080fd5b506001600160a01b0381351690602081013590604001356128c0565b6103a5612939565b6201010181565b6201040381565b60396020526000908152604090205460ff1681565b610e5373d216153c06e857cd7f72665e0af1d7d82172f494612948565b565b603a5460405163a2866ea360e01b815262ffffff871660048201908152306024830181905260606044840181815288516064860152885191956001600160a01b03169463a2866ea3948c94938b93919260840190602085019080838360005b83811015610ecc578181015183820152602001610eb4565b50505050905090810190601f168015610ef95780820380516001836020036101000a031916815260200191505b50945050505050600060405180830381600087803b158015610f1a57600080fd5b505af1158015610f2e573d6000803e3d6000fd5b505050506040513d6000823e601f3d908101601f191682016040526020811015610f5757600080fd5b8101908080516040519392919084600160201b821115610f7657600080fd5b908301906020820185811115610f8b57600080fd5b8251600160201b811182820188101715610fa457600080fd5b82525081516020918201929091019080838360005b83811015610fd1578181015183820152602001610fb9565b50505050905090810190601f168015610ffe5780820380516001836020036101000a031916815260200191505b506040525050509050815160001461116057604051630530182d60e11b815262ffffff8716600482019081526001600160a01b03858116604484015260016064840181905260a060248501908152855160a48601528551928a1694630a60305a948c9488948b9490938b9392608482019160c40190602089019080838360005b8381101561109657818101518382015260200161107e565b50505050905090810190601f1680156110c35780820380516001836020036101000a031916815260200191505b50838103825284518152845160209182019186019080838360005b838110156110f65781810151838201526020016110de565b50505050905090810190601f1680156111235780820380516001836020036101000a031916815260200191505b50975050505050505050600060405180830381600087803b15801561114757600080fd5b505af115801561115b573d6000803e3d6000fd5b505050505b6001600160a01b03851663cdfea90e8761118184600063ffffffff612a4816565b604080516001600160e01b031960e086901b16815262ffffff8416600482019081526024820192835283516044830152835190929160640190602085019080838360005b838110156111dd5781810151838201526020016111c5565b50505050905090810190601f16801561120a5780820380516001836020036101000a031916815260200191505b509350505050600060405180830381600087803b15801561122a57600080fd5b505af115801561123e573d6000803e3d6000fd5b50505050505050505050565b6038602052600090815260409020546001600160a01b031681565b6020810151604080830151604184015182516323f2ebc360e21b81526001600160a01b038b811660048301528781166024830152604482018b905260648201899052891515608483015260ff831660a483015260c4820186905260e48201849052935192939192918c1691638fcbaf0c916101048082019260009290919082900301818387803b1580156112f857600080fd5b505af115801561130c573d6000803e3d6000fd5b5050505050505050505050505050565b600054610100900460ff16806113355750611335612a9f565b80611343575060005460ff16155b61137e5760405162461bcd60e51b815260040180806020018281038252602e8152602001806133a3602e913960400191505060405180910390fd5b600054610100900460ff161580156113a9576000805460ff1961ff0019909116610100171660011790555b603a80546001600160a01b0319166001600160a01b0385161790556113cd82612aa5565b80156113df576000805461ff00191690555b505050565b6201040281565b603a5460405163a2866ea360e01b815262ffffff881660048201908152306024830181905260606044840181815289516064860152895191956001600160a01b03169463a2866ea3948d94938c93919260840190602085019080838360005b8381101561146257818101518382015260200161144a565b50505050905090810190601f16801561148f5780820380516001836020036101000a031916815260200191505b50945050505050600060405180830381600087803b1580156114b057600080fd5b505af11580156114c4573d6000803e3d6000fd5b505050506040513d6000823e601f3d908101601f1916820160405260208110156114ed57600080fd5b8101908080516040519392919084600160201b82111561150c57600080fd5b90830190602082018581111561152157600080fd5b8251600160201b81118282018810171561153a57600080fd5b82525081516020918201929091019080838360005b8381101561156757818101518382015260200161154f565b50505050905090810190601f1680156115945780820380516001836020036101000a031916815260200191505b50604052505050905082516000146116f657604051630530182d60e11b815262ffffff8816600482019081526001600160a01b03868116604484015260016064840181905260a060248501908152855160a48601528551928b1694630a60305a948d9488948c9490938c9392608482019160c40190602089019080838360005b8381101561162c578181015183820152602001611614565b50505050905090810190601f1680156116595780820380516001836020036101000a031916815260200191505b50838103825284518152845160209182019186019080838360005b8381101561168c578181015183820152602001611674565b50505050905090810190601f1680156116b95780820380516001836020036101000a031916815260200191505b50975050505050505050600060405180830381600087803b1580156116dd57600080fd5b505af11580156116f1573d6000803e3d6000fd5b505050505b81511561184d57604051630530182d60e11b815262ffffff8816600482019081526001600160a01b03868116604484015260016064840181905260a060248501908152855160a48601528551928b1694630a60305a948d9488948c9490938b9392608482019160c40190602089019080838360005b8381101561178357818101518382015260200161176b565b50505050905090810190601f1680156117b05780820380516001836020036101000a031916815260200191505b50838103825284518152845160209182019186019080838360005b838110156117e35781810151838201526020016117cb565b50505050905090810190601f1680156118105780820380516001836020036101000a031916815260200191505b50975050505050505050600060405180830381600087803b15801561183457600080fd5b505af1158015611848573d6000803e3d6000fd5b505050505b6001600160a01b03861663cdfea90e8861186e84600063ffffffff612a4816565b604080516001600160e01b031960e086901b16815262ffffff8416600482019081526024820192835283516044830152835190929160640190602085019080838360005b838110156118ca5781810151838201526020016118b2565b50505050905090810190601f1680156118f75780820380516001836020036101000a031916815260200191505b509350505050600060405180830381600087803b15801561191757600080fd5b505af115801561192b573d6000803e3d6000fd5b5050505050505050505050565b603c80546001600160a01b031916735323b6bbd3421983323b3f4f0b11c2d6d3bce1d8179055565b6033546001600160a01b03165b90565b600061197a611960565b6001600160a01b0316336001600160a01b0316146119c95760405162461bcd60e51b81526004018080602001828103825260248152602001806134586024913960400191505060405180910390fd5b611a0883838080601f016020809104026020016040519081016040528093929190818152602001838380828437600092019190915250612bb092505050565b90505b92915050565b600054610100900460ff1680611a2a5750611a2a612a9f565b80611a38575060005460ff16155b611a735760405162461bcd60e51b815260040180806020018281038252602e8152602001806133a3602e913960400191505060405180910390fd5b600054610100900460ff16158015611a9e576000805460ff1961ff0019909116610100171660011790555b6033546001600160a01b0316611ab657611ab6610e36565b8015611ac8576000805461ff00191690555b50565b600060606000606086866040811015611ae357600080fd5b81359190810190604081016020820135600160201b811115611b0457600080fd5b820183602082011115611b1657600080fd5b803590602001918460018302840111600160201b83111715611b3757600080fd5b91908080601f016020809104026020016040519081016040528093929190818152602001838380828437600081840152601f19601f8201169050808301925050505050505091929192905050509150915060608f8f8f8f8f8f8f8f611b9a611960565b308c604051602001808c6001600160a01b03166001600160a01b031660601b81526014018b6001600160a01b03166001600160a01b031660601b81526014018a8a808284379190910198895250506020808801969096526040808801959095526060808801949094526bffffffffffffffffffffffff1992841b83166080880152921b16609485015260a8808501919091528151808503909101815260c8840190915260e88301828152895161010885015289519198508997509550859450610128909201925085019080838360005b83811015611c82578181015183820152602001611c6a565b50505050905090810190601f168015611caf5780820380516001836020036101000a031916815260200191505b5060408051601f19818403018152919052603c54855160208701209198506001600160a01b03169350611cf59250859150611ce990612bb6565b9063ffffffff612c0716565b6001600160a01b03161415611d2d5782421115611d2457611d1860015b85612ceb565b94509450505050611d37565b611d1884612cf4565b611d186000611d12565b9b509b9950505050505050505050565b6201040181565b6201020181565b603e5481565b6040805180820190915260058152640312e302e360dc1b602082015290565b6000816040516020018082805190602001908083835b60208310611daf5780518252601f199092019160209182019101611d90565b51815160209384036101000a60001901801990921691161790526040805192909401828103601f190183528452815191810191909120600081815260399092529290205491945050600160ff909116151514159150611e579050576040805162461bcd60e51b815260206004820152601f60248201527f7369676e61747572652068617320616c7265616479206265656e207573656400604482015290519081900360640190fd5b6000818152603960209081526040808320805460ff1916600117905580516060810182526001600160a01b03808b16825292810188905291881690820152611ea890611ea290612cf9565b84612efd565b845160208601209091506001600160a01b03888116911614611efb5760405162461bcd60e51b81526004018080602001828103825260218152602001806134376021913960400191505060405180910390fd5b806001600160a01b0316876001600160a01b031614611f61576040805162461bcd60e51b815260206004820152601a60248201527f7369676e6572206d75737420626520746865206163636f756e74000000000000604482015290519081900360640190fd5b6001600160a01b03871660009081526037602090815260409091208651611f8a9288019061321c565b506001600160a01b0387811660008181526038602090815260409182902080546001600160a01b0319168b861617905581519283529284169282019290925281517f95a39d922be29576604d782638b30fccbff80d85c69a650415d8b560270ec9a0929181900390910190a1866001600160a01b03167f6943ea2c7fa944e0014e912e815bb331b63af36341f53622fce2f97d26a928e28686604051808060200180602001838103835285818151815260200191508051906020019080838360005b8381101561206457818101518382015260200161204c565b50505050905090810190601f1680156120915780820380516001836020036101000a031916815260200191505b50838103825284518152845160209182019186019080838360005b838110156120c45781810151838201526020016120ac565b50505050905090810190601f1680156120f15780820380516001836020036101000a031916815260200191505b5094505050505060405180910390a250505050505050565b603a5460405163a2866ea360e01b81526201010160048201818152306024840181905260606044850181815288516064870152885191966001600160a01b03169563a2866ea395948a9390929160840190602085019080838360005b8381101561217d578181015183820152602001612165565b50505050905090810190601f1680156121aa5780820380516001836020036101000a031916815260200191505b50945050505050600060405180830381600087803b1580156121cb57600080fd5b505af11580156121df573d6000803e3d6000fd5b505050506040513d6000823e601f3d908101601f19168201604052602081101561220857600080fd5b8101908080516040519392919084600160201b82111561222757600080fd5b90830190602082018581111561223c57600080fd5b8251600160201b81118282018810171561225557600080fd5b82525081516020918201929091019080838360005b8381101561228257818101518382015260200161226a565b50505050905090810190601f1680156122af5780820380516001836020036101000a031916815260200191505b5060405250505090506122c0613045565b6001600160a01b0316856001600160a01b0316146123ed576122e0613045565b6001600160a01b03868116600090815260386020526040902054811691161461233a5760405162461bcd60e51b81526004018080602001828103825260368152602001806132b56036913960400191505060405180910390fd5b606061235561235083600063ffffffff612a4816565b613070565b505091505060006123658261309a565b905060005b818110156123e957600061238c612387858463ffffffff612a4816565b6130a1565b50509050886001600160a01b0316816001600160a01b0316146123e05760405162461bcd60e51b81526004018080602001828103825260488152602001806132eb6048913960600191505060405180910390fd5b5060010161236a565b5050505b603a5460408051633e5c75df60e21b81526001600160a01b0389811660048301529151600093929092169163f971d77c9160248082019261010092909190829003018186803b15801561243f57600080fd5b505afa158015612453573d6000803e3d6000fd5b505050506040513d61010081101561246a57600080fd5b5051604080516323b872dd60e01b81526001600160a01b0389811660048301523060248301526044820187905291519293508392918316916323b872dd916064808201926020929091908290030181600087803b1580156124ca57600080fd5b505af11580156124de573d6000803e3d6000fd5b505050506040513d60208110156124f457600080fd5b5050603a546040805163095ea7b360e01b81526001600160a01b0392831660048201526024810187905290519183169163095ea7b3916044808201926020929091908290030181600087803b15801561254c57600080fd5b505af1158015612560573d6000803e3d6000fd5b505050506040513d602081101561257657600080fd5b5050603a546040805163e308d6ff60e01b81526001600160a01b038b81166004830152602482018a9052604482018890529151919092169163e308d6ff91606480830192600092919082900301818387803b1580156125d457600080fd5b505af11580156125e8573d6000803e3d6000fd5b5050506001600160a01b038916905063cdfea90e6201010161260b866000612a48565b604080516001600160e01b031960e086901b16815262ffffff8416600482019081526024820192835283516044830152835190929160640190602085019080838360005b8381101561266757818101518382015260200161264f565b50505050905090810190601f1680156126945780820380516001836020036101000a031916815260200191505b509350505050600060405180830381600087803b1580156126b457600080fd5b505af11580156126c8573d6000803e3d6000fd5b505050505050505050505050565b603a5460408051633e5c75df60e21b81526001600160a01b038b811660048301529151600093929092169163f971d77c9160248082019261010092909190829003018186803b15801561272857600080fd5b505afa15801561273c573d6000803e3d6000fd5b505050506040513d61010081101561275357600080fd5b50519050600130612769838b878588868c611265565b61192b8b8b8b8b8b612109565b6201030181565b612785611960565b6001600160a01b0316336001600160a01b0316146127d45760405162461bcd60e51b81526004018080602001828103825260248152602001806134586024913960400191505060405180910390fd5b61281885858080601f0160208091040260200160405190810160405280939291908181526020018383808284376000920191909152508792508691508590506130bf565b5050505050565b60376020908152600091825260409182902080548351601f6002600019610100600186161502019093169290920491820184900484028101840190945280845290918301828280156128b25780601f10612887576101008083540402835291602001916128b2565b820191906000526020600020905b81548152906001019060200180831161289557829003601f168201915b505050505081565b60355481565b603a546040805163e308d6ff60e01b81526001600160a01b03868116600483015260248201869052604482018590529151919092169163e308d6ff91606480830192600092919082900301818387803b15801561291c57600080fd5b505af1158015612930573d6000803e3d6000fd5b50505050505050565b603c546001600160a01b031681565b6033546001600160a01b039081169082166129945760405162461bcd60e51b815260040180806020018281038252602e815260200180613333602e913960400191505060405180910390fd5b806001600160a01b0316826001600160a01b031614156129e55760405162461bcd60e51b815260040180806020018281038252602d8152602001806133d1602d913960400191505060405180910390fd5b816001600160a01b0316816001600160a01b03167fb9f84b8e65164b14439ae3620df0a4d8786d896996c0282b683f9d8c08f046e860405160405180910390a350603380546001600160a01b0319166001600160a01b0392909216919091179055565b602082810151908202830160400151830190821080612a985760405162461bcd60e51b81526004018080602001828103825260228152602001806134c46022913960400191505060405180910390fd5b5092915050565b303b1590565b600054610100900460ff1680612abe5750612abe612a9f565b80612acc575060005460ff16155b612b075760405162461bcd60e51b815260040180806020018281038252602e8152602001806133a3602e913960400191505060405180910390fd5b600054610100900460ff16158015612b32576000805460ff1961ff0019909116610100171660011790555b6001600160a01b038216612b775760405162461bcd60e51b81526004018080602001828103825260398152602001806133fe6039913960400191505060405180910390fd5b603480546001600160a01b0319166001600160a01b038416179055612b9a611a11565b8015612bac576000805461ff00191690555b5050565b50600090565b604080517f19457468657265756d205369676e6564204d6573736167653a0a333200000000602080830191909152603c8083019490945282518083039094018452605c909101909152815191012090565b60008151604114612c1a57506000611a0b565b60208201516040830151606084015160001a6fa2a8918ca85bafe22016d0b997e4df60600160ff1b03821115612c565760009350505050611a0b565b8060ff16601b14158015612c6e57508060ff16601c14155b15612c7f5760009350505050611a0b565b6040805160008152602080820180845289905260ff8416828401526060820186905260808201859052915160019260a0808401939192601f1981019281900390910190855afa158015612cd6573d6000803e3d6000fd5b5050604051601f190151979650505050505050565b600b9190910191565b600091565b600080604051806080016040528060428152602001613361604291396040516020018082805190602001908083835b60208310612d475780518252601f199092019160209182019101612d28565b51815160001960209485036101000a0190811690199190911617905260408051601f19959093018381039590950183528481528251928201929092206e4163636f756e74526567697374727960881b8552825194859003600f018520601960f91b8652835195869003600101862086840192909252858401526060850152306080808601919091528251808603909101815260a08501808452815191909201206101208501909252604880825291965086955093509161347c915060c001396040516020018082805190602001908083835b60208310612e385780518252601f199092019160209182019101612e19565b51815160209384036101000a60001901801990921691161790526040805192909401828103601f190183528085528251928201929092208a518b8301518051908401209b860151848401929092526001600160a01b0390811684870152606084019b909b52999099166080808301919091528351808303909101815260a0820184528051908a012061190160f01b60c083015260c282019690965260e28082019690965282518082039096018652610102019091525050815191909401209392505050565b6000808251848452606084015160408501518160f81c9150604086015160608701526020860151604087015281602087015260208660808860015afa601c8314601b84141760418514166fa2a8918ca85bafe22016d0b997e4df60600160ff1b038310161693508551871460008114612f7557612f7a565b865195505b5050508352808015612f9457506001600160a01b03821615155b612a98576001600160a01b038216612ff3576040805162461bcd60e51b815260206004820152601a60248201527f7369676e657220616464726573732063616e6e6f742062652030000000000000604482015290519081900360640190fd5b80612a98576040805162461bcd60e51b815260206004820152601960248201527f7369676e6174757265207265636f76657279206661696c656400000000000000604482015290519081900360640190fd5b6033546000906001600160a01b0316331461306157503361196d565b6130696131cf565b905061196d565b60208101516040820151606083015160808401519284019491909301926001600160a01b03169190565b6020015190565b604081015160608201516001600160a01b0390911692909160800190565b60608480602001905160208110156130d657600080fd5b8101908080516040519392919084600160201b8211156130f557600080fd5b90830190602082018581111561310a57600080fd5b8251600160201b81118282018810171561312357600080fd5b82525081516020918201929091019080838360005b83811015613150578181015183820152602001613138565b50505050905090810190601f16801561317d5780820380516001836020036101000a031916815260200191505b50604052505050905083151581805190602001207f2f708c980c8415108d54566eeeb78f5c2ddf6e1fab619607c30c001b127be075856040518082815260200191505060405180910390a35050505050565b600060606000368080601f0160208091040260200160405190810160405280939291908181526020018383808284376000920191909152505050503601516001600160a01b031692915050565b828054600181600116156101000203166002900490600052602060002090601f016020900481019282601f1061325d57805160ff191683800117855561328a565b8280016001018555821561328a579182015b8281111561328a57825182559160200191906001019061326f565b5061329692915061329a565b5090565b61196d91905b8082111561329657600081556001016132a056fe53656e64657220686173206e6f207065726d697373696f6e20746f206465706f736974206f6e206f776e6572277320626568616c662e43616e6e6f74206465706f736974206e6f746520746f206f74686572206163636f756e742069662073656e646572206973206e6f74207468652073616d65206173206f776e65722e47534e526563697069656e743a206e65772052656c617948756220697320746865207a65726f2061646472657373454950373132446f6d61696e28737472696e67206e616d652c737472696e672076657273696f6e2c6164647265737320766572696679696e67436f6e747261637429436f6e747261637420696e7374616e63652068617320616c7265616479206265656e20696e697469616c697a656447534e526563697069656e743a206e65772052656c6179487562206973207468652063757272656e74206f6e6547534e526563697069656e745369676e61747572653a2074727573746564207369676e657220697320746865207a65726f20616464726573736164647265737320646f6573206e6f74206d61746368207075626c6963206b657947534e526563697069656e743a2063616c6c6572206973206e6f742052656c6179487562415a5445434163636f756e742861646472657373206163636f756e742c6279746573206c696e6b65645075626c69634b65792c6164647265737320415a5445436164647265737329415a54454320617272617920696e646578206973206f7574206f6620626f756e6473a265627a7a72315820ac47ab09ff53a6ea145926d97109eae936e386db6ac53d8f859a2af44edbb9a064736f6c63430005110032",
  "source": "pragma solidity >=0.5.0 <0.6.0;\n\nimport \"../20200220/Behaviour20200220.sol\";\nimport \"../../../interfaces/IERC20Permit.sol\";\n\n/**\n * @title Behaviour20200305 implementation\n * @author AZTEC\n * \n * Copyright 2020 Spilsbury Holdings Ltd \n *\n * Licensed under the GNU Lesser General Public Licence, Version 3.0 (the \"License\");\n * you may not use this file except in compliance with the License.\n *\n * This program is distributed in the hope that it will be useful,\n * but WITHOUT ANY WARRANTY; without even the implied warranty of\n * MERCHANTABILITY or FITNESS FOR A PARTICULAR PURPOSE.  See the\n * GNU Lesser General Public License for more details.\n *\n * You should have received a copy of the GNU Lesser General Public License\n * along with this program.  If not, see <https://www.gnu.org/licenses/>.\n **/\ncontract Behaviour20200305 is Behaviour20200220 {\n    /**\n    * @dev epoch number, used for version control in upgradeability. The naming convention is based on the\n    * date on which the contract was created, in the format: YYYYMMDD\n    */\n    uint256 public epoch = 20200305;\n\n    /**\n    * @dev Perform a confidential transfer, mediated by a smart contracrt\n    * @param _proofId - uint24 proofId\n    * @param _registryOwner - address of the note registry owner\n    * @param _proofData - data generated from proof construction, which is used to validate the proof\n    * @param _spender - address that will be spending the notes\n    * @param _proofSignature - EIP712 signature used to approve/revoke permission for the proof\n    * @param _proofSignature2 - EIP712 signature with be s bit flipped for replay protection of ZkDai\n    * to be spent\n    */\n    function confidentialTransferFrom(\n        uint24 _proofId,\n        address _registryOwner,\n        bytes memory _proofData,\n        address _spender,\n        bytes memory _proofSignature,\n        bytes memory _proofSignature2\n    ) public {\n\n        bytes memory proofOutputs = ace.validateProof(_proofId, address(this), _proofData);\n\n        if(_proofSignature.length != 0) {\n            IZkAsset(_registryOwner).approveProof(_proofId, proofOutputs, _spender, true, _proofSignature);\n        }\n        if(_proofSignature2.length != 0) {\n            IZkAsset(_registryOwner).approveProof(_proofId, proofOutputs, _spender, true, _proofSignature2);\n        }\n\n        IZkAsset(_registryOwner).confidentialTransferFrom(_proofId, proofOutputs.get(0));\n    }\n}\n\n",
  "sourcePath": "/Users/arnaudschenk/dev/AZTEC/packages/protocol/contracts/AccountRegistry/epochs/20200305/Behaviour20200305.sol",
  "compiler": {
    "name": "solc",
    "version": "0.5.17+commit.d19bba13.Emscripten.clang"
  },
  "schemaVersion": "3.0.23",
  "updatedAt": "2020-03-18T13:47:44.064Z",
  "networkType": "ethereum",
  "devdoc": {
    "author": "AZTEC  * Copyright 2020 Spilsbury Holdings Ltd  * Licensed under the GNU Lesser General Public Licence, Version 3.0 (the \"License\"); you may not use this file except in compliance with the License. * This program is distributed in the hope that it will be useful, but WITHOUT ANY WARRANTY; without even the implied warranty of MERCHANTABILITY or FITNESS FOR A PARTICULAR PURPOSE.  See the GNU Lesser General Public License for more details. * You should have received a copy of the GNU Lesser General Public License along with this program.  If not, see <https://www.gnu.org/licenses/>.*",
    "methods": {
      "acceptRelayedCall(address,address,bytes,uint256,uint256,uint256,uint256,bytes,uint256)": {
        "details": "Overwrite the accceptRelayedCall() method of Behaviour20200106.sol, to allow it  to be used with an updated GSN signer address.  Method used to ensure that only transactions with a trusted signature can be relayed through the GSN."
      },
      "confidentialTransferFrom(uint24,address,bytes,address,bytes)": {
        "details": "Perform a confidential transfer, mediated by a smart contracrt",
        "params": {
          "_proofData": "- data generated from proof construction, which is used to validate the proof",
          "_proofId": "- uint24 proofId",
          "_proofSignature": "- EIP712 signature used to approve/revoke permission for the proof to be spent",
          "_registryOwner": "- address of the note registry owner",
          "_spender": "- address that will be spending the notes"
        }
      },
      "confidentialTransferFrom(uint24,address,bytes,address,bytes,bytes)": {
        "details": "Perform a confidential transfer, mediated by a smart contracrt",
        "params": {
          "_proofData": "- data generated from proof construction, which is used to validate the proof",
          "_proofId": "- uint24 proofId",
          "_proofSignature": "- EIP712 signature used to approve/revoke permission for the proof",
          "_proofSignature2": "- EIP712 signature with be s bit flipped for replay protection of ZkDai to be spent",
          "_registryOwner": "- address of the note registry owner",
          "_spender": "- address that will be spending the notes"
        }
      },
      "deposit(address,address,bytes32,bytes,uint256)": {
        "details": "Deposit ERC20 tokens into zero-knowledge notes in a transaction mediated via the GSN. Called by a user",
        "params": {
          "_owner": "- owner of the ERC20s being deposited",
          "_proofData": "- cryptographic data associated with the zero-knowledge proof",
          "_proofHash": "- hash of the zero-knowledge deposit proof",
          "_registryOwner": "- owner of the zkAsset",
          "_value": "- number of ERC20s being deposited"
        }
      },
      "deposit(address,address,bytes32,bytes,uint256,bytes,uint256,uint256)": {
        "details": "This deposit() implementation performs the standard AccountRegistry deposit functionality, but it is also specifically compatible with the DAI permit() function.  The permit() function removes the need for a user to send a seperate approval() transaction beforehand in order to approve another address to spend DAI on their behalf.  ",
        "params": {
          "_owner": "- owner of the ERC20s being deposited",
          "_proofData": "- cryptographic data associated with the zero-knowledge proof",
          "_proofHash": "- hash of the zero-knowledge deposit proof",
          "_registryOwner": "- owner of the zkAsset",
          "_value": "- number of ERC20s being deposited",
          "expiry": "- unix timestamp up to which the permit is valid",
          "nonce": "- permit nonce used for signature replay protection",
          "signature": "- EIP712 signature supplied to permit() for granting approval"
        }
      },
      "getHubAddr()": {
        "details": "Returns the address of the {IRelayHub} contract for this recipient."
      },
      "initialize(address,address)": {
        "details": "Initialize the contract and set up it's state. An initialize function rather than a constructor is used to make this compatible with the upgradeability pattern",
        "params": {
          "_aceAddress": "- address of the AZTEC Cryptography Engine",
          "_trustedGSNSignerAddress": "- address which will produce signature to approve relayed GSN calls"
        }
      },
      "permit(address,address,uint256,bool,uint256,address,bytes)": {
        "details": "Call linkedToken.permit(), to grant an address approval to spend linkedToken tokens on holder's behalf. Makes use of the new DAI permit() method. Permissioning is performed by  signature verification.      * Method exposed to give user agency over revoking/approving, setting expiry, spender etc. ",
        "params": {
          "allowed": "- bool representing whether approval is being granted or revoked",
          "expiry": "- period of time for which the approval is valid",
          "holder": "- owner of the ERC20 tokens, which are being approved to be spent by the spender",
          "linkedTokenAddress": "- address of the linkedToken",
          "nonce": "- permit nonce used for signature replay protection",
          "signature": "- EIP712 signature supplied to permit() for granting approval",
          "spender": "- address being approved to spend "
        }
      },
      "postRelayedCall(bytes,bool,uint256,bytes32)": {
        "details": "See `IRelayRecipient.postRelayedCall`.     * This function should not be overriden directly, use `_postRelayedCall` instead.     * * Requirements:     * - the caller must be the `RelayHub` contract."
      },
      "preRelayedCall(bytes)": {
        "details": "See `IRelayRecipient.preRelayedCall`.     * This function should not be overriden directly, use `_preRelayedCall` instead.     * * Requirements:     * - the caller must be the `RelayHub` contract."
      },
      "publicApprove(address,bytes32,uint256)": {
        "details": "Approve a registry to spend up to a number of tokens, for a particular proof",
        "params": {
          "_proofHash": "- hash of the proof which is being approved to result in the spending of tokens",
          "_registryOwner": "- address that is being approved to spend the tokens",
          "_value": "- numer of tokens spending is approved up to"
        }
      },
      "registerAZTECExtension(address,address,bytes,bytes,bytes)": {
        "details": "Registers a linkedPublicKey to an Ethereum address, if a valid signature is provided or the sender is the ethereum address in question",
        "params": {
          "_account": "- address to which the linkedPublicKey is being registered",
          "_linkedPublicKey": "- an additional public key which the sender wishes to link to the _account",
          "_signature": "- an EIP712 compatible signature of the account & linkedPublicKey",
          "_spendingPublicKey": "- the Ethereum public key associated with the Ethereum address"
        }
      },
      "relayHubVersion()": {
        "details": "Returns the version string of the {IRelayHub} for which this recipient implementation was built. If {_upgradeRelayHub} is used, the new {IRelayHub} instance should be compatible with this version."
      },
      "setGSNSigner()": {
        "details": "Set the GSN signer address for this behaviour contract"
      }
    },
    "title": "Behaviour20200305 implementation"
  },
  "userdoc": {
    "methods": {}
  }
}