{
    "contractName": "AZTECAccountRegistryGSN",
    "abi": [
        {
            "constant": true,
            "inputs": [],
            "name": "JOIN_SPLIT_PROOF",
            "outputs": [
                {
                    "name": "",
                    "type": "uint24"
                }
            ],
            "payable": false,
            "stateMutability": "view",
            "type": "function"
        },
        {
            "constant": true,
            "inputs": [],
            "name": "PUBLIC_RANGE_PROOF",
            "outputs": [
                {
                    "name": "",
                    "type": "uint24"
                }
            ],
            "payable": false,
            "stateMutability": "view",
            "type": "function"
        },
        {
            "constant": true,
            "inputs": [],
            "name": "PRIVATE_RANGE_PROOF",
            "outputs": [
                {
                    "name": "",
                    "type": "uint24"
                }
            ],
            "payable": false,
            "stateMutability": "view",
            "type": "function"
        },
        {
            "constant": true,
            "inputs": [],
            "name": "getHubAddr",
            "outputs": [
                {
                    "name": "",
                    "type": "address"
                }
            ],
            "payable": false,
            "stateMutability": "view",
            "type": "function"
        },
        {
            "constant": false,
            "inputs": [
                {
                    "name": "context",
                    "type": "bytes"
                }
            ],
            "name": "preRelayedCall",
            "outputs": [
                {
                    "name": "",
                    "type": "bytes32"
                }
            ],
            "payable": false,
            "stateMutability": "nonpayable",
            "type": "function"
        },
        {
            "constant": false,
            "inputs": [],
            "name": "initialize",
            "outputs": [],
            "payable": false,
            "stateMutability": "nonpayable",
            "type": "function"
        },
        {
            "constant": false,
            "inputs": [
                {
                    "name": "_account",
                    "type": "address"
                },
                {
                    "name": "_linkedPublicKey",
                    "type": "bytes"
                },
                {
                    "name": "_spendingPublicKey",
                    "type": "bytes"
                },
                {
                    "name": "_signature",
                    "type": "bytes"
                }
            ],
            "name": "registerAZTECExtension",
            "outputs": [],
            "payable": false,
            "stateMutability": "nonpayable",
            "type": "function"
        },
        {
            "constant": true,
            "inputs": [
                {
                    "name": "relay",
                    "type": "address"
                },
                {
                    "name": "from",
                    "type": "address"
                },
                {
                    "name": "encodedFunction",
                    "type": "bytes"
                },
                {
                    "name": "transactionFee",
                    "type": "uint256"
                },
                {
                    "name": "gasPrice",
                    "type": "uint256"
                },
                {
                    "name": "gasLimit",
                    "type": "uint256"
                },
                {
                    "name": "nonce",
                    "type": "uint256"
                },
                {
                    "name": "approvalData",
                    "type": "bytes"
                },
                {
                    "name": "",
                    "type": "uint256"
                }
            ],
            "name": "acceptRelayedCall",
            "outputs": [
                {
                    "name": "",
                    "type": "uint256"
                },
                {
                    "name": "",
                    "type": "bytes"
                }
            ],
            "payable": false,
            "stateMutability": "view",
            "type": "function"
        },
        {
            "constant": true,
            "inputs": [],
            "name": "DIVIDEND_PROOF",
            "outputs": [
                {
                    "name": "",
                    "type": "uint24"
                }
            ],
            "payable": false,
            "stateMutability": "view",
            "type": "function"
        },
        {
            "constant": true,
            "inputs": [],
            "name": "MINT_PROOF",
            "outputs": [
                {
                    "name": "",
                    "type": "uint24"
                }
            ],
            "payable": false,
            "stateMutability": "view",
            "type": "function"
        },
        {
            "constant": true,
            "inputs": [],
            "name": "relayHubVersion",
            "outputs": [
                {
                    "name": "",
                    "type": "string"
                }
            ],
            "payable": false,
            "stateMutability": "view",
            "type": "function"
        },
        {
            "constant": false,
            "inputs": [
                {
                    "name": "trustedSigner",
                    "type": "address"
                }
            ],
            "name": "initialize",
            "outputs": [],
            "payable": false,
            "stateMutability": "nonpayable",
            "type": "function"
        },
        {
            "constant": true,
            "inputs": [],
            "name": "BURN_PROOF",
            "outputs": [
                {
                    "name": "",
                    "type": "uint24"
                }
            ],
            "payable": false,
            "stateMutability": "view",
            "type": "function"
        },
        {
            "constant": true,
            "inputs": [
                {
                    "name": "",
                    "type": "address"
                }
            ],
            "name": "accountMapping",
            "outputs": [
                {
                    "name": "",
                    "type": "bytes"
                }
            ],
            "payable": false,
            "stateMutability": "view",
            "type": "function"
        },
        {
            "constant": true,
            "inputs": [],
            "name": "EIP712_DOMAIN_HASH",
            "outputs": [
                {
                    "name": "",
                    "type": "bytes32"
                }
            ],
            "payable": false,
            "stateMutability": "view",
            "type": "function"
        },
        {
            "inputs": [
                {
                    "name": "_ace",
                    "type": "address"
                },
                {
                    "name": "_trustedAddress",
                    "type": "address"
                }
            ],
            "payable": false,
            "stateMutability": "nonpayable",
            "type": "constructor"
        },
        {
            "anonymous": false,
            "inputs": [
                {
                    "indexed": true,
                    "name": "signatureHash",
                    "type": "bytes32"
                }
            ],
            "name": "GSNTransactionProcessed",
            "type": "event"
        },
        {
            "anonymous": false,
            "inputs": [
                {
                    "indexed": true,
                    "name": "oldRelayHub",
                    "type": "address"
                },
                {
                    "indexed": true,
                    "name": "newRelayHub",
                    "type": "address"
                }
            ],
            "name": "RelayHubChanged",
            "type": "event"
        },
        {
            "anonymous": false,
            "inputs": [
                {
                    "indexed": true,
                    "name": "account",
                    "type": "address"
                },
                {
                    "indexed": false,
                    "name": "linkedPublicKey",
                    "type": "bytes"
                },
                {
                    "indexed": false,
                    "name": "spendingPublicKey",
                    "type": "bytes"
                }
            ],
            "name": "RegisterExtension",
            "type": "event"
        },
        {
            "anonymous": false,
            "inputs": [
                {
                    "indexed": false,
                    "name": "account",
                    "type": "address"
                }
            ],
            "name": "LogAddress",
            "type": "event"
        },
        {
            "anonymous": false,
            "inputs": [
                {
                    "indexed": false,
                    "name": "message",
                    "type": "string"
                }
            ],
            "name": "LogString",
            "type": "event"
        },
        {
            "anonymous": false,
            "inputs": [
                {
                    "indexed": false,
                    "name": "sig",
                    "type": "bytes32"
                }
            ],
            "name": "LogBytes",
            "type": "event"
        },
        {
            "constant": false,
            "inputs": [
                {
                    "name": "_registryOwner",
                    "type": "address"
                },
                {
                    "name": "_proofData",
                    "type": "bytes"
                }
            ],
            "name": "confidentialTransferFrom",
            "outputs": [],
            "payable": false,
            "stateMutability": "nonpayable",
            "type": "function"
        },
        {
            "constant": false,
            "inputs": [
                {
                    "name": "_registryOwner",
                    "type": "address"
                },
                {
                    "name": "_proofData",
                    "type": "bytes"
                },
                {
                    "name": "_signatures",
                    "type": "bytes"
                }
            ],
            "name": "confidentialTransfer",
            "outputs": [],
            "payable": false,
            "stateMutability": "nonpayable",
            "type": "function"
        },
        {
            "constant": false,
            "inputs": [
                {
                    "name": "_registryOwner",
                    "type": "address"
                },
                {
                    "name": "_proofHash",
                    "type": "bytes32"
                },
                {
                    "name": "_value",
                    "type": "uint256"
                }
            ],
            "name": "publicApprove",
            "outputs": [],
            "payable": false,
            "stateMutability": "nonpayable",
            "type": "function"
        },
        {
            "constant": false,
            "inputs": [
                {
                    "name": "context",
                    "type": "bytes"
                },
                {
                    "name": "",
                    "type": "bool"
                },
                {
                    "name": "",
                    "type": "uint256"
                },
                {
                    "name": "",
                    "type": "bytes32"
                }
            ],
            "name": "postRelayedCall",
            "outputs": [],
            "payable": false,
            "stateMutability": "nonpayable",
            "type": "function"
        }
    ],
    "bytecode": "0x60806040523480156200001157600080fd5b50604051604080620023d0833981018060405260408110156200003357600080fd5b508051602091820151604080517f454950373132446f6d61696e2800000000000000000000000000000000000000818601527f737472696e67206e616d652c0000000000000000000000000000000000000000602d8201527f737472696e672076657273696f6e2c000000000000000000000000000000000060398201527f6164647265737320766572696679696e67436f6e74726163740000000000000060488201527f29000000000000000000000000000000000000000000000000000000000000006061820152815160428183030181526062820180845281519187019190912060a28301845260199091527f415a5445435f43525950544f4752415048595f454e47494e450000000000000060829092019190915281518083018352600181527f3100000000000000000000000000000000000000000000000000000000000000908601528151808601919091527fc8066e2c715ce196630b273cd256d8959d5b9fefc55e9e6d999fb0f08bb7f75f818301527fc89efdaa54c0f20c7adf612882df0950f5a951637e0307cdcb4c672f298b8bc66060820152306080808301919091528251808303909101815260a090910190915280519084012060005590916200020b9062000cbc62000248821b17901c565b62000221816200032760201b620010dd1760201c565b50603580546001600160a01b0319166001600160a01b039290921691909117905562000650565b600254610100900460ff16806200026a57506200026a6200040360201b60201c565b8062000279575060025460ff16155b620002d0576040517f08c379a000000000000000000000000000000000000000000000000000000000815260040180806020018281038252602e81526020018062002356602e913960400191505060405180910390fd5b600254610100900460ff16158015620002fc576002805460ff1961ff0019909116610100171660011790555b620003116200040960201b620014011760201c565b801562000324576002805461ff00191690555b50565b600254610100900460ff1680620003495750620003496200040360201b60201c565b8062000358575060025460ff16155b620003af576040517f08c379a000000000000000000000000000000000000000000000000000000000815260040180806020018281038252602e81526020018062002356602e913960400191505060405180910390fd5b600254610100900460ff16158015620003db576002805460ff1961ff0019909116610100171660011790555b620003ec82620004e260201b60201c565b8015620003ff576002805461ff00191690555b5050565b303b1590565b600254610100900460ff16806200042b57506200042b6200040360201b60201c565b806200043a575060025460ff16155b62000491576040517f08c379a000000000000000000000000000000000000000000000000000000000815260040180806020018281038252602e81526020018062002356602e913960400191505060405180910390fd5b600254610100900460ff16158015620004bd576002805460ff1961ff0019909116610100171660011790555b6200031173d216153c06e857cd7f72665e0af1d7d82172f4946200050660201b60201c565b7fe7b237a4017a399d277819456dce32c2356236bbc518a6d84a9a8d1cfdf1e9c555565b6000620005186200063c60201b60201c565b90506001600160a01b0382166200057b576040517f08c379a000000000000000000000000000000000000000000000000000000000815260040180806020018281038252602c81526020018062002384602c913960400191505060405180910390fd5b806001600160a01b0316826001600160a01b03161415620005e8576040517f08c379a000000000000000000000000000000000000000000000000000000000815260040180806020018281038252602b8152602001806200232b602b913960400191505060405180910390fd5b816001600160a01b0316816001600160a01b03167fb9f84b8e65164b14439ae3620df0a4d8786d896996c0282b683f9d8c08f046e860405160405180910390a350600080516020620023b083398151915255565b600080516020620023b08339815191525490565b611ccb80620006606000396000f3fe608060405234801561001057600080fd5b50600436106101205760003560e01c806383947ea0116100ad578063df92462511610071578063df924625146107ce578063e06e0e22146107d6578063e0b28d2214610852578063e306f77914610878578063e308d6ff1461088057610120565b806383947ea0146105ae5780638500e1f81461071b5780638e526d9b14610723578063ad61ccd51461072b578063c4d66de8146107a857610120565b806374e861d6116100f457806374e861d61461020b5780637e8b882c1461022f57806380274db7146103685780638129fc1c146103e8578063821a3ee0146103f057610120565b80625bf7321461012557806308ae900a1461014557806349518b281461014d5780634cb4502914610155575b600080fd5b61012d6108b2565b6040805162ffffff9092168252519081900360200190f35b61012d6108b9565b61012d6108c0565b6102096004803603604081101561016b57600080fd5b6001600160a01b038235169190810190604081016020820135600160201b81111561019557600080fd5b8201836020820111156101a757600080fd5b803590602001918460018302840111600160201b831117156101c857600080fd5b91908080601f0160208091040260200160405190810160405280939291908181526020018383808284376000920191909152509295506108c7945050505050565b005b610213610af5565b604080516001600160a01b039092168252519081900360200190f35b6102096004803603606081101561024557600080fd5b6001600160a01b038235169190810190604081016020820135600160201b81111561026f57600080fd5b82018360208201111561028157600080fd5b803590602001918460018302840111600160201b831117156102a257600080fd5b91908080601f0160208091040260200160405190810160405280939291908181526020018383808284376000920191909152509295949360208101935035915050600160201b8111156102f457600080fd5b82018360208201111561030657600080fd5b803590602001918460018302840111600160201b8311171561032757600080fd5b91908080601f016020809104026020016040519081016040528093929190818152602001838380828437600092019190915250929550610b05945050505050565b6103d66004803603602081101561037e57600080fd5b810190602081018135600160201b81111561039857600080fd5b8201836020820111156103aa57600080fd5b803590602001918460018302840111600160201b831117156103cb57600080fd5b509092509050610c18565b60408051918252519081900360200190f35b610209610cbc565b6102096004803603608081101561040657600080fd5b6001600160a01b038235169190810190604081016020820135600160201b81111561043057600080fd5b82018360208201111561044257600080fd5b803590602001918460018302840111600160201b8311171561046357600080fd5b91908080601f0160208091040260200160405190810160405280939291908181526020018383808284376000920191909152509295949360208101935035915050600160201b8111156104b557600080fd5b8201836020820111156104c757600080fd5b803590602001918460018302840111600160201b831117156104e857600080fd5b91908080601f0160208091040260200160405190810160405280939291908181526020018383808284376000920191909152509295949360208101935035915050600160201b81111561053a57600080fd5b82018360208201111561054c57600080fd5b803590602001918460018302840111600160201b8311171561056d57600080fd5b91908080601f016020809104026020016040519081016040528093929190818152602001838380828437600092019190915250929550610d69945050505050565b61069c60048036036101208110156105c557600080fd5b6001600160a01b038235811692602081013590911691810190606081016040820135600160201b8111156105f857600080fd5b82018360208201111561060a57600080fd5b803590602001918460018302840111600160201b8311171561062b57600080fd5b9193909282359260208101359260408201359260608301359260a081019060800135600160201b81111561065e57600080fd5b82018360208201111561067057600080fd5b803590602001918460018302840111600160201b8311171561069157600080fd5b919350915035610f40565b6040518083815260200180602001828103825283818151815260200191508051906020019080838360005b838110156106df5781810151838201526020016106c7565b50505050905090810190601f16801561070c5780820380516001836020036101000a031916815260200191505b50935050505060405180910390f35b61012d6110ad565b61012d6110b4565b6107336110bb565b6040805160208082528351818301528351919283929083019185019080838360005b8381101561076d578181015183820152602001610755565b50505050905090810190601f16801561079a5780820380516001836020036101000a031916815260200191505b509250505060405180910390f35b610209600480360360208110156107be57600080fd5b50356001600160a01b03166110dd565b61012d61118c565b610209600480360360808110156107ec57600080fd5b810190602081018135600160201b81111561080657600080fd5b82018360208201111561081857600080fd5b803590602001918460018302840111600160201b8311171561083957600080fd5b9193509150803515159060208101359060400135611193565b6107336004803603602081101561086857600080fd5b50356001600160a01b0316611277565b6103d6611311565b6102096004803603606081101561089657600080fd5b506001600160a01b038135169060208101359060400135611317565b6201010181565b6201040381565b6201040281565b603554604051600160e01b63a2866ea30281526201010160048201818152306024840181905260606044850181815287516064870152875191966001600160a01b03169563a2866ea39594899390929160840190602085019080838360005b8381101561093e578181015183820152602001610926565b50505050905090810190601f16801561096b5780820380516001836020036101000a031916815260200191505b50945050505050600060405180830381600087803b15801561098c57600080fd5b505af11580156109a0573d6000803e3d6000fd5b505050506040513d6000823e601f3d908101601f1916820160405260208110156109c957600080fd5b810190808051600160201b8111156109e057600080fd5b820160208101848111156109f357600080fd5b8151600160201b811182820187101715610a0c57600080fd5b5090945050506001600160a01b038516915063cdfea90e905062010101610a34846000611376565b6040805163ffffffff851660e01b815262ffffff8416600482019081526024820192835283516044830152835190929160640190602085019080838360005b83811015610a8b578181015183820152602001610a73565b50505050905090810190601f168015610ab85780820380516001836020036101000a031916815260200191505b509350505050600060405180830381600087803b158015610ad857600080fd5b505af1158015610aec573d6000803e3d6000fd5b50505050505050565b6000610aff6113d0565b90505b90565b60408051600160e31b6312d31093028152600481019182528351604482015283516001600160a01b0386169263969884989286928692918291602482019160640190602087019080838360005b83811015610b6a578181015183820152602001610b52565b50505050905090810190601f168015610b975780820380516001836020036101000a031916815260200191505b50838103825284518152845160209182019186019080838360005b83811015610bca578181015183820152602001610bb2565b50505050905090810190601f168015610bf75780820380516001836020036101000a031916815260200191505b50945050505050600060405180830381600087803b158015610ad857600080fd5b6000610c22610af5565b6001600160a01b0316336001600160a01b031614610c7457604051600160e51b62461bcd028152600401808060200182810382526026815260200180611b5e6026913960400191505060405180910390fd5b610cb383838080601f0160208091040260200160405190810160405280939291908181526020018383808284376000920191909152506113f592505050565b90505b92915050565b600254610100900460ff1680610cd55750610cd56113fb565b80610ce3575060025460ff16155b610d2157604051600160e51b62461bcd02815260040180806020018281038252602e815260200180611c24602e913960400191505060405180910390fd5b600254610100900460ff16158015610d4c576002805460ff1961ff0019909116610100171660011790555b610d54611401565b8015610d66576002805461ff00191690555b50565b6000610d9a610d946040518060400160405280886001600160a01b03168152602001878152506114ae565b836116bc565b9050806001600160a01b0316856001600160a01b031614610e055760408051600160e51b62461bcd02815260206004820152601a60248201527f7369676e6572206d75737420626520746865206163636f756e74000000000000604482015290519081900360640190fd5b6001600160a01b03851660009081526001602090815260409091208551610e2e92870190611ac5565b50846001600160a01b03167f6943ea2c7fa944e0014e912e815bb331b63af36341f53622fce2f97d26a928e28585604051808060200180602001838103835285818151815260200191508051906020019080838360005b83811015610e9d578181015183820152602001610e85565b50505050905090810190601f168015610eca5780820380516001836020036101000a031916815260200191505b50838103825284518152845160209182019186019080838360005b83811015610efd578181015183820152602001610ee5565b50505050905090810190601f168015610f2a5780820380516001836020036101000a031916815260200191505b5094505050505060405180910390a25050505050565b60006060808d8d8d8d8d8d8d8d610f55610af5565b30604051602001808b6001600160a01b03166001600160a01b031660601b81526014018a6001600160a01b03166001600160a01b031660601b815260140189898082843780830192505050878152602001868152602001858152602001848152602001836001600160a01b03166001600160a01b031660601b8152601401826001600160a01b03166001600160a01b031660601b81526014019a505050505050505050505060405160208183030381529060405290506110136117ef565b6001600160a01b031661107287878080601f016020809104026020016040519081016040528093929190818152602001838380828437600092019190915250508551602087012061106692509050611814565b9063ffffffff61186516565b6001600160a01b0316141561109357611089611953565b925092505061109d565b6110896000611977565b9b509b9950505050505050505050565b6201040181565b6201020181565b6040805180820190915260058152600160dc1b640312e302e302602082015290565b600254610100900460ff16806110f657506110f66113fb565b80611104575060025460ff16155b61114257604051600160e51b62461bcd02815260040180806020018281038252602e815260200180611c24602e913960400191505060405180910390fd5b600254610100900460ff1615801561116d576002805460ff1961ff0019909116610100171660011790555b6111768261198f565b8015611188576002805461ff00191690555b5050565b6201030181565b6060858560408110156111a557600080fd5b6001600160a01b038235169190810190604081016020820135600160201b8111156111cf57600080fd5b8201836020820111156111e157600080fd5b803590602001918460018302840111600160201b8311171561120257600080fd5b91908080601f016020809104026020016040519081016040528093929190818152602001838380828437600092018290525084516020860120604051959a5098507f1a3dfb39162c3c473d314a67f557623d6e03be22b1957ed2c95ad4cd9d7f23c897509550929350505050a2505050505050565b60016020818152600092835260409283902080548451600294821615610100026000190190911693909304601f81018390048302840183019094528383529192908301828280156113095780601f106112de57610100808354040283529160200191611309565b820191906000526020600020905b8154815290600101906020018083116112ec57829003601f168201915b505050505081565b60005481565b60355460408051600160e01b63e308d6ff0281526001600160a01b03868116600483015260248201869052604482018590529151919092169163e308d6ff91606480830192600092919082900301818387803b158015610ad857600080fd5b6020828101519082028301604001518301908210806113c957604051600160e51b62461bcd028152600401808060200182810382526022815260200180611c7e6022913960400191505060405180910390fd5b5092915050565b7f06b7792c761dcc05af1761f0315ce8b01ac39c16cc934eb0b2f7a8e71414f2625490565b50600090565b303b1590565b600254610100900460ff168061141a575061141a6113fb565b80611428575060025460ff16155b61146657604051600160e51b62461bcd02815260040180806020018281038252602e815260200180611c24602e913960400191505060405180910390fd5b600254610100900460ff16158015611491576002805460ff1961ff0019909116610100171660011790555b610d5473d216153c06e857cd7f72665e0af1d7d82172f4946119b3565b600080604051806080016040528060428152602001611be2604291396040516020018082805190602001908083835b602083106114fc5780518252601f1990920191602091820191016114dd565b518151600019602094850361010090810a919091019182169119929092161790915260408051601f19969094018481039690960184528581528351938301939093207f415a5445434163636f756e74526567697374727900000000000000000000000086528351958690036014018620600160f91b6019028752845196879003600101872087850192909252868501526060860152306080808701919091528351808703909101815260a08601808552815191909301209085019092526033808252919650869550935091611baf915060c001396040516020018082805190602001908083835b602083106116025780518252601f1990920191602091820191016115e3565b51815160209384036101000a60001901801990921691161790526040805192909401828103601f190183528085528251928201929092208a519a820151805190830120838301919091526001600160a01b03909a168285015260608083019a909a528351808303909a018a52608082018452895199810199909920600160f01b6119010260a083015260a282019690965260c2808201969096528251808203909601865260e2019091525050815191909401209392505050565b600080825184845260608401518060f81c9050604085015160608601526020850151604086015280602086015260208560808760015afa601c8214601b83141760608414604185141716169250845186146000811461171a5761171f565b855194505b5050835280801561173857506001600160a01b03821615155b6113c9576001600160a01b03821661179a5760408051600160e51b62461bcd02815260206004820152601a60248201527f7369676e657220616464726573732063616e6e6f742062652030000000000000604482015290519081900360640190fd5b806113c95760408051600160e51b62461bcd02815260206004820152601960248201527f7369676e6174757265207265636f76657279206661696c656400000000000000604482015290519081900360640190fd5b7fe7b237a4017a399d277819456dce32c2356236bbc518a6d84a9a8d1cfdf1e9c55490565b604080517f19457468657265756d205369676e6564204d6573736167653a0a333200000000602080830191909152603c8083019490945282518083039094018452605c909101909152815191012090565b6000815160411461187857506000610cb6565b60208201516040830151606084015160001a7f7fffffffffffffffffffffffffffffff5d576e7357a4501ddfe92f46681b20a08211156118be5760009350505050610cb6565b8060ff16601b141580156118d657508060ff16601c14155b156118e75760009350505050610cb6565b6040805160008152602080820180845289905260ff8416828401526060820186905260808201859052915160019260a0808401939192601f1981019281900390910190855afa15801561193e573d6000803e3d6000fd5b5050604051601f190151979650505050505050565b6000606061196f60405180602001604052806000815250611ac0565b915091509091565b604080516020810190915260008152600b9190910191565b7fe7b237a4017a399d277819456dce32c2356236bbc518a6d84a9a8d1cfdf1e9c555565b60006119bd6113d0565b90506001600160a01b038216611a0757604051600160e51b62461bcd02815260040180806020018281038252602c815260200180611c52602c913960400191505060405180910390fd5b806001600160a01b0316826001600160a01b03161415611a5b57604051600160e51b62461bcd02815260040180806020018281038252602b815260200180611b84602b913960400191505060405180910390fd5b816001600160a01b0316816001600160a01b03167fb9f84b8e65164b14439ae3620df0a4d8786d896996c0282b683f9d8c08f046e860405160405180910390a3507f06b7792c761dcc05af1761f0315ce8b01ac39c16cc934eb0b2f7a8e71414f26255565b600091565b828054600181600116156101000203166002900490600052602060002090601f016020900481019282601f10611b0657805160ff1916838001178555611b33565b82800160010185558215611b33579182015b82811115611b33578251825591602001919060010190611b18565b50611b3f929150611b43565b5090565b610b0291905b80821115611b3f5760008155600101611b4956fe47534e426f756e636572426173653a2063616c6c6572206973206e6f742052656c617948756247534e436f6e746578743a206e65772052656c6179487562206973207468652063757272656e74206f6e65415a5445434163636f756e742861646472657373206163636f756e742c6279746573206c696e6b65645075626c69634b657929454950373132446f6d61696e28737472696e67206e616d652c737472696e672076657273696f6e2c6164647265737320766572696679696e67436f6e747261637429436f6e747261637420696e7374616e63652068617320616c7265616479206265656e20696e697469616c697a656447534e436f6e746578743a206e65772052656c617948756220697320746865207a65726f2061646472657373415a54454320617272617920696e646578206973206f7574206f6620626f756e6473a165627a7a72305820e9beaa5bd6a33be8128aa5130d81b226540ab2b74969512e289df2d063a034df002947534e436f6e746578743a206e65772052656c6179487562206973207468652063757272656e74206f6e65436f6e747261637420696e7374616e63652068617320616c7265616479206265656e20696e697469616c697a656447534e436f6e746578743a206e65772052656c617948756220697320746865207a65726f206164647265737306b7792c761dcc05af1761f0315ce8b01ac39c16cc934eb0b2f7a8e71414f262",
    "source": "pragma solidity >=0.5.0 <0.6.0;\n\nimport \"@openzeppelin/contracts-ethereum-package/contracts/GSN/GSNRecipient.sol\";\nimport \"@openzeppelin/contracts-ethereum-package/contracts/GSN/bouncers/GSNBouncerSignature.sol\";\n\n\nimport \"../libs/NoteUtils.sol\";\nimport \"../interfaces/IZkAsset.sol\";\nimport \"../interfaces/IERC20.sol\";\nimport \"../interfaces/IAZTEC.sol\";\nimport \"../libs/LibEIP712.sol\";\nimport \"./AZTECAccountRegistry.sol\";\nimport \"../ACE/ACE.sol\" as ACEModule;\n\n/**\n * @title AZTECAccountRegistryGSN implementation\n * @author AZTEC\n * Copyright Spilbury Holdings Ltd 2019. All rights reserved.\n **/\n\ncontract AZTECAccountRegistryGSN is LibEIP712, IAZTEC, AZTECAccountRegistry, GSNRecipient, GSNBouncerSignature {\n\n    event GSNTransactionProcessed(bytes32 indexed signatureHash);\n\n    ACEModule.ACE ace;\n\n    using NoteUtils for bytes;\n    constructor(\n        address _ace,\n        address _trustedAddress\n    ) public {\n        GSNRecipient.initialize();\n        GSNBouncerSignature.initialize(_trustedAddress);\n        ace = ACEModule.ACE(_ace);\n    }\n\n    function confidentialTransferFrom(address _registryOwner, bytes memory _proofData) public {\n        (bytes memory proofOutputs) = ace.validateProof(JOIN_SPLIT_PROOF, address(this), _proofData);\n        IZkAsset(_registryOwner).confidentialTransferFrom(JOIN_SPLIT_PROOF, proofOutputs.get(0));\n    }\n\n    function confidentialTransfer(address _registryOwner, bytes memory _proofData, bytes memory _signatures) public {\n        IZkAsset(_registryOwner).confidentialTransfer(_proofData, _signatures);\n    }\n\n    function publicApprove(address _registryOwner, bytes32 _proofHash, uint256 _value) public {\n        ace.publicApprove(_registryOwner, _proofHash, _value);\n    }\n\n    function postRelayedCall(bytes calldata context, bool, uint, bytes32) external { \n        (, bytes memory approveData) = abi.decode(context, (address, bytes));\n\n        emit GSNTransactionProcessed(keccak256(approveData));\n    }\n\n}\n\n",
    "sourcePath": "/Users/bomalkevych/Documents/git/AZTEC/packages/protocol/contracts/AccountRegistry/AZTECAccountRegistryGSN.sol",
    "compiler": {
        "name": "solc",
        "version": "0.5.7+commit.6da8b019.Emscripten.clang"
    },
    "schemaVersion": "3.0.16",
    "updatedAt": "2019-11-25T07:50:30.930Z",
    "devdoc": {
        "author": "AZTEC Copyright Spilbury Holdings Ltd 2019. All rights reserved.*",
        "methods": {
            "preRelayedCall(bytes)": {
                "details": "See `IRelayRecipient.preRelayedCall`.     * This function should not be overriden directly, use `_preRelayedCall` instead.     * * Requirements:     * - the caller must be the `RelayHub` contract."
            },
            "registerAZTECExtension(address,bytes,bytes,bytes)": {
                "details": "Registers a specific public key pair to an ethereum address if a valid signature is provided or the sender is the ethereum address in question        *",
                "params": {
                    "_account": "- address the address to which a public key is being         registered",
                    "_linkedPublicKey": "- the public key the sender wishes to link to the _account",
                    "_signature": "- an EIP712 compatible signature of the acount & public key "
                }
            }
        },
        "title": "AZTECAccountRegistryGSN implementation"
    },
    "userdoc": {
        "methods": {}
    }
}