{
  "contractName": "ACE",
  "abi": [
    {
      "constant": true,
      "inputs": [],
      "name": "JOIN_SPLIT_PROOF",
      "outputs": [
        {
          "name": "",
          "type": "uint24"
        }
      ],
      "payable": false,
      "stateMutability": "view",
      "type": "function"
    },
    {
      "constant": true,
      "inputs": [],
      "name": "ZERO_VALUE_NOTE_HASH",
      "outputs": [
        {
          "name": "",
          "type": "bytes32"
        }
      ],
      "payable": false,
      "stateMutability": "view",
      "type": "function"
    },
    {
      "constant": false,
      "inputs": [
        {
          "name": "_value",
          "type": "uint256"
        }
      ],
      "name": "supplementTokens",
      "outputs": [],
      "payable": false,
      "stateMutability": "nonpayable",
      "type": "function"
    },
    {
      "constant": true,
      "inputs": [
        {
          "name": "",
          "type": "uint256"
        },
        {
          "name": "",
          "type": "uint256"
        },
        {
          "name": "",
          "type": "uint256"
        }
      ],
      "name": "disabledValidators",
      "outputs": [
        {
          "name": "",
          "type": "bool"
        }
      ],
      "payable": false,
      "stateMutability": "view",
      "type": "function"
    },
    {
      "constant": true,
      "inputs": [],
      "name": "PRIVATE_RANGE_PROOF",
      "outputs": [
        {
          "name": "",
          "type": "uint24"
        }
      ],
      "payable": false,
      "stateMutability": "view",
      "type": "function"
    },
    {
      "constant": true,
      "inputs": [
        {
          "name": "",
          "type": "uint256"
        },
        {
          "name": "",
          "type": "uint256"
        },
        {
          "name": "",
          "type": "uint256"
        }
      ],
      "name": "validators",
      "outputs": [
        {
          "name": "",
          "type": "address"
        }
      ],
      "payable": false,
      "stateMutability": "view",
      "type": "function"
    },
    {
      "constant": false,
      "inputs": [],
      "name": "renounceOwnership",
      "outputs": [],
      "payable": false,
      "stateMutability": "nonpayable",
      "type": "function"
    },
    {
      "constant": true,
      "inputs": [],
      "name": "DIVIDEND_PROOF",
      "outputs": [
        {
          "name": "",
          "type": "uint24"
        }
      ],
      "payable": false,
      "stateMutability": "view",
      "type": "function"
    },
    {
      "constant": true,
      "inputs": [],
      "name": "owner",
      "outputs": [
        {
          "name": "",
          "type": "address"
        }
      ],
      "payable": false,
      "stateMutability": "view",
      "type": "function"
    },
    {
      "constant": true,
      "inputs": [],
      "name": "MINT_PROOF",
      "outputs": [
        {
          "name": "",
          "type": "uint24"
        }
      ],
      "payable": false,
      "stateMutability": "view",
      "type": "function"
    },
    {
      "constant": true,
      "inputs": [],
      "name": "isOwner",
      "outputs": [
        {
          "name": "",
          "type": "bool"
        }
      ],
      "payable": false,
      "stateMutability": "view",
      "type": "function"
    },
    {
      "constant": false,
      "inputs": [
        {
          "name": "_proof",
          "type": "uint24"
        },
        {
          "name": "_proofOutput",
          "type": "bytes"
        },
        {
          "name": "_proofSender",
          "type": "address"
        }
      ],
      "name": "updateNoteRegistry",
      "outputs": [],
      "payable": false,
      "stateMutability": "nonpayable",
      "type": "function"
    },
    {
      "constant": true,
      "inputs": [],
      "name": "latestEpoch",
      "outputs": [
        {
          "name": "",
          "type": "uint8"
        }
      ],
      "payable": false,
      "stateMutability": "view",
      "type": "function"
    },
    {
      "constant": false,
      "inputs": [
        {
          "name": "_linkedTokenAddress",
          "type": "address"
        },
        {
          "name": "_scalingFactor",
          "type": "uint256"
        },
        {
          "name": "_canAdjustSupply",
          "type": "bool"
        },
        {
          "name": "_canConvert",
          "type": "bool"
        }
      ],
      "name": "createNoteRegistry",
      "outputs": [],
      "payable": false,
      "stateMutability": "nonpayable",
      "type": "function"
    },
    {
      "constant": true,
      "inputs": [
        {
          "name": "",
          "type": "bytes32"
        }
      ],
      "name": "validatedProofs",
      "outputs": [
        {
          "name": "",
          "type": "bool"
        }
      ],
      "payable": false,
      "stateMutability": "view",
      "type": "function"
    },
    {
      "constant": true,
      "inputs": [],
      "name": "BURN_PROOF",
      "outputs": [
        {
          "name": "",
          "type": "uint24"
        }
      ],
      "payable": false,
      "stateMutability": "view",
      "type": "function"
    },
    {
      "constant": false,
      "inputs": [
        {
          "name": "_registryOwner",
          "type": "address"
        },
        {
          "name": "_proofHash",
          "type": "bytes32"
        },
        {
          "name": "_value",
          "type": "uint256"
        }
      ],
      "name": "publicApprove",
      "outputs": [],
      "payable": false,
      "stateMutability": "nonpayable",
      "type": "function"
    },
    {
      "constant": false,
      "inputs": [
        {
          "name": "newOwner",
          "type": "address"
        }
      ],
      "name": "transferOwnership",
      "outputs": [],
      "payable": false,
      "stateMutability": "nonpayable",
      "type": "function"
    },
    {
      "constant": true,
      "inputs": [
        {
          "name": "_owner",
          "type": "address"
        }
      ],
      "name": "getRegistry",
      "outputs": [
        {
          "name": "linkedToken",
          "type": "address"
        },
        {
          "name": "scalingFactor",
          "type": "uint256"
        },
        {
          "name": "totalSupply",
          "type": "uint256"
        },
        {
          "name": "confidentialTotalMinted",
          "type": "bytes32"
        },
        {
          "name": "confidentialTotalBurned",
          "type": "bytes32"
        },
        {
          "name": "canConvert",
          "type": "bool"
        },
        {
          "name": "canAdjustSupply",
          "type": "bool"
        }
      ],
      "payable": false,
      "stateMutability": "view",
      "type": "function"
    },
    {
      "constant": true,
      "inputs": [
        {
          "name": "_registryOwner",
          "type": "address"
        },
        {
          "name": "_noteHash",
          "type": "bytes32"
        }
      ],
      "name": "getNote",
      "outputs": [
        {
          "name": "status",
          "type": "uint8"
        },
        {
          "name": "createdOn",
          "type": "uint40"
        },
        {
          "name": "destroyedOn",
          "type": "uint40"
        },
        {
          "name": "noteOwner",
          "type": "address"
        }
      ],
      "payable": false,
      "stateMutability": "view",
      "type": "function"
    },
    {
      "inputs": [],
      "payable": false,
      "stateMutability": "nonpayable",
      "type": "constructor"
    },
    {
      "anonymous": false,
      "inputs": [
        {
          "indexed": false,
          "name": "_commonReferenceString",
          "type": "bytes32[6]"
        }
      ],
      "name": "SetCommonReferenceString",
      "type": "event"
    },
    {
      "anonymous": false,
      "inputs": [
        {
          "indexed": true,
          "name": "epoch",
          "type": "uint8"
        },
        {
          "indexed": true,
          "name": "category",
          "type": "uint8"
        },
        {
          "indexed": true,
          "name": "id",
          "type": "uint8"
        },
        {
          "indexed": false,
          "name": "validatorAddress",
          "type": "address"
        }
      ],
      "name": "SetProof",
      "type": "event"
    },
    {
      "anonymous": false,
      "inputs": [
        {
          "indexed": false,
          "name": "newLatestEpoch",
          "type": "uint8"
        }
      ],
      "name": "IncrementLatestEpoch",
      "type": "event"
    },
    {
      "anonymous": false,
      "inputs": [
        {
          "indexed": true,
          "name": "previousOwner",
          "type": "address"
        },
        {
          "indexed": true,
          "name": "newOwner",
          "type": "address"
        }
      ],
      "name": "OwnershipTransferred",
      "type": "event"
    },
    {
      "anonymous": false,
      "inputs": [
        {
          "indexed": false,
          "name": "zkAssetAddress",
          "type": "address"
        },
        {
          "indexed": false,
          "name": "linkedTokenAddress",
          "type": "address"
        },
        {
          "indexed": false,
          "name": "scalingFactor",
          "type": "uint256"
        },
        {
          "indexed": false,
          "name": "canAdjustSupply",
          "type": "bool"
        },
        {
          "indexed": false,
          "name": "canConvert",
          "type": "bool"
        }
      ],
      "name": "CreateNoteRegistry",
      "type": "event"
    },
    {
      "constant": false,
      "inputs": [
        {
          "name": "_proof",
          "type": "uint24"
        },
        {
          "name": "_proofData",
          "type": "bytes"
        },
        {
          "name": "_proofSender",
          "type": "address"
        }
      ],
      "name": "mint",
      "outputs": [
        {
          "name": "",
          "type": "bytes"
        }
      ],
      "payable": false,
      "stateMutability": "nonpayable",
      "type": "function"
    },
    {
      "constant": false,
      "inputs": [
        {
          "name": "_proof",
          "type": "uint24"
        },
        {
          "name": "_proofData",
          "type": "bytes"
        },
        {
          "name": "_proofSender",
          "type": "address"
        }
      ],
      "name": "burn",
      "outputs": [
        {
          "name": "",
          "type": "bytes"
        }
      ],
      "payable": false,
      "stateMutability": "nonpayable",
      "type": "function"
    },
    {
      "constant": false,
      "inputs": [
        {
          "name": "_proof",
          "type": "uint24"
        },
        {
          "name": "_sender",
          "type": "address"
        },
        {
          "name": "",
          "type": "bytes"
        }
      ],
      "name": "validateProof",
      "outputs": [
        {
          "name": "",
          "type": "bytes"
        }
      ],
      "payable": false,
      "stateMutability": "nonpayable",
      "type": "function"
    },
    {
      "constant": false,
      "inputs": [
        {
          "name": "_proof",
          "type": "uint24"
        },
        {
          "name": "_proofHashes",
          "type": "bytes32[]"
        }
      ],
      "name": "clearProofByHashes",
      "outputs": [],
      "payable": false,
      "stateMutability": "nonpayable",
      "type": "function"
    },
    {
      "constant": false,
      "inputs": [
        {
          "name": "_commonReferenceString",
          "type": "bytes32[6]"
        }
      ],
      "name": "setCommonReferenceString",
      "outputs": [],
      "payable": false,
      "stateMutability": "nonpayable",
      "type": "function"
    },
    {
      "constant": false,
      "inputs": [
        {
          "name": "_proof",
          "type": "uint24"
        }
      ],
      "name": "invalidateProof",
      "outputs": [],
      "payable": false,
      "stateMutability": "nonpayable",
      "type": "function"
    },
    {
      "constant": true,
      "inputs": [
        {
          "name": "_proof",
          "type": "uint24"
        },
        {
          "name": "_proofHash",
          "type": "bytes32"
        },
        {
          "name": "_sender",
          "type": "address"
        }
      ],
      "name": "validateProofByHash",
      "outputs": [
        {
          "name": "",
          "type": "bool"
        }
      ],
      "payable": false,
      "stateMutability": "view",
      "type": "function"
    },
    {
      "constant": false,
      "inputs": [
        {
          "name": "_proof",
          "type": "uint24"
        },
        {
          "name": "_validatorAddress",
          "type": "address"
        }
      ],
      "name": "setProof",
      "outputs": [],
      "payable": false,
      "stateMutability": "nonpayable",
      "type": "function"
    },
    {
      "constant": false,
      "inputs": [],
      "name": "incrementLatestEpoch",
      "outputs": [],
      "payable": false,
      "stateMutability": "nonpayable",
      "type": "function"
    },
    {
      "constant": true,
      "inputs": [],
      "name": "getCommonReferenceString",
      "outputs": [
        {
          "name": "",
          "type": "bytes32[6]"
        }
      ],
      "payable": false,
      "stateMutability": "view",
      "type": "function"
    },
    {
      "constant": true,
      "inputs": [
        {
          "name": "_proof",
          "type": "uint24"
        }
      ],
      "name": "getValidatorAddress",
      "outputs": [
        {
          "name": "validatorAddress",
          "type": "address"
        }
      ],
      "payable": false,
      "stateMutability": "view",
      "type": "function"
    }
  ],
  "bytecode": "0x6080604052640108000009805460ff1916600117905534801561002157600080fd5b50600080546001600160a01b03191633178082556040516001600160a01b039190911691907f8be0079c531659141344cd1fd0a4f28419497f9722a3daafe3b4186f6b6457e0908290a3612ed68061007a6000396000f3fe608060405234801561001057600080fd5b50600436106101e45760003560e01c80638f32d59b1161010f578063d19287a6116100a2578063edc6197c11610071578063edc6197c14610801578063f2fde38b14610823578063f971d77c14610849578063fedee266146108b5576101e4565b8063d19287a614610704578063dd695b7214610787578063df924625146107c7578063e308d6ff146107cf576101e4565b8063a5468ca2116100de578063a5468ca214610681578063b05dd173146106bd578063b2aad218146106c5578063caaaa5d8146106e2576101e4565b80638f32d59b14610518578063977796d2146105205780639cb118bf146105db578063a2866ea3146105f9576101e4565b80634e982ca7116101875780638500e1f8116101565780638500e1f8146104c95780638da5cb5b146104d15780638e526d9b146104d95780638f19301b146104e1576101e4565b80634e982ca71461033257806356a0d47714610377578063715018a6146103c957806380037eeb146103d1576101e4565b806343b54208116101c357806343b542081461029f578063465903dd146102bc57806349518b28146102f95780634d1d4dc614610301576101e4565b80625bf732146101e957806307616051146102095780633b41828014610223575b600080fd5b6101f161091d565b6040805162ffffff9092168252519081900360200190f35b610211610924565b60408051918252519081900360200190f35b61029d6004803603604081101561023957600080fd5b62ffffff8235169190810190604081016020820135600160201b81111561025f57600080fd5b82018360208201111561027157600080fd5b803590602001918460208302840111600160201b8311171561029257600080fd5b509092509050610948565b005b61029d600480360360208110156102b557600080fd5b5035610a7e565b6102e5600480360360608110156102d257600080fd5b5080359060208101359060400135610c48565b604080519115158252519081900360200190f35b6101f1610c9a565b61029d6004803603604081101561031757600080fd5b50803562ffffff1690602001356001600160a01b0316610ca1565b61035b6004803603606081101561034857600080fd5b5080359060208101359060400135610ed7565b604080516001600160a01b039092168252519081900360200190f35b61029d600480360360c081101561038d57600080fd5b810190808060c001906006806020026040519081016040528092919082600660200280828437600092019190915250919450610f1c9350505050565b61029d610fcf565b610454600480360360608110156103e757600080fd5b62ffffff8235169190810190604081016020820135600160201b81111561040d57600080fd5b82018360208201111561041f57600080fd5b803590602001918460018302840111600160201b8311171561044057600080fd5b9193509150356001600160a01b031661102a565b6040805160208082528351818301528351919283929083019185019080838360005b8381101561048e578181015183820152602001610476565b50505050905090810190601f1680156104bb5780820380516001836020036101000a031916815260200191505b509250505060405180910390f35b6101f16113b6565b61035b6113bd565b6101f16113cd565b6102e5600480360360608110156104f757600080fd5b50803562ffffff1690602081013590604001356001600160a01b03166113d4565b6102e5611479565b61029d6004803603606081101561053657600080fd5b62ffffff8235169190810190604081016020820135600160201b81111561055c57600080fd5b82018360208201111561056e57600080fd5b803590602001918460018302840111600160201b8311171561058f57600080fd5b91908080601f016020809104026020016040519081016040528093929190818152602001838380828437600092019190915250929550505090356001600160a01b0316915061148a9050565b6105e3611849565b6040805160ff9092168252519081900360200190f35b6104546004803603606081101561060f57600080fd5b62ffffff823516916001600160a01b0360208201351691810190606081016040820135600160201b81111561064357600080fd5b82018360208201111561065557600080fd5b803590602001918460018302840111600160201b8311171561067657600080fd5b509092509050611856565b61029d6004803603608081101561069757600080fd5b506001600160a01b03813516906020810135906040810135151590606001351515611a12565b61029d611ce1565b6102e5600480360360208110156106db57600080fd5b5035611d91565b61029d600480360360208110156106f857600080fd5b503562ffffff16611daa565b6104546004803603606081101561071a57600080fd5b62ffffff8235169190810190604081016020820135600160201b81111561074057600080fd5b82018360208201111561075257600080fd5b803590602001918460018302840111600160201b8311171561077357600080fd5b9193509150356001600160a01b0316611ef6565b61078f612209565b604051808260c080838360005b838110156107b457818101518382015260200161079c565b5050505090500191505060405180910390f35b6101f1612244565b61029d600480360360608110156107e557600080fd5b506001600160a01b03813516906020810135906040013561224b565b61035b6004803603602081101561081757600080fd5b503562ffffff166122ec565b61029d6004803603602081101561083957600080fd5b50356001600160a01b031661238a565b61086f6004803603602081101561085f57600080fd5b50356001600160a01b03166123a7565b604080516001600160a01b03909816885260208801969096528686019490945260608601929092526080850152151560a0840152151560c0830152519081900360e00190f35b6108e1600480360360408110156108cb57600080fd5b506001600160a01b0381351690602001356124f3565b6040805160ff909516855264ffffffffff938416602086015291909216838201526001600160a01b039091166060830152519081900360800190f35b6201010181565b7fcbc417524e52b95c42a4c42d357938497e3d199eb9b4a0139c92551d4000bc3c81565b8060005b81811015610a7757600084848381811061096257fe5b6020029190910135915050806109c25760408051600160e51b62461bcd02815260206004820152601c60248201527f6578706563746564206e6f20656d7074792070726f6f66206861736800000000604482015290519081900360640190fd5b60408051602080820184905262ffffff891682840152336060808401919091528351808403909101815260809092018352815191810191909120600081815264010800000a9092529190205460ff161515600114610a5457604051600160e51b62461bcd02815260040180806020018281038252602a815260200180612c7c602a913960400191505060405180910390fd5b600090815264010800000a60205260409020805460ff191690555060010161094c565b5050505050565b3360009081526001602081905260409091206006810154909160ff909116151514610add57604051600160e51b62461bcd028152600401808060200182810382526032815260200180612cf96032913960400191505060405180910390fd5b600681015462010000900460ff161515600114610b2e57604051600160e51b62461bcd02815260040180806020018281038252602d815260200180612ccc602d913960400191505060405180910390fd5b600681015460ff610100909104161515600114610b7f57604051600160e51b62461bcd028152600401808060200182810382526030815260200180612b286030913960400191505060405180910390fd5b805460018201546001600160a01b03909116906323b872dd9033903090610bad90879063ffffffff6125c616565b6040805163ffffffff861660e01b81526001600160a01b0394851660048201529290931660248301526044820152905160648083019260209291908290030181600087803b158015610bfe57600080fd5b505af1158015610c12573d6000803e3d6000fd5b505050506040513d6020811015610c2857600080fd5b50506002810154610c3f908363ffffffff6125f616565b60029091015550565b64010000000983620100008110610c5b57fe5b6108000201826101008110610c6c57fe5b60080201816101008110610c7c57fe5b602081049091015460ff601f9092166101000a900416925083915050565b6201040281565b610ca9611479565b610cfd5760408051600160e51b62461bcd02815260206004820152601e60248201527f6f6e6c7920746865206f776e65722063616e2073657420612070726f6f660000604482015290519081900360640190fd5b6001600160a01b038116610d4557604051600160e51b62461bcd028152600401808060200182810382526027815260200180612e386027913960400191505060405180910390fd5b6000806000610d588562ffffff16612608565b64010800000954929550909350915060ff9081169084161115610daf57604051600160e51b62461bcd028152600401808060200182810382526036815260200180612bab6036913960400191505060405180910390fd5b6000600960ff8516620100008110610dc357fe5b6201000002018360ff166101008110610dd857fe5b61010002018260ff166101008110610dec57fe5b01546001600160a01b031614610e3657604051600160e51b62461bcd028152600401808060200182810382526022815260200180612c0a6022913960400191505060405180910390fd5b8360098460ff16620100008110610e4957fe5b6201000002018360ff166101008110610e5e57fe5b61010002018260ff166101008110610e7257fe5b0180546001600160a01b0319166001600160a01b039283161790556040805191861682525160ff8381169285821692918716917f056d19b176848b2ba83ba7d1d83c9022e6c1bd37d5c648a143ccec369e53f3c9916020908290030190a45050505050565b600983620100008110610ee657fe5b620100000201826101008110610ef857fe5b6101000201816101008110610f0957fe5b01546001600160a01b0316925083915050565b610f24611479565b610f6257604051600160e51b62461bcd028152600401808060200182810382526032815260200180612e066032913960400191505060405180910390fd5b610f6f6003826006612a1a565b507f85adab12e45179738a96f914df934f3d0b656588ea13f75093bd4796dc3e2736816040518082600660200280838360005b83811015610fba578181015183820152602001610fa2565b5050505090500191505060405180910390a150565b610fd7611479565b610fe057600080fd5b600080546040516001600160a01b03909116907f8be0079c531659141344cd1fd0a4f28419497f9722a3daafe3b4186f6b6457e0908390a3600080546001600160a01b0319169055565b336000908152600160208190526040909120600681015460609260ff90911615151461108a57604051600160e51b62461bcd028152600401808060200182810382526032815260200180612cf96032913960400191505060405180910390fd5b600681015460ff6101009091041615156001146110f15760408051600160e51b62461bcd02815260206004820152601a60248201527f74686973206173736574206973206e6f74206d696e7461626c65000000000000604482015290519081900360640190fd5b60006111018762ffffff16612608565b5091505060ff81166002146111605760408051600160e51b62461bcd02815260206004820152601860248201527f74686973206973206e6f742061206d696e742070726f6f660000000000000000604482015290519081900360640190fd5b604051600160e01b63a2866ea302815262ffffff8816600482019081526001600160a01b0386166024830152606060448301818152606484018990529092309263a2866ea3928c928a928d928d92608401848480828437600081840152601f19601f82011690508083019250505095505050505050600060405180830381600087803b1580156111ef57600080fd5b505af1158015611203573d6000803e3d6000fd5b505050506040513d6000823e601f3d908101601f19168201604052602081101561122c57600080fd5b810190808051600160201b81111561124357600080fd5b8201602081018481111561125657600080fd5b8151600160201b81118282018710171561126f57600080fd5b50509291905050509050600061128482612622565b116112d95760408051600160e51b62461bcd02815260206004820152601c60248201527f63616c6c20746f2076616c696461746550726f6f66206661696c656400000000604482015290519081900360640190fd5b6060806112f56112f084600063ffffffff61262916565b612683565b50919350915060009050611317611312848363ffffffff61262916565b6126ad565b509150508560030154811461136057604051600160e51b62461bcd028152600401808060200182810382526029815260200180612be16029913960400191505060405180910390fd5b6000611375611312848363ffffffff61262916565b50600389018190559150606090506113976112f087600163ffffffff61262916565b50509150506113a5816126cb565b50939b9a5050505050505050505050565b6201040181565b6000546001600160a01b03165b90565b6201020181565b600583901c6401000000090154604080516000858152602087905284835260608120919092529091601f861660031b1c801561145a5760408051600160e51b62461bcd02815260206004820152601d60248201527f70726f6f6620696420686173206265656e20696e76616c696461746564000000604482015290519081900360640190fd5b50600090815264010800000a602052604090205460ff16949350505050565b6000546001600160a01b0316331490565b3360009081526001602052604090206114a1612a58565b5060408051606081018252600683015460ff8082161515808452610100830482161515602085015262010000909204161515928201929092529060011461151c57604051600160e51b62461bcd028152600401808060200182810382526032815260200180612cf96032913960400191505060405180910390fd5b8351602085012061152e8682866113d4565b151560011461157157604051600160e51b62461bcd028152600401808060200182810382526026815260200180612ca66026913960400191505060405180910390fd5b6000818152600260205260408120805460ff1916905560609081908061159689612683565b93509350935093506115a7846127e7565b6115b0836126cb565b801561183d57604086015115156001146115fe57604051600160e51b62461bcd02815260040180806020018281038252602c815260200180612c2c602c913960400191505060405180910390fd5b600081121561177b576001600160a01b0382166000908152600888016020908152604080832088845290915281205460028901549091611647919084900363ffffffff6125f616565b6002890155600082900381101561169257604051600160e51b62461bcd028152600401808060200182810382526033815260200180612d2b6033913960400191505060405180910390fd5b6116a681600084900363ffffffff61294a16565b6001600160a01b03808516600090815260088b01602090815260408083208b8452909152812092909255895460018b01549116916323b872dd91869130916116f7918890039063ffffffff6125c616565b6040805163ffffffff861660e01b81526001600160a01b0394851660048201529290931660248301526044820152905160648083019260209291908290030181600087803b15801561174857600080fd5b505af115801561175c573d6000803e3d6000fd5b505050506040513d602081101561177257600080fd5b5061183d915050565b6002870154611790908263ffffffff61294a16565b6002880155865460018801546001600160a01b039091169063a9059cbb9084906117c190859063ffffffff6125c616565b6040518363ffffffff1660e01b815260040180836001600160a01b03166001600160a01b0316815260200182815260200192505050602060405180830381600087803b15801561181057600080fd5b505af1158015611824573d6000803e3d6000fd5b505050506040513d602081101561183a57600080fd5b50505b50505050505050505050565b6401080000095460ff1681565b606062ffffff85166118b25760408051600160e51b62461bcd02815260206004820152601e60248201527f6578706563746564207468652070726f6f6620746f2062652076616c69640000604482015290519081900360640190fd5b60006118bd866122ec565b905060606044356004016040516101006004820152876024820152600354604482015260036001015460648201526003600201546084820152600380015460a482015260036004015460c482015260036005015460e48201526101048101602083350180848337610104810160008082868a5afa801561193c57611948565b61019060005260206000fd5b503d6000853e5050503d810160405280510191505060ff62ffffff881660081c1660011415611a0857600061197c82612622565b905060005b81811015611a0557600061199b848363ffffffff61262916565b8051602091820120604080518084019290925262ffffff8d1682820152336060808401919091528151808403909101815260809092018152815191830191909120600090815264010800000a9092529020805460ff19166001908117909155919091019050611981565b50505b9695505050505050565b3360009081526001602052604090206006015460ff1615611a6757604051600160e51b62461bcd02815260040180806020018281038252602a815260200180612e5f602a913960400191505060405180910390fd5b8015611ab5576001600160a01b038416611ab557604051600160e51b62461bcd02815260040180806020018281038252602a815260200180612db7602a913960400191505060405180910390fd5b611abd612a78565b6040518060e00160405280866001600160a01b03168152602001858152602001600081526020017fcbc417524e52b95c42a4c42d357938497e3d199eb9b4a0139c92551d4000bc3c60001b81526020017fcbc417524e52b95c42a4c42d357938497e3d199eb9b4a0139c92551d4000bc3c60001b8152602001600081526020016040518060600160405280600115158152602001861515815260200185151581525081525090508060016000336001600160a01b03166001600160a01b0316815260200190815260200160002060008201518160000160006101000a8154816001600160a01b0302191690836001600160a01b031602179055506020820151816001015560408201518160020155606082015181600301556080820151816004015560a0820151816005015560c08201518160060160008201518160000160006101000a81548160ff02191690831515021790555060208201518160000160016101000a81548160ff02191690831515021790555060408201518160000160026101000a81548160ff02191690831515021790555050509050507fd48c49e787a8f5ffa3d647a2090fee31a0bd3b5e8b2dfce448e41315259ad3c0338686868660405180866001600160a01b03166001600160a01b03168152602001856001600160a01b03166001600160a01b0316815260200184815260200183151515158152602001821515151581526020019550505050505060405180910390a15050505050565b611ce9611479565b611d2757604051600160e51b62461bcd02815260040180806020018281038252602a815260200180612b58602a913960400191505060405180910390fd5b64010800000954611d429060ff16600163ffffffff61295f16565b640108000009805460ff191660ff92831617908190556040805191909216815290517f9a76c82938224c049c704b5f4bfdbe9ef61749be7b65291103b97274b874665d916020908290030190a1565b64010800000a6020526000908152604090205460ff1681565b611db2611479565b611df057604051600160e51b62461bcd028152600401808060200182810382526025815260200180612b036025913960400191505060405180910390fd5b6000806000611e038462ffffff16612608565b919450925090506000600960ff8516620100008110611e1e57fe5b6201000002018360ff166101008110611e3357fe5b61010002018260ff166101008110611e4757fe5b01546001600160a01b03161415611e9257604051600160e51b62461bcd028152600401808060200182810382526025815260200180612de16025913960400191505060405180910390fd5b60016401000000098460ff16620100008110611eaa57fe5b61080002018360ff166101008110611ebe57fe5b600802018260ff166101008110611ed157fe5b602091828204019190066101000a81548160ff02191690831515021790555050505050565b336000908152600160208190526040909120600681015460609260ff909116151514611f5657604051600160e51b62461bcd028152600401808060200182810382526032815260200180612cf96032913960400191505060405180910390fd5b600681015460ff610100909104161515600114611fbd5760408051600160e51b62461bcd02815260206004820152601a60248201527f74686973206173736574206973206e6f74206275726e61626c65000000000000604482015290519081900360640190fd5b6000611fcd8762ffffff16612608565b5091505060ff811660031461202c5760408051600160e51b62461bcd02815260206004820152601860248201527f74686973206973206e6f742061206275726e2070726f6f660000000000000000604482015290519081900360640190fd5b604051600160e01b63a2866ea302815262ffffff8816600482019081526001600160a01b0386166024830152606060448301818152606484018990529092309263a2866ea3928c928a928d928d92608401848480828437600081840152601f19601f82011690508083019250505095505050505050600060405180830381600087803b1580156120bb57600080fd5b505af11580156120cf573d6000803e3d6000fd5b505050506040513d6000823e601f3d908101601f1916820160405260208110156120f857600080fd5b810190808051600160201b81111561210f57600080fd5b8201602081018481111561212257600080fd5b8151600160201b81118282018710171561213b57600080fd5b509094506060935083925061215e91506112f0905084600063ffffffff61262916565b5091935091506000905061217b611312848363ffffffff61262916565b50915050856004015481146121c457604051600160e51b62461bcd028152600401808060200182810382526029815260200180612b826029913960400191505060405180910390fd5b60006121d9611312848363ffffffff61262916565b50600489018190559150606090506121fb6112f087600163ffffffff61262916565b50509150506113a5816127e7565b612211612aca565b6040805160c08101918290529060039060069082845b815481526020019060010190808311612227575050505050905090565b6201030181565b6001600160a01b03831660009081526001602081905260409091206006810154909160ff9091161515146122c95760408051600160e51b62461bcd02815260206004820152601c60248201527f6e6f746520726567697374727920646f6573206e6f7420657869737400000000604482015290519081900360640190fd5b336000908152600890910160209081526040808320948352939052919091205550565b6009810154600081158015612383576001600160a01b03831661234357604051600160e51b62461bcd028152600401808060200182810382526027815260200180612e386027913960400191505060405180910390fd5b811561238357604051600160e51b62461bcd028152600401808060200182810382526031815260200180612d866031913960400191505060405180910390fd5b5050919050565b612392611479565b61239b57600080fd5b6123a4816129ac565b50565b6001600160a01b038116600090815260016020819052604082206006015482918291829182918291829160ff1615151461242b5760408051600160e51b62461bcd02815260206004820152601f60248201527f657870656374656420726567697374727920746f206265206372656174656400604482015290519081900360640190fd5b612433612a78565b505050506001600160a01b03948516600090815260016020818152604092839020835160e0810185528154909916895291820154888201908152600283015489850190815260038401546060808c01918252600486015460808d01908152600587015460a08e01528751918201885260069096015460ff808216151583526101008204811615159683019687526201000090910416151596810196875260c08c01529951915190519951935194519251919a909998509296509294509250565b6001600160a01b038216600090815260016020908152604080832084845260070190915281205481908190819060ff166125775760408051600160e51b62461bcd02815260206004820152601660248201527f6578706563746564206e6f746520746f20657869737400000000000000000000604482015290519081900360640190fd5b505050506001600160a01b03918216600090815260016020908152604080832093835260079093019052205460ff81169264ffffffffff600883901c811693603084901c9091169260581c1690565b6000826125d5575060006125f0565b828202828482816125e257fe5b04146125ed57600080fd5b90505b92915050565b6000828201838110156125ed57600080fd5b60ff62010000820481169261010083048216929190911690565b6020015190565b60208281015190820283016040015183019082108061267c57604051600160e51b62461bcd028152600401808060200182810382526022815260200180612e896022913960400191505060405180910390fd5b5092915050565b60208101516040820151606083015160808401519284019491909301926001600160a01b03169190565b604081015160608201516001600160a01b0390911692909160800190565b60016000806126d984612622565b905060005b81811015610a77576000806126fc611312888563ffffffff61262916565b5090925090506001600160a01b03821661274a57604051600160e51b62461bcd028152600401808060200182810382526028815260200180612d5e6028913960400191505060405180910390fd5b3360009081526001602090815260408083208484526007019091528120805460ff8981164264ffffffffff1660081b17605887901b1783551696509086146127dc5760408051600160e51b62461bcd02815260206004820152601260248201527f6f7574707574206e6f7465206578697374730000000000000000000000000000604482015290519081900360640190fd5b5050506001016126de565b6002600080806127f685612622565b905060005b8181101561294257600080612819611312898563ffffffff61262916565b50336000908152600160208181526040808420858552600701909152909120805460ff8c811664ffffffffff421660301b176affffffffff0000000000ff19831617835581169a506001600160a01b0360589190911c16985092945090925087146128ce5760408051600160e51b62461bcd02815260206004820181905260248201527f696e707574206e6f746520737461747573206973206e6f7420554e5350454e54604482015290519081900360640190fd5b826001600160a01b0316866001600160a01b0316146129375760408051600160e51b62461bcd02815260206004820152601f60248201527f696e707574206e6f7465206f776e657220646f6573206e6f74206d6174636800604482015290519081900360640190fd5b5050506001016127fb565b505050505050565b60008282111561295957600080fd5b50900390565b600082820160ff80851690821610156125ed57604051600160e51b62461bcd028152600401808060200182810382526024815260200180612c586024913960400191505060405180910390fd5b6001600160a01b0381166129bf57600080fd5b600080546040516001600160a01b03808516939216917f8be0079c531659141344cd1fd0a4f28419497f9722a3daafe3b4186f6b6457e091a3600080546001600160a01b0319166001600160a01b0392909216919091179055565b8260068101928215612a48579160200282015b82811115612a48578251825591602001919060010190612a2d565b50612a54929150612ae8565b5090565b604080516060810182526000808252602082018190529181019190915290565b60405180610120016040528060006001600160a01b031681526020016000815260200160008152602001600080191681526020016000801916815260200160008152602001612ac5612a58565b905290565b6040518060c001604052806006906020820280388339509192915050565b6113ca91905b80821115612a545760008155600101612aee56fe6f6e6c7920746865206f776e65722063616e20696e76616c696461746520612070726f6f666e6f746520726567697374727920646f6573206e6f742068617665206d696e7420616e64206275726e207269676874736f6e6c7920746865206f776e65722063616e2075706461746520746865206c61746573742065706f636870726f766964656420746f74616c206275726e6564206e6f746520646f6573206e6f74206d617463687468652070726f6f662065706f63682063616e6e6f7420626520626967676572207468616e20746865206c61746573742065706f636870726f766964656420746f74616c206d696e746564206e6f746520646f6573206e6f74206d617463686578697374696e672070726f6f66732063616e6e6f74206265206d6f64696669656461737365742063616e6e6f7420626520636f6e76657274656420696e746f207075626c696320746f6b656e7375696e7438206164642074726967676572656420696e7465676572206f766572666c6f7763616e206f6e6c7920636c6561722070726576696f75736c792076616c6964617465642070726f6f667341434520686173206e6f742076616c6964617465642061206d61746368696e672070726f6f666e6f746520726567697374727920646f6573206e6f74206861766520636f6e76657273696f6e207269676874736e6f746520726567697374727920646f6573206e6f7420657869737420666f722074686520676976656e20616464726573737075626c6963206f776e657220686173206e6f742076616c6964617465642061207472616e73666572206f6620746f6b656e736f7574707574206e6f7465206f776e65722063616e6e6f74206265206164647265737328307830296578706563746564207468652076616c696461746f72206164647265737320746f206e6f742062652064697361626c6564657870656374656420746865206c696e6b656420746f6b656e206164647265737320746f20657869737463616e206f6e6c7920696e76616c69646174652070726f6f667320746861742065786973746f6e6c7920746865206f776e65722063616e207365742074686520636f6d6d6f6e207265666572656e636520737472696e676578706563746564207468652076616c696461746f72206164647265737320746f2065786973746164647265737320616c7265616479206861732061206c696e6b6564206e6f7465207265676973747279415a54454320617272617920696e646578206973206f7574206f6620626f756e6473a165627a7a72305820562e920b6a04f0e7b3cdb362c86d350104a4aebd134a83aaee7ff431c435cd410029",
  "source": "pragma solidity >=0.5.0 <0.6.0;\n\nimport \"openzeppelin-solidity/contracts/math/SafeMath.sol\";\nimport \"openzeppelin-solidity/contracts/ownership/Ownable.sol\";\n\nimport \"./NoteRegistry.sol\";\n\nimport \"../interfaces/IAZTEC.sol\";\n\nimport \"../libs/NoteUtils.sol\";\nimport \"../libs/ProofUtils.sol\";\nimport \"../libs/SafeMath8.sol\";\n\n/**\n * @title The AZTEC Cryptography Engine\n * @author AZTEC\n * @dev ACE validates the AZTEC protocol's family of zero-knowledge proofs, which enables\n *      digital asset builders to construct fungible confidential digital assets according to the AZTEC token standard.\n * Copyright Spilbury Holdings Ltd 2019. All rights reserved.\n **/\ncontract ACE is IAZTEC, Ownable, NoteRegistry {\n    using NoteUtils for bytes;\n    using ProofUtils for uint24;\n    using SafeMath for uint256;\n    using SafeMath8 for uint8;\n\n    // keccak256 hash of \"JoinSplitSignature(uint24 proof,bytes32 noteHash,uint256 challenge,address sender)\"\n    bytes32 constant internal JOIN_SPLIT_SIGNATURE_TYPE_HASH =\n        0xf671f176821d4c6f81e66f9704cdf2c5c12d34bd23561179229c9fe7a9e85462;\n\n    event SetCommonReferenceString(bytes32[6] _commonReferenceString);\n    event SetProof(\n        uint8 indexed epoch, \n        uint8 indexed category, \n        uint8 indexed id, \n        address validatorAddress\n    );\n    event IncrementLatestEpoch(uint8 newLatestEpoch);\n\n    // The commonReferenceString contains one G1 group element and one G2 group element,\n    // that are created via the AZTEC protocol's trusted setup. All zero-knowledge proofs supported\n    // by ACE use the same common reference string.\n    bytes32[6] private commonReferenceString;\n\n    // `validators`contains the addresses of the contracts that validate specific proof types\n    address[0x100][0x100][0x10000] public validators;\n\n    // a list of invalidated proof ids, used to blacklist proofs in the case of a vulnerability being discovered\n    bool[0x100][0x100][0x10000] public disabledValidators;\n    \n    // latest proof epoch accepted by this contract\n    uint8 public latestEpoch = 1;\n\n    // keep track of validated balanced proofs\n    mapping(bytes32 => bool) public validatedProofs;\n    \n    /**\n    * @dev contract constructor. Sets the owner of ACE\n    **/\n    constructor() public Ownable() {}\n\n    /**\n    * @dev Mint AZTEC notes\n    *      \n    * @param _proof the AZTEC proof object\n    * @param _proofData the mint proof construction data\n    * @param _proofSender the Ethereum address of the original transaction sender. It is explicitly assumed that\n    *        an asset using ACE supplies this field correctly - if they don't their asset is vulnerable to front-running\n    * Unnamed param is the AZTEC zero-knowledge proof data\n    * @return two `bytes` objects. The first contains the new confidentialTotalSupply note and the second contains the\n    * notes that were created. Returned so that a zkAsset can emit the appropriate events\n    */\n    function mint(\n        uint24 _proof,\n        bytes calldata _proofData,\n        address _proofSender\n    ) external returns (bytes memory) {\n        \n        Registry storage registry = registries[msg.sender];\n        require(registry.flags.active == true, \"note registry does not exist for the given address\");\n        require(registry.flags.canAdjustSupply == true, \"this asset is not mintable\");\n        \n        // Check that it's a mintable proof\n        (, uint8 category, ) = _proof.getProofComponents();\n\n        require(category == uint8(ProofCategory.MINT), \"this is not a mint proof\");\n\n        bytes memory _proofOutputs = this.validateProof(_proof, _proofSender, _proofData);\n        require(_proofOutputs.getLength() > 0, \"call to validateProof failed\");\n\n        // Dealing with notes representing totals\n        (bytes memory oldTotal,  // inputNotesTotal\n        bytes memory newTotal, // outputNotesTotal\n        ,\n        ) = _proofOutputs.get(0).extractProofOutput();\n\n        // Check the previous confidentialTotalSupply, and then assign the new one\n        (, bytes32 oldTotalNoteHash, ) = oldTotal.get(0).extractNote();        \n\n        require(oldTotalNoteHash == registry.confidentialTotalMinted, \"provided total minted note does not match\");\n        (, bytes32 newTotalNoteHash, ) = newTotal.get(0).extractNote();\n        registry.confidentialTotalMinted = newTotalNoteHash;\n\n        // Dealing with minted notes\n        (,\n        bytes memory mintedNotes, // output notes\n        ,\n        ) = _proofOutputs.get(1).extractProofOutput();\n\n        updateOutputNotes(mintedNotes);\n        return(_proofOutputs);\n    }\n\n    /**\n    * @dev Burn AZTEC notes\n    *      \n    * @param _proof the AZTEC proof object\n    * @param _proofData the burn proof construction data\n    * @param _proofSender the Ethereum address of the original transaction sender. It is explicitly assumed that\n    *        an asset using ACE supplies this field correctly - if they don't their asset is vulnerable to front-running\n    * Unnamed param is the AZTEC zero-knowledge proof data\n    * @return two `bytes` objects. The first contains the new confidentialTotalSupply note and the second contains the\n    * notes that were created. Returned so that a zkAsset can emit the appropriate events\n    */\n    function burn(\n        uint24 _proof,\n        bytes calldata _proofData,\n        address _proofSender\n    ) external returns (bytes memory) {\n        \n        Registry storage registry = registries[msg.sender];\n        require(registry.flags.active == true, \"note registry does not exist for the given address\");\n        require(registry.flags.canAdjustSupply == true, \"this asset is not burnable\");\n        \n        // Check that it's a burnable proof\n        (, uint8 category, ) = _proof.getProofComponents();\n\n        require(category == uint8(ProofCategory.BURN), \"this is not a burn proof\");\n\n        bytes memory _proofOutputs = this.validateProof(_proof, _proofSender, _proofData);\n        \n        // Dealing with notes representing totals\n        (bytes memory oldTotal, // input notes\n        bytes memory newTotal, // output notes\n        ,\n        ) = _proofOutputs.get(0).extractProofOutput();\n    \n        (, bytes32 oldTotalNoteHash, ) = oldTotal.get(0).extractNote();        \n        require(oldTotalNoteHash == registry.confidentialTotalBurned, \"provided total burned note does not match\");\n        (, bytes32 newTotalNoteHash, ) = newTotal.get(0).extractNote();\n        registry.confidentialTotalBurned = newTotalNoteHash;\n\n        // Dealing with burned notes\n        (,\n        bytes memory burnedNotes,\n        ,) = _proofOutputs.get(1).extractProofOutput();\n\n        // Although they are outputNotes, they are due to be destroyed - need removing from the note registry\n        updateInputNotes(burnedNotes);\n        return(_proofOutputs);\n    }\n\n    /**\n    * @dev Validate an AZTEC zero-knowledge proof. ACE will issue a validation transaction to the smart contract\n    *      linked to `_proof`. The validator smart contract will have the following interface:\n    *      \n    *      function validate(\n    *          bytes _proofData, \n    *          address _sender, \n    *          bytes32[6] _commonReferenceString\n    *      ) public returns (bytes)\n    *\n    * @param _proof the AZTEC proof object\n    * @param _sender the Ethereum address of the original transaction sender. It is explicitly assumed that\n    *        an asset using ACE supplies this field correctly - if they don't their asset is vulnerable to front-running\n    * Unnamed param is the AZTEC zero-knowledge proof data\n    * @return a `bytes proofOutputs` variable formatted according to the Cryptography Engine standard\n    */\n    function validateProof(uint24 _proof, address _sender, bytes calldata) external returns (bytes memory) {\n        require(_proof != 0, \"expected the proof to be valid\");\n        // validate that the provided _proof object maps to a corresponding validator and also that\n        // the validator is not disabled\n        address validatorAddress = getValidatorAddress(_proof);\n        bytes memory proofOutputs;\n        assembly {\n            // the first evm word of the 3rd function param is the abi encoded location of proof data\n            let proofDataLocation := add(0x04, calldataload(0x44))\n\n            // manually construct validator calldata map\n            let memPtr := mload(0x40)\n            mstore(add(memPtr, 0x04), 0x100) // location in calldata of the start of `bytes _proofData` (0x100)\n            mstore(add(memPtr, 0x24), _sender)\n            mstore(add(memPtr, 0x44), sload(commonReferenceString_slot))\n            mstore(add(memPtr, 0x64), sload(add(0x01, commonReferenceString_slot)))\n            mstore(add(memPtr, 0x84), sload(add(0x02, commonReferenceString_slot)))\n            mstore(add(memPtr, 0xa4), sload(add(0x03, commonReferenceString_slot)))\n            mstore(add(memPtr, 0xc4), sload(add(0x04, commonReferenceString_slot)))\n            mstore(add(memPtr, 0xe4), sload(add(0x05, commonReferenceString_slot)))\n\n            // 0x104 because there's an address, the length 6 and the static array items\n            let destination := add(memPtr, 0x104)\n            // note that we offset by 0x20 because the first word is the length of the dynamic bytes array\n            let proofDataSize := add(calldataload(proofDataLocation), 0x20)\n            // copy the calldata into memory so we can call the validator contract\n            calldatacopy(destination, proofDataLocation, proofDataSize)\n            // call our validator smart contract, and validate the call succeeded\n            let callSize := add(proofDataSize, 0x104)\n            switch staticcall(gas, validatorAddress, memPtr, callSize, 0x00, 0x00)\n            case 0 {\n                mstore(0x00, 400) revert(0x00, 0x20) // call failed because proof is invalid\n            }\n\n            // copy returndata to memory\n            returndatacopy(memPtr, 0x00, returndatasize)\n            // store the proof outputs in memory\n            mstore(0x40, add(memPtr, returndatasize))\n            // the first evm word in the memory pointer is the abi encoded location of the actual returned data\n            proofOutputs := add(memPtr, mload(memPtr))\n        }\n\n        // if this proof satisfies a balancing relationship, we need to record the proof hash\n        if (((_proof >> 8) & 0xff) == uint8(ProofCategory.BALANCED)) {\n            uint256 length = proofOutputs.getLength();\n            for (uint256 i = 0; i < length; i += 1) {\n                bytes32 proofHash = keccak256(proofOutputs.get(i));\n                bytes32 validatedProofHash = keccak256(abi.encode(proofHash, _proof, msg.sender));\n                validatedProofs[validatedProofHash] = true;\n            }\n        }\n        return proofOutputs;\n    }\n\n    /**\n    * @dev Clear storage variables set when validating zero-knowledge proofs.\n    *      The only address that can clear data from `validatedProofs` is the address that created the proof.\n    *      Function is designed to utilize [EIP-1283](https://github.com/ethereum/EIPs/blob/master/EIPS/eip-1283.md)\n    *      to reduce gas costs. It is highly likely that any storage variables set by `validateProof`\n    *      are only required for the duration of a single transaction.\n    *      E.g. a decentralized exchange validating a swap proof and sending transfer instructions to\n    *      two confidential assets.\n    *      This method allows the calling smart contract to recover most of the gas spent by setting `validatedProofs`\n    * @param _proof the AZTEC proof object\n    * @param _proofHashes dynamic array of proof hashes\n    */\n    function clearProofByHashes(uint24 _proof, bytes32[] calldata _proofHashes) external {\n        uint256 length = _proofHashes.length;\n        for (uint256 i = 0; i < length; i += 1) {\n            bytes32 proofHash = _proofHashes[i];\n            require(proofHash != bytes32(0x0), \"expected no empty proof hash\");\n            bytes32 validatedProofHash = keccak256(abi.encode(proofHash, _proof, msg.sender));\n            require(validatedProofs[validatedProofHash] == true, \"can only clear previously validated proofs\");\n            validatedProofs[validatedProofHash] = false;\n        }\n    }\n\n    /**\n    * @dev Set the common reference string.\n    *      If the trusted setup is re-run, we will need to be able to change the crs\n    * @param _commonReferenceString the new commonReferenceString\n    */\n    function setCommonReferenceString(bytes32[6] memory _commonReferenceString) public {\n        require(isOwner(), \"only the owner can set the common reference string\");\n        commonReferenceString = _commonReferenceString;\n        emit SetCommonReferenceString(_commonReferenceString);\n    }\n\n    /**\n    * @dev Forever invalidate the given proof.\n    * @param _proof the AZTEC proof object\n    */\n    function invalidateProof(uint24 _proof) public {\n        require(isOwner(), \"only the owner can invalidate a proof\");\n        (uint8 epoch, uint8 category, uint8 id) = _proof.getProofComponents();\n        require(validators[epoch][category][id] != address(0x0), \"can only invalidate proofs that exist\");\n        disabledValidators[epoch][category][id] = true;\n    }\n\n    /**\n    * @dev Validate a previously validated AZTEC proof via its hash\n    *      This enables confidential assets to receive transfer instructions from a dApp that\n    *      has already validated an AZTEC proof that satisfies a balancing relationship.\n    * @param _proof the AZTEC proof object\n    * @param _proofHash the hash of the `proofOutput` received by the asset\n    * @param _sender the Ethereum address of the contract issuing the transfer instruction\n    * @return a boolean that signifies whether the corresponding AZTEC proof has been validated\n    */\n    function validateProofByHash(\n        uint24 _proof,\n        bytes32 _proofHash,\n        address _sender\n    ) public view returns (bool) {\n        // We need create a unique encoding of _proof, _proofHash and _sender,\n        // and use as a key to access validatedProofs\n        // We do this by computing bytes32 validatedProofHash = keccak256(ABI.encode(_proof, _proofHash, _sender))\n        // We also need to access disabledValidators[_proof.epoch][_proof.category][_proof.id]\n        // This bit is implemented in Yul, as 3-dimensional array access chews through\n        // a lot of gas in Solidity, as does ABI.encode\n        bytes32 validatedProofHash;\n        bool isValidatorDisabled;\n        assembly {\n            // inside _proof, we have 3 packed variables : [epoch, category, id]\n            // each is a uint8.\n\n            // We need to compute the storage key for `disabledValidators[epoch][category][id]`\n            // Type of array is bool[0x100][0x100][0x100]\n            // Solidity will only squish 32 boolean variables into a single storage slot, not 256\n            // => result of disabledValidators[epoch][category] is stored in 0x08 storage slots\n            // => result of disabledValidators[epoch] is stored in 0x08 * 0x100 = 0x800 storage slots\n\n            // To compute the storage slot  disabledValidators[epoch][category][id], we do the following:\n            // 1. get the disabledValidators slot \n            // 2. add (epoch * 0x800) to the slot (or epoch << 11)\n            // 3. add (category * 0x08) to the slot (or category << 3)\n            // 4. add (id / 0x20) to the slot (or id >> 5)\n\n            // Once the storage slot has been loaded, we need to isolate the byte that contains our boolean\n            // This will be equal to id % 0x20, which is also id & 0x1f\n\n            // Putting this all together. The storage slot offset from '_proof' is...\n            // epoch: ((_proof & 0xff0000) >> 16) << 11 = ((_proof & 0xff0000) >> 5)\n            // category: ((_proof & 0xff00) >> 8) << 3 = ((_proof & 0xff00) >> 5)\n            // id: (_proof & 0xff) >> 5\n            // i.e. the storage slot offset = _proof >> 5\n\n            // the byte index of the storage word that we require, is equal to (_proof & 0x1f)\n            // to convert to a bit index, we multiply by 8\n            // i.e. bit index = shl(3, and(_proof & 0x1f))\n            // => result = shr(shl(3, and_proof & 0x1f), value)\n            isValidatorDisabled := \n                shr(\n                    shl(\n                        0x03,\n                        and(_proof, 0x1f)\n                    ),\n                    sload(add(shr(5, _proof), disabledValidators_slot))\n                )\n\n            // Next, compute validatedProofHash = keccak256(abi.encode(_proofHash, _proof, _sender))\n            // cache free memory pointer - we will overwrite it when computing hash (cheaper than using free memory)\n            let memPtr := mload(0x40)\n            mstore(0x00, _proofHash)\n            mstore(0x20, _proof)\n            mstore(0x40, _sender)\n            validatedProofHash := keccak256(0x00, 0x60)\n            mstore(0x40, memPtr) // restore the free memory pointer\n        }\n        require(isValidatorDisabled == false, \"proof id has been invalidated\");\n        return validatedProofs[validatedProofHash];\n    }\n\n    /**\n    * @dev Adds or modifies a proof into the Cryptography Engine.\n    *       This method links a given `_proof` to a smart contract validator.\n    * @param _proof the AZTEC proof object\n    * @param _validatorAddress the address of the smart contract validator\n    */\n    function setProof(\n        uint24 _proof,\n        address _validatorAddress\n    ) public {\n        require(isOwner(), \"only the owner can set a proof\");\n        require(_validatorAddress != address(0x0), \"expected the validator address to exist\");\n        (uint8 epoch, uint8 category, uint8 id) = _proof.getProofComponents();\n        require(epoch <= latestEpoch, \"the proof epoch cannot be bigger than the latest epoch\");\n        require(validators[epoch][category][id] == address(0x0), \"existing proofs cannot be modified\");\n        validators[epoch][category][id] = _validatorAddress;\n        emit SetProof(epoch, category, id, _validatorAddress);\n    }\n\n    /**\n     * @dev Increments the `latestEpoch` storage variable.\n     */\n    function incrementLatestEpoch() public {\n        require(isOwner(), \"only the owner can update the latest epoch\");\n        latestEpoch = latestEpoch.add(1);\n        emit IncrementLatestEpoch(latestEpoch);\n    }\n\n    /**\n    * @dev Returns the common reference string.\n    * We use a custom getter for `commonReferenceString` - the default getter created by making the storage\n    * variable public indexes individual elements of the array, and we want to return the whole array\n    */\n    function getCommonReferenceString() public view returns (bytes32[6] memory) {\n        return commonReferenceString;\n    }\n\n    function getValidatorAddress(uint24 _proof) public view returns (address validatorAddress) {\n        bool isValidatorDisabled;\n        bool queryInvalid;\n        assembly {\n            // To compute the storage key for validatorAddress[epoch][category][id], we do the following:\n            // 1. get the validatorAddress slot \n            // 2. add (epoch * 0x10000) to the slot\n            // 3. add (category * 0x100) to the slot\n            // 4. add (id) to the slot\n            // i.e. the range of storage pointers allocated to validatorAddress ranges from\n            // validatorAddress_slot to (0xffff * 0x10000 + 0xff * 0x100 + 0xff = validatorAddress_slot 0xffffffff)\n\n            // Conveniently, the multiplications we have to perform on epoch, category and id correspond\n            // to their byte positions in _proof.\n            // i.e. (epoch * 0x10000) = and(_proof, 0xffff0000)\n            // and  (category * 0x100) = and(_proof, 0xff00)\n            // and  (id) = and(_proof, 0xff)\n\n            // Putting this all together. The storage slot offset from '_proof' is...\n            // (_proof & 0xffff0000) + (_proof & 0xff00) + (_proof & 0xff)\n            // i.e. the storage slot offset IS the value of _proof\n            validatorAddress := sload(add(_proof, validators_slot))\n            queryInvalid := or(iszero(validatorAddress), isValidatorDisabled)\n        }\n\n        // wrap both require checks in a single if test. This means the happy path only has 1 conditional jump\n        if (queryInvalid) {\n            require(validatorAddress != address(0x0), \"expected the validator address to exist\");\n            require(isValidatorDisabled == false, \"expected the validator address to not be disabled\");\n        }\n    }\n}\n\n",
  "sourcePath": "/Users/leila/Sites/aztec/aztec-extension-develop/packages/protocol/contracts/ACE/ACE.sol",
  "compiler": {
    "name": "solc",
    "version": "0.5.7+commit.6da8b019.Emscripten.clang"
  },
  "schemaVersion": "3.0.10",
  "updatedAt": "2019-07-25T18:45:30.490Z",
  "devdoc": {
    "author": "AZTEC",
    "details": "ACE validates the AZTEC protocol's family of zero-knowledge proofs, which enables     digital asset builders to construct fungible confidential digital assets according to the AZTEC token standard. Copyright Spilbury Holdings Ltd 2019. All rights reserved.*",
    "methods": {
      "burn(uint24,bytes,address)": {
        "details": "Burn AZTEC notes     ",
        "params": {
          "_proof": "the AZTEC proof object",
          "_proofData": "the burn proof construction data",
          "_proofSender": "the Ethereum address of the original transaction sender. It is explicitly assumed that       an asset using ACE supplies this field correctly - if they don't their asset is vulnerable to front-running Unnamed param is the AZTEC zero-knowledge proof data"
        },
        "return": "two `bytes` objects. The first contains the new confidentialTotalSupply note and the second contains the notes that were created. Returned so that a zkAsset can emit the appropriate events"
      },
      "clearProofByHashes(uint24,bytes32[])": {
        "details": "Clear storage variables set when validating zero-knowledge proofs.     The only address that can clear data from `validatedProofs` is the address that created the proof.     Function is designed to utilize [EIP-1283](https://github.com/ethereum/EIPs/blob/master/EIPS/eip-1283.md)     to reduce gas costs. It is highly likely that any storage variables set by `validateProof`     are only required for the duration of a single transaction.     E.g. a decentralized exchange validating a swap proof and sending transfer instructions to     two confidential assets.     This method allows the calling smart contract to recover most of the gas spent by setting `validatedProofs`",
        "params": {
          "_proof": "the AZTEC proof object",
          "_proofHashes": "dynamic array of proof hashes"
        }
      },
      "constructor": {
        "details": "contract constructor. Sets the owner of ACE*"
      },
      "getCommonReferenceString()": {
        "details": "Returns the common reference string. We use a custom getter for `commonReferenceString` - the default getter created by making the storage variable public indexes individual elements of the array, and we want to return the whole array"
      },
      "getNote(address,bytes32)": {
        "details": "Returns the note for a given address and note hash.",
        "params": {
          "_noteHash": "- keccak256 hash of the note coordiantes (gamma and sigma)",
          "_registryOwner": "- address of the registry owner"
        },
        "return": "status - status of the note, details whether the note is in a note registry or has been destroyedcreatedOn - time the note was createddestroyedOn - time the note was destroyednoteOwner - address of the note owner"
      },
      "getRegistry(address)": {
        "details": "Returns the registry for a given address.",
        "params": {
          "_owner": "- address of the registry owner in question"
        },
        "return": "linkedTokenAddress - public ERC20 token that is linked to the NoteRegistry. This is used to transfer public value into and out of the systemscalingFactor - defines how many ERC20 tokens are represented by one AZTEC notetotalSupply - TODOconfidentialTotalMinted - keccak256 hash of the note representing the total minted supplyconfidentialTotalBurned - keccak256 hash of the note representing the total burned supplycanConvert - flag set by the owner to decide whether the registry has public to private, and vice versa, conversion privilegecanAdjustSupply - determines whether the registry has minting and burning privileges"
      },
      "incrementLatestEpoch()": {
        "details": "Increments the `latestEpoch` storage variable."
      },
      "invalidateProof(uint24)": {
        "details": "Forever invalidate the given proof.",
        "params": {
          "_proof": "the AZTEC proof object"
        }
      },
      "isOwner()": {
        "return": "true if `msg.sender` is the owner of the contract."
      },
      "mint(uint24,bytes,address)": {
        "details": "Mint AZTEC notes     ",
        "params": {
          "_proof": "the AZTEC proof object",
          "_proofData": "the mint proof construction data",
          "_proofSender": "the Ethereum address of the original transaction sender. It is explicitly assumed that       an asset using ACE supplies this field correctly - if they don't their asset is vulnerable to front-running Unnamed param is the AZTEC zero-knowledge proof data"
        },
        "return": "two `bytes` objects. The first contains the new confidentialTotalSupply note and the second contains the notes that were created. Returned so that a zkAsset can emit the appropriate events"
      },
      "owner()": {
        "return": "the address of the owner."
      },
      "publicApprove(address,bytes32,uint256)": {
        "details": "This should be called from an asset contract."
      },
      "renounceOwnership()": {
        "details": "Allows the current owner to relinquish control of the contract. It will not be possible to call the functions with the `onlyOwner` modifier anymore."
      },
      "setCommonReferenceString(bytes32[6])": {
        "details": "Set the common reference string.     If the trusted setup is re-run, we will need to be able to change the crs",
        "params": {
          "_commonReferenceString": "the new commonReferenceString"
        }
      },
      "setProof(uint24,address)": {
        "details": "Adds or modifies a proof into the Cryptography Engine.      This method links a given `_proof` to a smart contract validator.",
        "params": {
          "_proof": "the AZTEC proof object",
          "_validatorAddress": "the address of the smart contract validator"
        }
      },
      "supplementTokens(uint256)": {
        "details": "Call transferFrom on a linked ERC20 token. Used in cases where the ACE's mint function is called but the token balance of the note registry in question is insufficient",
        "params": {
          "_value": "the value to be transferred"
        }
      },
      "transferOwnership(address)": {
        "details": "Allows the current owner to transfer control of the contract to a newOwner.",
        "params": {
          "newOwner": "The address to transfer ownership to."
        }
      },
      "updateNoteRegistry(uint24,bytes,address)": {
        "details": "Update the state of the note registry according to transfer instructions issued by a zero-knowledge proof",
        "params": {
          "_proof": "- unique identifier for a proof",
          "_proofOutput": "- transfer instructions issued by a zero-knowledge proof",
          "_proofSender": "- address of the entity sending the proof"
        }
      },
      "validateProof(uint24,address,bytes)": {
        "details": "Validate an AZTEC zero-knowledge proof. ACE will issue a validation transaction to the smart contract     linked to `_proof`. The validator smart contract will have the following interface:          function validate(         bytes _proofData,          address _sender,          bytes32[6] _commonReferenceString     ) public returns (bytes)",
        "params": {
          "_proof": "the AZTEC proof object",
          "_sender": "the Ethereum address of the original transaction sender. It is explicitly assumed that       an asset using ACE supplies this field correctly - if they don't their asset is vulnerable to front-running Unnamed param is the AZTEC zero-knowledge proof data"
        },
        "return": "a `bytes proofOutputs` variable formatted according to the Cryptography Engine standard"
      },
      "validateProofByHash(uint24,bytes32,address)": {
        "details": "Validate a previously validated AZTEC proof via its hash     This enables confidential assets to receive transfer instructions from a dApp that     has already validated an AZTEC proof that satisfies a balancing relationship.",
        "params": {
          "_proof": "the AZTEC proof object",
          "_proofHash": "the hash of the `proofOutput` received by the asset",
          "_sender": "the Ethereum address of the contract issuing the transfer instruction"
        },
        "return": "a boolean that signifies whether the corresponding AZTEC proof has been validated"
      }
    },
    "title": "The AZTEC Cryptography Engine"
  },
  "userdoc": {
    "methods": {
      "renounceOwnership()": {
        "notice": "Renouncing ownership will leave the contract without an owner, thereby removing any functionality that is only available to the owner."
      }
    }
  }
}