{
  "contractName": "AZTECAccountRegistry",
  "abi": [
    {
      "constant": true,
      "inputs": [
        {
          "name": "",
          "type": "address"
        }
      ],
      "name": "accountMapping",
      "outputs": [
        {
          "name": "",
          "type": "string"
        }
      ],
      "payable": false,
      "stateMutability": "view",
      "type": "function"
    },
    {
      "constant": true,
      "inputs": [],
      "name": "EIP712_DOMAIN_HASH",
      "outputs": [
        {
          "name": "",
          "type": "bytes32"
        }
      ],
      "payable": false,
      "stateMutability": "view",
      "type": "function"
    },
    {
      "inputs": [],
      "payable": false,
      "stateMutability": "nonpayable",
      "type": "constructor"
    },
    {
      "anonymous": false,
      "inputs": [
        {
          "indexed": false,
          "name": "account",
          "type": "address"
        },
        {
          "indexed": false,
          "name": "linkedPublicKey",
          "type": "string"
        }
      ],
      "name": "RegisterExtension",
      "type": "event"
    },
    {
      "anonymous": false,
      "inputs": [
        {
          "indexed": false,
          "name": "account",
          "type": "address"
        }
      ],
      "name": "LogAddress",
      "type": "event"
    },
    {
      "anonymous": false,
      "inputs": [
        {
          "indexed": false,
          "name": "message",
          "type": "string"
        }
      ],
      "name": "LogString",
      "type": "event"
    },
    {
      "anonymous": false,
      "inputs": [
        {
          "indexed": false,
          "name": "sig",
          "type": "bytes32"
        }
      ],
      "name": "LogBytes",
      "type": "event"
    },
    {
      "constant": false,
      "inputs": [
        {
          "name": "_account",
          "type": "address"
        },
        {
          "name": "_linkedPublicKey",
          "type": "string"
        },
        {
          "name": "v",
          "type": "uint8"
        },
        {
          "name": "r",
          "type": "bytes32"
        },
        {
          "name": "s",
          "type": "bytes32"
        }
      ],
      "name": "registerAZTECExtension",
      "outputs": [],
      "payable": false,
      "stateMutability": "nonpayable",
      "type": "function"
    }
  ],
  "bytecode": "0x608060405234801561001057600080fd5b50604080517f454950373132446f6d61696e28000000000000000000000000000000000000006020808301919091527f737472696e67206e616d652c0000000000000000000000000000000000000000602d8301527f737472696e672076657273696f6e2c000000000000000000000000000000000060398301527f6164647265737320766572696679696e67436f6e74726163740000000000000060488301527f29000000000000000000000000000000000000000000000000000000000000006061830152825160428184030181526062830180855281519183019190912060a28401855260199091527f415a5445435f43525950544f4752415048595f454e47494e450000000000000060829093019290925282518084018452600181527f3100000000000000000000000000000000000000000000000000000000000000908201528251808201929092527fc8066e2c715ce196630b273cd256d8959d5b9fefc55e9e6d999fb0f08bb7f75f828401527fc89efdaa54c0f20c7adf612882df0950f5a951637e0307cdcb4c672f298b8bc66060830152306080808401919091528351808403909101815260a0909201909252805191012060005561088d806101dd6000396000f3fe608060405234801561001057600080fd5b50600436106100415760003560e01c80630b076f5314610046578063e0b28d221461010c578063e306f779146101a7575b600080fd5b61010a600480360360a081101561005c57600080fd5b600160a060020a03823516919081019060408101602082013564010000000081111561008757600080fd5b82018360208201111561009957600080fd5b803590602001918460018302840111640100000000831117156100bb57600080fd5b91908080601f0160208091040260200160405190810160405280939291908181526020018383808284376000920191909152509295505060ff83351693505050602081013590604001356101c1565b005b6101326004803603602081101561012257600080fd5b5035600160a060020a031661041f565b6040805160208082528351818301528351919283929083019185019080838360005b8381101561016c578181015183820152602001610154565b50505050905090810190601f1680156101995780820380516001836020036101000a031916815260200191505b509250505060405180910390f35b6101af6104b9565b60408051918252519081900360200190f35b6040805130815290517fb123f68b8ba02b447d91a6629e121111b7dd6061ff418a60139c8bf00522a2849181900360200190a16000600161021e604080519081016040528089600160a060020a03168152602001888152506104bf565b85858560405160008152602001604052604051808581526020018460ff1660ff1681526020018381526020018281526020019450505050506020604051602081039080840390855afa158015610278573d6000803e3d6000fd5b505060408051601f19810151600160a060020a038116825291519193507fb123f68b8ba02b447d91a6629e121111b7dd6061ff418a60139c8bf00522a284925081900360200190a1600160a060020a038681169082161461033a57604080517f08c379a000000000000000000000000000000000000000000000000000000000815260206004820152601a60248201527f7369676e6572206d75737420626520746865206163636f756e74000000000000604482015290519081900360640190fd5b600160a060020a0386166000908152600160209081526040909120865161036392880190610733565b507f08895866d3dbe7b486a2559f0794f69916b11ff4932b1f9dbf635ee54c93240e86866040518083600160a060020a0316600160a060020a0316815260200180602001828103825283818151815260200191508051906020019080838360005b838110156103dc5781810151838201526020016103c4565b50505050905090810190601f1680156104095780820380516001836020036101000a031916815260200191505b50935050505060405180910390a1505050505050565b60016020818152600092835260409283902080548451600294821615610100026000190190911693909304601f81018390048302840183019094528383529192908301828280156104b15780601f10610486576101008083540402835291602001916104b1565b820191906000526020600020905b81548152906001019060200180831161049457829003601f168201915b505050505081565b60005481565b600080608060405190810160405280605f8152602001610803605f91396040516020018082805190602001908083835b6020831061050e5780518252601f1990920191602091820191016104ef565b518151600019602094850361010090810a919091019182169119929092161790915260408051601f19969094018481039690960184528581528351938301939093207f415a5445434163636f756e745265676973747279000000000000000000000000865283519586900360140186207f3200000000000000000000000000000000000000000000000000000000000000875284519687900360010187208785019290925286850152606086015265016bf5fe90c960808601523060a08601527ff2d857f4a3edcb9b78b4d503bfe733db1e3f6cdc2b7971ee739626c97e86a55860c0808701919091528351808703909101815260e08601808552815191909301206101408601909352603480835292975087965090945090926107cf925001396040516020018082805190602001908083835b602083106106615780518252601f199092019160209182019101610642565b51815160209384036101000a60001901801990921691161790526040805192909401828103601f190183528085528251928201929092208a519a82015180519083012083830191909152600160a060020a03909a168285015260608083019a909a528351808303909a018a526080820184528951998101999099207f190100000000000000000000000000000000000000000000000000000000000060a083015260a282019690965260c2808201969096528251808203909601865260e2019091525050815191909401209392505050565b828054600181600116156101000203166002900490600052602060002090601f016020900481019282601f1061077457805160ff19168380011785556107a1565b828001600101855582156107a1579182015b828111156107a1578251825591602001919060010190610786565b506107ad9291506107b1565b5090565b6107cb91905b808211156107ad57600081556001016107b7565b9056fe415a5445434163636f756e742861646472657373206163636f756e742c737472696e67206c696e6b65645075626c69634b657929454950373132446f6d61696e28737472696e67206e616d652c737472696e672076657273696f6e2c75696e7432353620636861696e49642c6164647265737320766572696679696e67436f6e74726163742c627974657333322073616c7429a165627a7a72305820d5331cd20b685e09e2365bbd43e726ed07ba7899a565b0e530e9d5db80f4be970029",
  "source": "pragma solidity >=0.5.0 <0.6.0;\n\nimport \"../../protocol/contracts/libs/LibEIP712.sol\";\n\n/**\n * @title AZTECAccountRegistry implementation \n * @author AZTEC \n * Copyright Spilbury Holdings Ltd 2019. All rights reserved.\n **/\n\ncontract AZTECAccountRegistry is LibEIP712 {\n\n    mapping(address => string) public accountMapping;\n\n    // EIP712 Domain Name value\n    string constant internal EIP712_DOMAIN_NAME = \"AZTEC_ACCOUNT_REGISTRY\";\n\n    // EIP712 Domain Version value\n    string constant internal EIP712_DOMAIN_VERSION = \"1\";\n\n    struct AZTECAccount {\n        address account;\n        string linkedPublicKey;\n    }\n\n    string private constant EIP712_DOMAIN  = \"EIP712Domain(string name,string version,uint256 chainId,address verifyingContract,bytes32 salt)\";\n    string private constant SIGNATURE_TYPE = \"AZTECAccount(address account,string linkedPublicKey)\";\n\n    bytes32 private constant EIP712_DOMAIN_TYPEHASH = keccak256(abi.encodePacked(EIP712_DOMAIN));\n    bytes32 private constant SIGNATURE_TYPEHASH = keccak256(abi.encodePacked(SIGNATURE_TYPE));\n\n\n    constructor ()\n    public\n    {\n    }\n     \n    function hashAZTECAccount(AZTECAccount memory _AZTECAccount) internal view returns (bytes32){\n        \n        bytes32 DOMAIN_SEPARATOR = keccak256(abi.encode(\n            EIP712_DOMAIN_TYPEHASH,\n            keccak256(\"AZTECAccountRegistry\"),\n            keccak256(\"2\"),\n            1563200229577,\n            address(this),\n            0xf2d857f4a3edcb9b78b4d503bfe733db1e3f6cdc2b7971ee739626c97e86a558\n        ));\n            return keccak256(abi.encodePacked(\n                \"\\x19\\x01\",\n                DOMAIN_SEPARATOR,\n                keccak256(abi.encode(\n                    SIGNATURE_TYPEHASH,\n                    _AZTECAccount.account,\n                    keccak256(bytes(_AZTECAccount.linkedPublicKey)\n            )))));\n    }\n\n    event RegisterExtension(\n        address account,\n        string linkedPublicKey\n    );\n\n    event LogAddress(\n        address account\n    );\n    event LogString(\n        string message \n    );\n\n    event LogBytes(\n        bytes32 sig \n    );\n\n    /**\n        * @dev function to validate the user is either the sender or has submitted an EIP712 signature from the account they\n        * are registering in the AZTEC extension.\n    **/\n\n\n    /**\n     * @dev Registers a specific public key pair to an ethereum address if a valid signature is provided or the\n     * sender is the ethereum address in question        * \n     * @param _account - address the address to which a public key is being         registered \n     * @param _linkedPublicKey - the public key the sender wishes to link to the _account\n     */\n\n    function registerAZTECExtension(\n        address _account,\n        string memory _linkedPublicKey,\n        uint8 v,\n        bytes32 r,\n        bytes32 s\n        // bytes memory _signature\n    )\n\n    public {\n        emit LogAddress(address(this));\n            // valid EIP712 signature\n        address signer = ecrecover(\n            hashAZTECAccount(AZTECAccount(_account, _linkedPublicKey)),\n            v,r,s\n        );\n        emit LogAddress(signer);\n        require(_account == signer, 'signer must be the account');\n        accountMapping[_account] = _linkedPublicKey;\n        // emit event for the graph\n        emit RegisterExtension(_account, _linkedPublicKey);\n    }\n\n}\n",
  "sourcePath": "/Users/leila/Sites/aztec/aztec-extension-develop/packages/extension/contracts/AZTECAccountRegistry.sol",
  "compiler": {
    "name": "solc",
    "version": "0.5.4+commit.9549d8ff.Emscripten.clang"
  },
  "schemaVersion": "3.0.10",
  "updatedAt": "2019-07-23T13:36:39.068Z",
  "devdoc": {
    "author": "AZTEC  Copyright Spilbury Holdings Ltd 2019. All rights reserved.*",
    "methods": {
      "registerAZTECExtension(address,string,uint8,bytes32,bytes32)": {
        "details": "Registers a specific public key pair to an ethereum address if a valid signature is provided or the sender is the ethereum address in question        * ",
        "params": {
          "_account": "- address the address to which a public key is being         registered ",
          "_linkedPublicKey": "- the public key the sender wishes to link to the _account"
        }
      }
    },
    "title": "AZTECAccountRegistry implementation "
  },
  "userdoc": {
    "methods": {}
  }
}