{
  "contractName": "AZTECAccountRegistry",
  "abi": [
    {
      "constant": true,
      "inputs": [
        {
          "name": "",
          "type": "address"
        }
      ],
      "name": "accountMapping",
      "outputs": [
        {
          "name": "",
          "type": "bytes"
        }
      ],
      "payable": false,
      "stateMutability": "view",
      "type": "function"
    },
    {
      "constant": true,
      "inputs": [],
      "name": "EIP712_DOMAIN_HASH",
      "outputs": [
        {
          "name": "",
          "type": "bytes32"
        }
      ],
      "payable": false,
      "stateMutability": "view",
      "type": "function"
    },
    {
      "inputs": [],
      "payable": false,
      "stateMutability": "nonpayable",
      "type": "constructor"
    },
    {
      "anonymous": false,
      "inputs": [
        {
          "indexed": false,
          "name": "account",
          "type": "address"
        },
        {
          "indexed": false,
          "name": "linkedPublicKey",
          "type": "bytes"
        }
      ],
      "name": "RegisterExtension",
      "type": "event"
    },
    {
      "constant": false,
      "inputs": [
        {
          "name": "_account",
          "type": "address"
        },
        {
          "name": "_linkedPublicKey",
          "type": "bytes"
        },
        {
          "name": "_signature",
          "type": "bytes"
        }
      ],
      "name": "registerAZTECExtension",
      "outputs": [],
      "payable": false,
      "stateMutability": "nonpayable",
      "type": "function"
    }
  ],
  "bytecode": "0x608060405234801561001057600080fd5b50604080517f454950373132446f6d61696e280000000000000000000000000000000000000060208083018290527f737472696e67206e616d652c0000000000000000000000000000000000000000602d84018190527f737472696e672076657273696f6e2c0000000000000000000000000000000000603985018190527f6164647265737320766572696679696e67436f6e747261637400000000000000604886018190527f2900000000000000000000000000000000000000000000000000000000000000606187018190528751604281890301815260628801808a5281519187019190912060a289018a5260199091527f415a5445435f43525950544f4752415048595f454e47494e45000000000000006082909801979097528751808901895260018082527f31000000000000000000000000000000000000000000000000000000000000009187018290528951808801999099527fc8066e2c715ce196630b273cd256d8959d5b9fefc55e9e6d999fb0f08bb7f75f898b01527fc89efdaa54c0f20c7adf612882df0950f5a951637e0307cdcb4c672f298b8bc66060808b01829052306080808d018290528d51808e038201905260a0808e018f5260c08e019c909c5260cd8d019990995260d98c019790975260e88b01959095526101018a0193909352895160e2818b030181526101028a01808c528151918901919091206101428b018c5260169091527f415a5445435f4143434f554e545f524547495354525900000000000000000000610122909a01999099528951808b018b529081528601528751808601979097527fefbd2e9f381a19a0882abfed0aad57a8ea4fa8d79e7c68ff739bb46903bd51e187890152908601528482015284518085039091018152929091019092528051910120600055610805806102b66000396000f3fe608060405234801561001057600080fd5b50600436106100415760003560e01c8063de0293f914610046578063e0b28d2214610185578063e306f77914610220575b600080fd5b6101836004803603606081101561005c57600080fd5b600160a060020a03823516919081019060408101602082013564010000000081111561008757600080fd5b82018360208201111561009957600080fd5b803590602001918460018302840111640100000000831117156100bb57600080fd5b91908080601f016020809104026020016040519081016040528093929190818152602001838380828437600092019190915250929594936020810193503591505064010000000081111561010e57600080fd5b82018360208201111561012057600080fd5b8035906020019184600183028401116401000000008311171561014257600080fd5b91908080601f01602080910402602001604051908101604052809392919081815260200183838082843760009201919091525092955061023a945050505050565b005b6101ab6004803603602081101561019b57600080fd5b5035600160a060020a0316610535565b6040805160208082528351818301528351919283929083019185019080838360005b838110156101e55781810151838201526020016101cd565b50505050905090810190601f1680156102125780820380516001836020036101000a031916815260200191505b509250505060405180910390f35b6102286105cf565b60408051918252519081900360200190f35b805183903390849084908390156103d457600060405160200180807f5265676973746572457874656e73696f6e5369676e6174757265280000000000815250601b01807f61646472657373206163636f756e742c00000000000000000000000000000000815250601001807f6279746573206c696e6b65645075626c69634b65790000000000000000000000815250601501807f290000000000000000000000000000000000000000000000000000000000000081525060010190506040516020818303038152906040528051906020012086856040516020018084815260200183600160a060020a0316600160a060020a0316815260200180602001828103825283818151815260200191508051906020019080838360005b8381101561036c578181015183820152602001610354565b50505050905090810190601f1680156103995780820380516001836020036101000a031916815260200191505b5094505050505060405160208183030381529060405280519060200120905060006103c3826105d5565b90506103cf81856105f6565b925050505b600160a060020a038581169082161461044e57604080517f08c379a000000000000000000000000000000000000000000000000000000000815260206004820152601a60248201527f73656e646572206d75737420626520746865206163636f756e74000000000000604482015290519081900360640190fd5b600160a060020a03881660009081526001602090815260409091208851610477928a019061073e565b507faa42f7e719e0ed2fa2458c14793c82d134a946168ca9529a56be2b5c6925bca188886040518083600160a060020a0316600160a060020a0316815260200180602001828103825283818151815260200191508051906020019080838360005b838110156104f05781810151838201526020016104d8565b50505050905090810190601f16801561051d5780820380516001836020036101000a031916815260200191505b50935050505060405180910390a15050505050505050565b60016020818152600092835260409283902080548451600294821615610100026000190190911693909304601f81018390048302840183019094528383529192908301828280156105c75780601f1061059c576101008083540402835291602001916105c7565b820191906000526020600020905b8154815290600101906020018083116105aa57829003601f168201915b505050505081565b60005481565b60008054604080516119019093526020919091529182526042601e20915290565b6000808251848452602084015160208560808760015afa601c8214601b8314176060841416169250845186146000811461062f57610634565b855194505b5050835280801561064c5750600160a060020a038216155b151561073757600160a060020a03821615156106c957604080517f08c379a000000000000000000000000000000000000000000000000000000000815260206004820152601a60248201527f7369676e657220616464726573732063616e6e6f742062652030000000000000604482015290519081900360640190fd5b80151561073757604080517f08c379a000000000000000000000000000000000000000000000000000000000815260206004820152601960248201527f7369676e6174757265207265636f76657279206661696c656400000000000000604482015290519081900360640190fd5b5092915050565b828054600181600116156101000203166002900490600052602060002090601f016020900481019282601f1061077f57805160ff19168380011785556107ac565b828001600101855582156107ac579182015b828111156107ac578251825591602001919060010190610791565b506107b89291506107bc565b5090565b6107d691905b808211156107b857600081556001016107c2565b9056fea165627a7a72305820ce02502216ec083fe3da029d309103774d0b40c2a032b1c11178de7a236180ff0029",
  "source": "pragma solidity >=0.5.0 <0.6.0;\n\nimport \"../../protocol/contracts/libs/LibEIP712.sol\";\n\n/**\n * @title AZTECAccountRegistry implementation \n * @author AZTEC \n * Copyright Spilbury Holdings Ltd 2019. All rights reserved.\n **/\n\ncontract AZTECAccountRegistry is LibEIP712 {\n\n    mapping(address => bytes) public accountMapping;\n\n    // EIP712 Domain Name value\n    string constant internal EIP712_DOMAIN_NAME = \"AZTEC_ACCOUNT_REGISTRY\"; \n    // EIP712 Domain Version value\n    string constant internal EIP712_DOMAIN_VERSION = \"1\";\n\n    bytes32 constant internal REGISTER_EXTENSION_SIGNATURE_TYPEHASH = keccak256(abi.encodePacked(\n        \"RegisterExtensionSignature(\",\n            \"address account,\",\n            \"bytes linkedPublicKey\",\n        \")\"\n    ));\n\n    constructor ()\n        public\n    {\n        EIP712_DOMAIN_HASH = keccak256(abi.encode(\n            EIP712_DOMAIN_SEPARATOR_SCHEMA_HASH,\n            keccak256(bytes(EIP712_DOMAIN_NAME)),\n            keccak256(bytes(EIP712_DOMAIN_VERSION)),\n            address(this)\n        ));\n    }\n\n    event RegisterExtension(\n        address account,\n        bytes linkedPublicKey\n    );\n    /**\n    * @dev function to validate the user is either the sender or has submitted an EIP712 signature from the account they\n    * are registering in the AZTEC extension.\n    **/\n\n    modifier _onlyUser (\n        address _account,\n        address _sender,\n        bytes memory _linkedPublicKey,\n        bytes memory _signature\n    ) {\n        address signer = _sender;\n        if(_signature.length != 0) {\n            // validate EIP712 signature\n\n            bytes32 _hashStruct = keccak256(abi.encode(\n                    REGISTER_EXTENSION_SIGNATURE_TYPEHASH,\n                    _account,\n                    _linkedPublicKey\n            ));\n            bytes32 msgHash = hashEIP712Message(_hashStruct);\n            signer = recoverSignature(\n                msgHash,\n                _signature\n            );\n        }\n        require(_account == signer, 'sender must be the account');\n        _;\n    }\n\n\n    /**\n        * @dev Registers a specific public key pair to an ethereum address if a valid signature is provided or the\n        * sender is the ethereum address in question        * \n        * @param _account - address the address to which a public key is being         registered \n        * @param _linkedPublicKey - the public key the sender wishes to link to the _account\n    */\n\n    function registerAZTECExtension(\n        address _account,\n        bytes memory _linkedPublicKey,\n        bytes memory _signature\n    )\n    _onlyUser(\n        _account,\n        msg.sender,\n        _linkedPublicKey,\n        _signature\n    ) public {\n        accountMapping[_account] = _linkedPublicKey;\n        // emit event for the graph\n        emit RegisterExtension(_account, _linkedPublicKey);\n    }\n\n}\n",
  "sourcePath": "/Users/joeandrews/Documents/Code/AZTEC/packages/extension/contracts/AZTECAccountRegistry.sol",
  "compiler": {
    "name": "solc",
    "version": "0.5.4+commit.9549d8ff.Emscripten.clang"
  },
  "schemaVersion": "3.0.11",
  "updatedAt": "2019-07-15T13:11:33.621Z",
  "devdoc": {
    "author": "AZTEC  Copyright Spilbury Holdings Ltd 2019. All rights reserved.*",
    "methods": {
      "registerAZTECExtension(address,bytes,bytes)": {
        "details": "Registers a specific public key pair to an ethereum address if a valid signature is provided or the sender is the ethereum address in question        * ",
        "params": {
          "_account": "- address the address to which a public key is being         registered ",
          "_linkedPublicKey": "- the public key the sender wishes to link to the _account"
        }
      }
    },
    "title": "AZTECAccountRegistry implementation "
  },
  "userdoc": {
    "methods": {}
  }
}