{
  "contractName": "ZkAssetOwnable",
  "abi": [
    {
      "constant": true,
      "inputs": [],
      "name": "JOIN_SPLIT_PROOF",
      "outputs": [
        {
          "name": "",
          "type": "uint24"
        }
      ],
      "payable": false,
      "stateMutability": "view",
      "type": "function"
    },
    {
      "constant": true,
      "inputs": [],
      "name": "ZERO_VALUE_NOTE_HASH",
      "outputs": [
        {
          "name": "",
          "type": "bytes32"
        }
      ],
      "payable": false,
      "stateMutability": "view",
      "type": "function"
    },
    {
      "constant": true,
      "inputs": [
        {
          "name": "",
          "type": "bytes32"
        },
        {
          "name": "",
          "type": "address"
        }
      ],
      "name": "confidentialApproved",
      "outputs": [
        {
          "name": "",
          "type": "bool"
        }
      ],
      "payable": false,
      "stateMutability": "view",
      "type": "function"
    },
    {
      "constant": false,
      "inputs": [
        {
          "name": "_noteHash",
          "type": "bytes32"
        },
        {
          "name": "_spender",
          "type": "address"
        },
        {
          "name": "_status",
          "type": "bool"
        },
        {
          "name": "_signature",
          "type": "bytes"
        }
      ],
      "name": "confidentialApprove",
      "outputs": [],
      "payable": false,
      "stateMutability": "nonpayable",
      "type": "function"
    },
    {
      "constant": false,
      "inputs": [
        {
          "name": "_noteHash",
          "type": "bytes32"
        },
        {
          "name": "_metaData",
          "type": "bytes"
        }
      ],
      "name": "updateNoteMetaData",
      "outputs": [],
      "payable": false,
      "stateMutability": "nonpayable",
      "type": "function"
    },
    {
      "constant": true,
      "inputs": [],
      "name": "PRIVATE_RANGE_PROOF",
      "outputs": [
        {
          "name": "",
          "type": "uint24"
        }
      ],
      "payable": false,
      "stateMutability": "view",
      "type": "function"
    },
    {
      "constant": true,
      "inputs": [],
      "name": "flags",
      "outputs": [
        {
          "name": "active",
          "type": "bool"
        },
        {
          "name": "canAdjustSupply",
          "type": "bool"
        },
        {
          "name": "canConvert",
          "type": "bool"
        }
      ],
      "payable": false,
      "stateMutability": "view",
      "type": "function"
    },
    {
      "constant": true,
      "inputs": [
        {
          "name": "",
          "type": "uint8"
        }
      ],
      "name": "proofs",
      "outputs": [
        {
          "name": "",
          "type": "uint256"
        }
      ],
      "payable": false,
      "stateMutability": "view",
      "type": "function"
    },
    {
      "constant": true,
      "inputs": [],
      "name": "DIVIDEND_PROOF",
      "outputs": [
        {
          "name": "",
          "type": "uint24"
        }
      ],
      "payable": false,
      "stateMutability": "view",
      "type": "function"
    },
    {
      "constant": true,
      "inputs": [],
      "name": "owner",
      "outputs": [
        {
          "name": "",
          "type": "address"
        }
      ],
      "payable": false,
      "stateMutability": "view",
      "type": "function"
    },
    {
      "constant": true,
      "inputs": [],
      "name": "MINT_PROOF",
      "outputs": [
        {
          "name": "",
          "type": "uint24"
        }
      ],
      "payable": false,
      "stateMutability": "view",
      "type": "function"
    },
    {
      "constant": false,
      "inputs": [
        {
          "name": "_proofData",
          "type": "bytes"
        },
        {
          "name": "_signatures",
          "type": "bytes"
        }
      ],
      "name": "confidentialTransfer",
      "outputs": [],
      "payable": false,
      "stateMutability": "nonpayable",
      "type": "function"
    },
    {
      "constant": true,
      "inputs": [],
      "name": "ace",
      "outputs": [
        {
          "name": "",
          "type": "address"
        }
      ],
      "payable": false,
      "stateMutability": "view",
      "type": "function"
    },
    {
      "constant": true,
      "inputs": [],
      "name": "BURN_PROOF",
      "outputs": [
        {
          "name": "",
          "type": "uint24"
        }
      ],
      "payable": false,
      "stateMutability": "view",
      "type": "function"
    },
    {
      "constant": true,
      "inputs": [],
      "name": "EIP712_DOMAIN_HASH",
      "outputs": [
        {
          "name": "",
          "type": "bytes32"
        }
      ],
      "payable": false,
      "stateMutability": "view",
      "type": "function"
    },
    {
      "constant": true,
      "inputs": [],
      "name": "linkedToken",
      "outputs": [
        {
          "name": "",
          "type": "address"
        }
      ],
      "payable": false,
      "stateMutability": "view",
      "type": "function"
    },
    {
      "constant": true,
      "inputs": [],
      "name": "scalingFactor",
      "outputs": [
        {
          "name": "",
          "type": "uint256"
        }
      ],
      "payable": false,
      "stateMutability": "view",
      "type": "function"
    },
    {
      "inputs": [
        {
          "name": "_aceAddress",
          "type": "address"
        },
        {
          "name": "_linkedTokenAddress",
          "type": "address"
        },
        {
          "name": "_scalingFactor",
          "type": "uint256"
        },
        {
          "name": "_canAdjustSupply",
          "type": "bool"
        },
        {
          "name": "_canConvert",
          "type": "bool"
        }
      ],
      "payable": false,
      "stateMutability": "nonpayable",
      "type": "constructor"
    },
    {
      "anonymous": false,
      "inputs": [
        {
          "indexed": false,
          "name": "zkAssetAddress",
          "type": "address"
        },
        {
          "indexed": false,
          "name": "linkedTokenAddress",
          "type": "address"
        },
        {
          "indexed": false,
          "name": "scalingFactor",
          "type": "uint256"
        },
        {
          "indexed": false,
          "name": "canAdjustSupply",
          "type": "bool"
        },
        {
          "indexed": false,
          "name": "canConvert",
          "type": "bool"
        }
      ],
      "name": "CreateNoteRegistry",
      "type": "event"
    },
    {
      "anonymous": false,
      "inputs": [
        {
          "indexed": true,
          "name": "aceAddress",
          "type": "address"
        },
        {
          "indexed": true,
          "name": "linkedTokenAddress",
          "type": "address"
        },
        {
          "indexed": false,
          "name": "scalingFactor",
          "type": "uint256"
        },
        {
          "indexed": true,
          "name": "_canAdjustSupply",
          "type": "bool"
        },
        {
          "indexed": false,
          "name": "_canConvert",
          "type": "bool"
        }
      ],
      "name": "CreateZkAsset",
      "type": "event"
    },
    {
      "anonymous": false,
      "inputs": [
        {
          "indexed": false,
          "name": "noteRegistryId",
          "type": "uint256"
        }
      ],
      "name": "CreateNoteRegistry",
      "type": "event"
    },
    {
      "anonymous": false,
      "inputs": [
        {
          "indexed": true,
          "name": "owner",
          "type": "address"
        },
        {
          "indexed": true,
          "name": "noteHash",
          "type": "bytes32"
        },
        {
          "indexed": false,
          "name": "metadata",
          "type": "bytes"
        }
      ],
      "name": "CreateNote",
      "type": "event"
    },
    {
      "anonymous": false,
      "inputs": [
        {
          "indexed": true,
          "name": "owner",
          "type": "address"
        },
        {
          "indexed": true,
          "name": "noteHash",
          "type": "bytes32"
        },
        {
          "indexed": false,
          "name": "metadata",
          "type": "bytes"
        }
      ],
      "name": "DestroyNote",
      "type": "event"
    },
    {
      "anonymous": false,
      "inputs": [
        {
          "indexed": true,
          "name": "noteHash",
          "type": "bytes32"
        },
        {
          "indexed": false,
          "name": "metadata",
          "type": "bytes"
        }
      ],
      "name": "UpdateNoteMetaData",
      "type": "event"
    },
    {
      "anonymous": false,
      "inputs": [
        {
          "indexed": true,
          "name": "owner",
          "type": "address"
        },
        {
          "indexed": false,
          "name": "value",
          "type": "uint256"
        }
      ],
      "name": "ConvertTokens",
      "type": "event"
    },
    {
      "anonymous": false,
      "inputs": [
        {
          "indexed": true,
          "name": "owner",
          "type": "address"
        },
        {
          "indexed": false,
          "name": "value",
          "type": "uint256"
        }
      ],
      "name": "RedeemTokens",
      "type": "event"
    },
    {
      "constant": false,
      "inputs": [
        {
          "name": "_epoch",
          "type": "uint8"
        },
        {
          "name": "_proofs",
          "type": "uint256"
        }
      ],
      "name": "setProofs",
      "outputs": [],
      "payable": false,
      "stateMutability": "nonpayable",
      "type": "function"
    },
    {
      "constant": false,
      "inputs": [
        {
          "name": "_proof",
          "type": "uint24"
        },
        {
          "name": "_proofOutput",
          "type": "bytes"
        }
      ],
      "name": "confidentialTransferFrom",
      "outputs": [],
      "payable": false,
      "stateMutability": "nonpayable",
      "type": "function"
    },
    {
      "constant": true,
      "inputs": [
        {
          "name": "_proof",
          "type": "uint24"
        }
      ],
      "name": "supportsProof",
      "outputs": [
        {
          "name": "",
          "type": "bool"
        }
      ],
      "payable": false,
      "stateMutability": "view",
      "type": "function"
    }
  ],
  "bytecode": "0x608060405234801561001057600080fd5b5060405160a080611db4833981018060405260a081101561003057600080fd5b810190808051906020019092919080519060200190929190805190602001909291908051906020019092919080519060200190929190505050848484848460405160200180807f454950373132446f6d61696e2800000000000000000000000000000000000000815250600d01807f737472696e67206e616d652c0000000000000000000000000000000000000000815250600c01807f737472696e672076657273696f6e2c0000000000000000000000000000000000815250600f01807f6164647265737320766572696679696e67436f6e747261637400000000000000815250601901807f29000000000000000000000000000000000000000000000000000000000000008152506001019050604051602081830303815290604052805190602001206040518060400160405280601981526020017f415a5445435f43525950544f4752415048595f454e47494e4500000000000000815250805190602001206040518060400160405280600181526020017f3100000000000000000000000000000000000000000000000000000000000000815250805190602001203060405160200180858152602001848152602001838152602001826001600160a01b03166001600160a01b031681526020019450505050506040516020818303038152906040528051906020012060008190555060405160200180807f454950373132446f6d61696e2800000000000000000000000000000000000000815250600d01807f737472696e67206e616d652c0000000000000000000000000000000000000000815250600c01807f737472696e672076657273696f6e2c0000000000000000000000000000000000815250600f01807f6164647265737320766572696679696e67436f6e747261637400000000000000815250601901807f29000000000000000000000000000000000000000000000000000000000000008152506001019050604051602081830303815290604052805190602001206040518060400160405280600881526020017f5a4b5f4153534554000000000000000000000000000000000000000000000000815250805190602001206040518060400160405280600181526020017f310000000000000000000000000000000000000000000000000000000000000081525080519060200120306001600160a01b031660001b6040516020018085815260200184815260200183815260200182815260200194505050505060405160208183030381529060405280519060200120600081905550604051806060016040528060011515815260200160001515815260200160011515815250600360008201518160000160006101000a81548160ff02191690831515021790555060208201518160000160016101000a81548160ff02191690831515021790555060408201518160000160026101000a81548160ff02191690831515021790555090505084600160006101000a8154816001600160a01b0302191690836001600160a01b0316021790555083600260006101000a8154816001600160a01b0302191690836001600160a01b0316021790555082600481905550600160009054906101000a90046001600160a01b03166001600160a01b031663a5468ca2858585856040518563ffffffff1660e01b815260040180856001600160a01b03166001600160a01b031681526020018481526020018315151515815260200182151515158152602001945050505050600060405180830381600087803b15801561053d57600080fd5b505af1158015610551573d6000803e3d6000fd5b5050604080518681528415156020820152815186151594506001600160a01b03808a1694508a16927fca576e79bcb5c4a0045d9d596a80c733c3997559f688f69e5c03bd737d885b86928290030190a45050600680546001600160a01b0319163317905550505050505050506117e8806105cc6000396000f3fe608060405234801561001057600080fd5b506004361061012b5760003560e01c80638500e1f8116100ad578063cdfea90e11610071578063cdfea90e146104e2578063df92462514610592578063e306f7791461059a578063ea12489f146105a2578063ed3437f8146105aa5761012b565b80638500e1f81461037d5780638da5cb5b146103855780638e526d9b146103a957806396988498146103b1578063a5c8fa84146104da5761012b565b806349518b28116100f457806349518b28146102e357806364cc4aa5146102eb578063764481181461031557806376ae6bee146103355780637f08dede1461035b5761012b565b80625bf7321461013057806307616051146101505780630f4a80fe1461016a5780631f2ac16a146101aa5780632e3b9a3b1461026e575b600080fd5b6101386105b2565b6040805162ffffff9092168252519081900360200190f35b6101586105b9565b60408051918252519081900360200190f35b6101966004803603604081101561018057600080fd5b50803590602001356001600160a01b03166105dd565b604080519115158252519081900360200190f35b61026c600480360360808110156101c057600080fd5b8135916001600160a01b0360208201351691604082013515159190810190608081016060820135600160201b8111156101f857600080fd5b82018360208201111561020a57600080fd5b803590602001918460018302840111600160201b8311171561022b57600080fd5b91908080601f0160208091040260200160405190810160405280939291908181526020018383808284376000920191909152509295506105fd945050505050565b005b61026c6004803603604081101561028457600080fd5b81359190810190604081016020820135600160201b8111156102a557600080fd5b8201836020820111156102b757600080fd5b803590602001918460018302840111600160201b831117156102d857600080fd5b5090925090506107f2565b610138610858565b6102f361085f565b6040805193151584529115156020840152151582820152519081900360600190f35b6101586004803603602081101561032b57600080fd5b503560ff1661087b565b61026c6004803603604081101561034b57600080fd5b5060ff813516906020013561088d565b6101966004803603602081101561037157600080fd5b503562ffffff166108ef565b61013861098e565b61038d610995565b604080516001600160a01b039092168252519081900360200190f35b6101386109a4565b61026c600480360360408110156103c757600080fd5b810190602081018135600160201b8111156103e157600080fd5b8201836020820111156103f357600080fd5b803590602001918460018302840111600160201b8311171561041457600080fd5b91908080601f0160208091040260200160405190810160405280939291908181526020018383808284376000920191909152509295949360208101935035915050600160201b81111561046657600080fd5b82018360208201111561047857600080fd5b803590602001918460018302840111600160201b8311171561049957600080fd5b91908080601f0160208091040260200160405190810160405280939291908181526020018383808284376000920191909152509295506109ab945050505050565b61038d610b0a565b61026c600480360360408110156104f857600080fd5b62ffffff8235169190810190604081016020820135600160201b81111561051e57600080fd5b82018360208201111561053057600080fd5b803590602001918460018302840111600160201b8311171561055157600080fd5b91908080601f016020809104026020016040519081016040528093929190818152602001838380828437600092019190915250929550610b19945050505050565b610138610b8a565b610158610b91565b61038d610b97565b610158610ba6565b6201010181565b7fcbc417524e52b95c42a4c42d357938497e3d199eb9b4a0139c92551d4000bc3c81565b600560209081526000928352604080842090915290825290205460ff1681565b60015460408051600160e11b637f6f71330281523060048201526024810187905290516000926001600160a01b03169163fedee266916044808301926080929190829003018186803b15801561065257600080fd5b505afa158015610666573d6000803e3d6000fd5b505050506040513d608081101561067c57600080fd5b50519050600160ff8216146106c557604051600160e51b62461bcd0281526004018080602001828103825260228152602001806116d46022913960400191505060405180910390fd5b604080517f4e6f74655369676e6174757265280000000000000000000000000000000000006020808301919091526001607a1b70189e5d195ccccc881b9bdd1952185cda0b02602e8301527f61646472657373207370656e6465722c00000000000000000000000000000000603f830152600160a81b6a626f6f6c2073746174757302604f830152600160f81b602902605a8301528251603b818403018152605b83018452805190820120607b830152609b82018890526001600160a01b03871660bb83015260ff841660db808401919091528351808403909101815260fb90920190925280519101206107ba818785610bac565b50505060009283526005602090815260408085206001600160a01b039490941685529290529120805460ff1916911515919091179055565b827f686a1d515e3b19b77653763162334277e2cfbaa5a2c89f3d15436c7c391edc77838360405180806020018281038252848482818152602001925080828437600083820152604051601f909101601f19169092018290039550909350505050a2505050565b6201040281565b60035460ff808216916101008104821691620100009091041683565b60076020526000908152604090205481565b6006546001600160a01b031633146108d957604051600160e51b62461bcd02815260040180806020018281038252602781526020018061171e6027913960400191505060405180910390fd5b60ff909116600090815260076020526040902055565b6000806000806109038562ffffff16610cb9565b9194509250905060ff821660011461094f57604051600160e51b62461bcd0281526004018080602001828103825260288152602001806116ac6028913960400191505060405180910390fd5b600061096560ff8316600163ffffffff610cd316565b60ff94851660009081526007602052604090205494169390931c60019081161495945050505050565b6201040181565b6006546001600160a01b031681565b6201020181565b600154604051600160e01b63a2866ea30281526201010160048201818152336024840181905260606044850181815288516064870152885191966001600160a01b03169563a2866ea395948a9390929160840190602085019080838360005b83811015610a22578181015183820152602001610a0a565b50505050905090810190601f168015610a4f5780820380516001836020036101000a031916815260200191505b50945050505050600060405180830381600087803b158015610a7057600080fd5b505af1158015610a84573d6000803e3d6000fd5b505050506040513d6000823e601f3d908101601f191682016040526020811015610aad57600080fd5b810190808051600160201b811115610ac457600080fd5b82016020810184811115610ad757600080fd5b8151600160201b811182820187101715610af057600080fd5b50509291905050509050610b05818385610d23565b505050565b6001546001600160a01b031681565b6000610b24836108ef565b9050600181151514610b805760408051600160e51b62461bcd02815260206004820152601e60248201527f65787065637465642070726f6f6620746f20626520737570706f727465640000604482015290519081900360640190fd5b610b058383611089565b6201030181565b60005481565b6002546001600160a01b031681565b60045481565b60015460408051600160e11b637f6f71330281523060048201526024810185905290516000926001600160a01b03169163fedee266916044808301926080929190829003018186803b158015610c0157600080fd5b505afa158015610c15573d6000803e3d6000fd5b505050506040513d6080811015610c2b57600080fd5b5060600151825190915060009015610c5c576000610c48866112d1565b9050610c5481856112f2565b915050610c5f565b50335b816001600160a01b0316816001600160a01b031614610cb257604051600160e51b62461bcd0281526004018080602001828103825260288152602001806116f66028913960400191505060405180910390fd5b5050505050565b60ff62010000820481169261010083048216929190911690565b60008260ff168260ff161115610d1d57604051600160e51b62461bcd0281526004018080602001828103825260258152602001806117766025913960400191505060405180910390fd5b50900390565b604081015160005b610d3485611406565b811015610cb2576060610d4d868363ffffffff61140d16565b600154604051600160e11b634bbbcb69028152620101016004820181815230604484018190526060602485019081528651606486015286519697506001600160a01b039095169563977796d2959394889492939291608490910190602086019080838360005b83811015610dcb578181015183820152602001610db3565b50505050905090810190601f168015610df85780820380516001836020036101000a031916815260200191505b50945050505050600060405180830381600087803b158015610e1957600080fd5b505af1158015610e2d573d6000803e3d6000fd5b50505050606080600080610e4085611460565b93509350935093506000610e5385611406565b1115610fd05760005b610e6585611406565b811015610fce576060610e788b8361148a565b90506000610e94610e8f888563ffffffff61140d16565b6114c9565b50604080517f4a6f696e53706c69745369676e617475726528000000000000000000000000006020808301919091527f75696e7432342070726f6f662c0000000000000000000000000000000000000060338301526001607a1b70189e5d195ccccc881b9bdd1952185cda0b02828401527f75696e74323536206368616c6c656e67652c000000000000000000000000000060518301527f616464726573732073656e6465720000000000000000000000000000000000006063830152600160f81b60290260718301528251605281840301815260728301845280519082012060928301526201010160b283015260d2820184905260f282018f905233610112808401919091528351808403909101815261013290920190925280519101209092509050610fc3818385610bac565b505050600101610e5c565b505b610fd9846114e7565b610fe2836115cb565b600081121561103057816001600160a01b03167ffed3b27b73d78d9d1f344bbbf25f7af35e0ac4d6cf8193604ce18082168e461a826000036040518082815260200191505060405180910390a25b6000811315611079576040805182815290516001600160a01b038416917f60213c45c34d8b94e495fd5871fdea7a7511f659e884ea25a0c8843b7f98bfad919081900360200190a25b5050505050600181019050610d2b565b60608060008061109885611460565b935093509350935060006110ab85611406565b905060005b8181101561113c5760006110cd610e8f888463ffffffff61140d16565b50600081815260056020908152604080832033845290915290205490925060ff161515600114905061113357604051600160e51b62461bcd0281526004018080602001828103825260318152602001806117456031913960400191505060405180910390fd5b506001016110b0565b50600154604051600160e11b634bbbcb6902815262ffffff89166004820190815233604483018190526060602484019081528a5160648501528a516001600160a01b039095169463977796d2948d948d94939092909160840190602086019080838360005b838110156111b95781810151838201526020016111a1565b50505050905090810190601f1680156111e65780820380516001836020036101000a031916815260200191505b50945050505050600060405180830381600087803b15801561120757600080fd5b505af115801561121b573d6000803e3d6000fd5b50505050611228856114e7565b611231846115cb565b600082121561127f57826001600160a01b03167ffed3b27b73d78d9d1f344bbbf25f7af35e0ac4d6cf8193604ce18082168e461a836000036040518082815260200191505060405180910390a25b60008213156112c8576040805183815290516001600160a01b038516917f60213c45c34d8b94e495fd5871fdea7a7511f659e884ea25a0c8843b7f98bfad919081900360200190a25b50505050505050565b60008054604080516119019093526020919091529182526042601e20915290565b6000808251848452602084015160208560808760015afa601c8214601b8314176060841416169250845186146000811461132b57611330565b855194505b5050835280801561134857506001600160a01b038216155b6113ff576001600160a01b0382166113aa5760408051600160e51b62461bcd02815260206004820152601a60248201527f7369676e657220616464726573732063616e6e6f742062652030000000000000604482015290519081900360640190fd5b806113ff5760408051600160e51b62461bcd02815260206004820152601960248201527f7369676e6174757265207265636f76657279206661696c656400000000000000604482015290519081900360640190fd5b5092915050565b6020015190565b6020828101519082028301604001518301908210806113ff57604051600160e51b62461bcd02815260040180806020018281038252602281526020018061179b6022913960400191505060405180910390fd5b60208101516040820151606083015160808401519284019491909301926001600160a01b03169190565b60609081029190910160208181015160408084015193850151815193840192909252828101939093528184015281518082039093018352608001905290565b604081015160608201516001600160a01b0390911692909160800190565b60005b6114f382611406565b8110156115c7576000806060611512610e8f868663ffffffff61140d16565b92509250925081836001600160a01b03167febd4bb7b61198df63305dd538f077db9df9b14339d8a6221e301487770d79227836040518080602001828103825283818151815260200191508051906020019080838360005b8381101561158257818101518382015260200161156a565b50505050905090810190601f1680156115af5780820380516001836020036101000a031916815260200191505b509250505060405180910390a35050506001016114ea565b5050565b60005b6115d782611406565b8110156115c75760008060606115f6610e8f868663ffffffff61140d16565b92509250925081836001600160a01b03167f5ffb3072e4515cf3bfae8b16be9dff6313cf7c313a0c26faafe6971d8c7585f1836040518080602001828103825283818151815260200191508051906020019080838360005b8381101561166657818101518382015260200161164e565b50505050905090810190601f1680156116935780820380516001836020036101000a031916815260200191505b509250505060405180910390a35050506001016115ce56fe74686973206173736574206f6e6c7920737570706f7274732062616c616e6365642070726f6f66736f6e6c7920756e7370656e74206e6f7465732063616e20626520617070726f766564746865206e6f7465206f776e657220646964206e6f74207369676e2074686973206d6573736167656f6e6c7920746865206f776e65722063616e20736574207468652065706f63682070726f6f667373656e64657220646f6573206e6f74206861766520617070726f76616c20746f207370656e6420696e707574206e6f746575696e7438207375622074726967676572656420696e746567657220756e646572666c6f77415a54454320617272617920696e646578206973206f7574206f6620626f756e6473a165627a7a723058205a8971f52957588cb9aa58e113ef7480334d610133bc26cc1e3bdee834a602cc0029",
  "source": "pragma solidity >=0.5.0 <0.6.0;\n\nimport \"./ZkAsset.sol\";\nimport \"../libs/ProofUtils.sol\";\nimport \"../libs/SafeMath8.sol\";\n\n/**\n * @title ZkAssetOwnable\n * @author AZTEC\n * @dev A contract which inherits from ZkAsset and includes the definition\n * of the contract owner\n * Copyright Spilbury Holdings Ltd 2019. All rights reserved.\n **/\n\ncontract ZkAssetOwnable is ZkAsset {\n    using ProofUtils for uint24;\n    using SafeMath8 for uint8;\n    \n    address public owner;\n    mapping(uint8 => uint256) public proofs;\n\n    constructor(\n        address _aceAddress,\n        address _linkedTokenAddress,\n        uint256 _scalingFactor,\n        bool _canAdjustSupply,\n        bool _canConvert\n    ) public ZkAsset(\n        _aceAddress,\n        _linkedTokenAddress,\n        _scalingFactor,\n        _canAdjustSupply,\n        _canConvert\n    ) {\n        owner = msg.sender;\n    }\n\n    function setProofs(\n        uint8 _epoch,\n        uint256 _proofs\n    ) external {\n        require(msg.sender == owner, \"only the owner can set the epoch proofs\");\n        proofs[_epoch] = _proofs;\n    }\n\n    function confidentialTransferFrom(uint24 _proof, bytes memory _proofOutput) public {\n        bool result = supportsProof(_proof);\n        require(result == true, \"expected proof to be supported\");\n        super.confidentialTransferFrom(_proof, _proofOutput);\n    }\n\n    // @dev Return whether the proof is supported or not by this asset. Note that we have\n    //      to subtract 1 from the proof id because the original representation is uint8,\n    //      but here that id is considered to be an exponent\n    function supportsProof(uint24 _proof) public view returns (bool) {\n        (uint8 epoch, uint8 category, uint8 id) = _proof.getProofComponents();\n        require(category == uint8(ProofCategory.BALANCED), \"this asset only supports balanced proofs\");\n        uint8 bit = uint8(proofs[epoch] >> (id.sub(1)) & 1);\n        return bit == 1;\n    }\n}\n",
  "sourcePath": "/Users/leila/Sites/aztec/aztec-extension-develop/packages/protocol/contracts/ERC1724/ZkAssetOwnable.sol",
  "compiler": {
    "name": "solc",
    "version": "0.5.7+commit.6da8b019.Emscripten.clang"
  },
  "schemaVersion": "3.0.10",
  "updatedAt": "2019-07-25T18:45:24.115Z",
  "devdoc": {
    "author": "AZTEC",
    "details": "A contract which inherits from ZkAsset and includes the definition of the contract owner Copyright Spilbury Holdings Ltd 2019. All rights reserved.*",
    "methods": {
      "confidentialApprove(bytes32,address,bool,bytes)": {
        "details": "Note owner approving a third party, another address, to spend the note on owner's behalf. This is necessary to allow the confidentialTransferFrom() method to be called",
        "params": {
          "_noteHash": "- keccak256 hash of the note coordinates (gamma and sigma)",
          "_signature": "- ECDSA signature from the note owner that validates the confidentialApprove() instruction",
          "_spender": "- address being approved to spend the note",
          "_status": "- defines whether the _spender address is being approved to spend the note, or if permission is being revoked"
        }
      },
      "confidentialTransfer(bytes,bytes)": {
        "details": "Executes a basic unilateral, confidential transfer of AZTEC notes Will submit _proofData to the validateProof() function of the Cryptography Engine.    * Upon successfull verification, it will update note registry state - creating output notes and destroying input notes.",
        "params": {
          "_proofData": "- bytes array outputted from a proof verification contract, representing transfer instructions for the ACE",
          "_signatures": "- array of the ECDSA signatures over all inputNotes"
        }
      }
    },
    "title": "ZkAssetOwnable"
  },
  "userdoc": {
    "methods": {}
  }
}