{
  "contractName": "AZTECERC20Bridge",
  "abi": [
    {
      "constant": true,
      "inputs": [
        {
          "name": "",
          "type": "bytes32"
        }
      ],
      "name": "noteRegistry",
      "outputs": [
        {
          "name": "",
          "type": "address"
        }
      ],
      "payable": false,
      "stateMutability": "view",
      "type": "function"
    },
    {
      "constant": true,
      "inputs": [],
      "name": "scalingFactor",
      "outputs": [
        {
          "name": "",
          "type": "uint256"
        }
      ],
      "payable": false,
      "stateMutability": "view",
      "type": "function"
    },
    {
      "inputs": [
        {
          "name": "_setupPubKey",
          "type": "bytes32[4]"
        },
        {
          "name": "_token",
          "type": "address"
        },
        {
          "name": "_scalingFactor",
          "type": "uint256"
        },
        {
          "name": "_chainId",
          "type": "uint256"
        }
      ],
      "payable": false,
      "stateMutability": "nonpayable",
      "type": "constructor"
    },
    {
      "anonymous": false,
      "inputs": [
        {
          "indexed": false,
          "name": "domainHash",
          "type": "bytes32"
        },
        {
          "indexed": false,
          "name": "contractAddress",
          "type": "address"
        }
      ],
      "name": "Created",
      "type": "event"
    },
    {
      "anonymous": false,
      "inputs": [],
      "name": "ConfidentialTransfer",
      "type": "event"
    },
    {
      "constant": false,
      "inputs": [
        {
          "name": "notes",
          "type": "bytes32[6][]"
        },
        {
          "name": "m",
          "type": "uint256"
        },
        {
          "name": "challenge",
          "type": "uint256"
        },
        {
          "name": "inputSignatures",
          "type": "bytes32[3][]"
        },
        {
          "name": "outputOwners",
          "type": "address[]"
        },
        {
          "name": "",
          "type": "bytes"
        }
      ],
      "name": "confidentialTransfer",
      "outputs": [],
      "payable": false,
      "stateMutability": "nonpayable",
      "type": "function"
    }
  ],
  "bytecode": "0x608060405234801561001057600080fd5b5060405160e0806111d183398101806040528101908091908260800180519060200190929190805190602001909291908051906020019092919050505060008460009060046100609291906101b6565b5083600760006101000a81548173ffffffffffffffffffffffffffffffffffffffff021916908373ffffffffffffffffffffffffffffffffffffffff160217905550826005819055506040517f8b73c3c69bb8fe3d512ecc4cf759cc79239f7b179b0ffacaa9a75d522b39400f81527f60d177492a60de7c666b3e3d468f14d59def1d4b022d08b6adf554d88da60d6360208201527f28a43689b8932fb9695c28766648ed3d943ff8a6406f8f593738feed70039290604082015282606082015230608082015260a0812091505080600481600019169055507f6e765c1505df7edb32788588e8f625dd368914ea995e3d429094152b826977a781306040518083600019166000191681526020018273ffffffffffffffffffffffffffffffffffffffff1673ffffffffffffffffffffffffffffffffffffffff1681526020019250505060405180910390a15050505050610221565b82600481019282156101eb579160200282015b828111156101ea5782518290600019169055916020019190600101906101c9565b5b5090506101f891906101fc565b5090565b61021e91905b8082111561021a576000816000905550600101610202565b5090565b90565b610fa1806102306000396000f300608060405260043610610057576000357c0100000000000000000000000000000000000000000000000000000000900463ffffffff1680632a8cdfbb1461005c578063da98cb7b146100cd578063ed3437f814610164575b600080fd5b34801561006857600080fd5b5061008b600480360381019080803560001916906020019092919050505061018f565b604051808273ffffffffffffffffffffffffffffffffffffffff1673ffffffffffffffffffffffffffffffffffffffff16815260200191505060405180910390f35b3480156100d957600080fd5b5061016260048036038101908080359060200190820180359060200191909192939192939080359060200190929190803590602001909291908035906020019082018035906020019190919293919293908035906020019082018035906020019190919293919293908035906020019082018035906020019190919293919293905050506101c2565b005b34801561017057600080fd5b506101796109d2565b6040518082815260200191505060405180910390f35b60066020528060005260406000206000915054906101000a900473ffffffffffffffffffffffffffffffffffffffff1681565b600080898888905014151561023f576040517f08c379a000000000000000000000000000000000000000000000000000000000815260040180806020018281038252601e8152602001807f696e707574207369676e6174757265206c656e67746820696e76616c6964000081525060200191505060405180910390fd5b8b8b90508686905089899050011415156102c1576040517f08c379a00000000000000000000000000000000000000000000000000000000081526004018080602001828103825260158152602001807f6172726179206c656e677468206d69736d61746368000000000000000000000081525060200191505060405180910390fd5b73__AZTEC________________________63b5596a888d8d8d8d60006040518663ffffffff167c010000000000000000000000000000000000000000000000000000000002815260040180806020018581526020018481526020018360048015610348576020028201915b81546000191681526020019060010190808311610330575b50508281038252878782818152602001925060c002808284378201915050965050505050505060206040518083038186803b15801561038657600080fd5b505af415801561039a573d6000803e3d6000fd5b505050506040513d60208110156103b057600080fd5b81019080805190602001909291905050501515610435576040517f08c379a00000000000000000000000000000000000000000000000000000000081526004018080602001828103825260108152602001807f70726f6f66206e6f742076616c6964210000000000000000000000000000000081525060200191505060405180910390fd5b8b8b60018e8e905003818110151561044957fe5b905060c00201600060068110151561045d57fe5b6020020135600019166001900491507f30644e72e131a029b85045b68181585d2833e84879b9709143e1f593f000000182101515610503576040517f08c379a00000000000000000000000000000000000000000000000000000000081526004018080602001828103825260188152602001807f696e76616c69642076616c7565206f66206b5075626c6963000000000000000081525060200191505060405180910390fd5b600090505b8b8b905081101561061a578981101561059e576105998c8c83818110151561052c57fe5b905060c0020160068060200260405190810160405280929190826006602002808284378201915050505050898984818110151561056557fe5b905060600201600380602002604051908101604052809291908260036020028082843782019150505050508b6004546109d8565b61060d565b61060c8c8c8381811015156105af57fe5b905060c002016006806020026040519081016040528092919082600660200280828437820191505050505087878d850381811015156105ea57fe5b9050602002013573ffffffffffffffffffffffffffffffffffffffff16610d2b565b5b8080600101915050610508565b6000821115610998577f183227397098d014dc2822db40c0ac2e9419f4243cdcb848a1f0fac9f80000008210156107c857600760009054906101000a900473ffffffffffffffffffffffffffffffffffffffff1673ffffffffffffffffffffffffffffffffffffffff1663a9059cbb3360055485026040518363ffffffff167c0100000000000000000000000000000000000000000000000000000000028152600401808373ffffffffffffffffffffffffffffffffffffffff1673ffffffffffffffffffffffffffffffffffffffff16815260200182815260200192505050602060405180830381600087803b15801561071457600080fd5b505af1158015610728573d6000803e3d6000fd5b505050506040513d602081101561073e57600080fd5b810190808051906020019092919050505015156107c3576040517f08c379a000000000000000000000000000000000000000000000000000000000815260040180806020018281038252601e8152602001807f746f6b656e207472616e7366657220746f2075736572206661696c656421000081525060200191505060405180910390fd5b610997565b600760009054906101000a900473ffffffffffffffffffffffffffffffffffffffff1673ffffffffffffffffffffffffffffffffffffffff166323b872dd3330600554867f30644e72e131a029b85045b68181585d2833e84879b9709143e1f593f000000103026040518463ffffffff167c0100000000000000000000000000000000000000000000000000000000028152600401808473ffffffffffffffffffffffffffffffffffffffff1673ffffffffffffffffffffffffffffffffffffffff1681526020018373ffffffffffffffffffffffffffffffffffffffff1673ffffffffffffffffffffffffffffffffffffffff1681526020018281526020019350505050602060405180830381600087803b1580156108e757600080fd5b505af11580156108fb573d6000803e3d6000fd5b505050506040513d602081101561091157600080fd5b81019080805190602001909291905050501515610996576040517f08c379a00000000000000000000000000000000000000000000000000000000081526004018080602001828103825260208152602001807f746f6b656e207472616e736665722066726f6d2075736572206661696c65642181525060200191505060405180910390fd5b5b5b7fc377ec77b2d4e164767d661c3543ed9afe3fd6656829a68e1edebd88ca8a3a6760405160405180910390a1505050505050505050505050565b60055481565b600080600060405160408801518152606088015160208201526080880151604082015260a088015160608201526080812093507f0f1ea84c0ceb3ad2f38123d94a164612e1a0c14a694dc5bfa16bc86ea1f3eabd815283602082015285604082015233606082015260808120604082015284602082015261190181526042601e820120925050600182876000600381101515610a7057fe5b602002015160019004886001600381101515610a8857fe5b6020020151896002600381101515610a9c57fe5b6020020151604051600081526020016040526040518085600019166000191681526020018460ff1660ff1681526020018360001916600019168152602001826000191660001916815260200194505050505060206040516020810390808403906000865af1158015610b12573d6000803e3d6000fd5b505050602060405103519050600073ffffffffffffffffffffffffffffffffffffffff168173ffffffffffffffffffffffffffffffffffffffff1614151515610bc3576040517f08c379a00000000000000000000000000000000000000000000000000000000081526004018080602001828103825260118152602001807f7369676e617475726520696e76616c696400000000000000000000000000000081525060200191505060405180910390fd5b8073ffffffffffffffffffffffffffffffffffffffff1660066000856000191660001916815260200190815260200160002060009054906101000a900473ffffffffffffffffffffffffffffffffffffffff1673ffffffffffffffffffffffffffffffffffffffff16141515610cc7576040517f08c379a00000000000000000000000000000000000000000000000000000000081526004018080602001828103825260288152602001807f657870656374656420696e707574206e6f746520746f20657869737420696e2081526020017f726567697374727900000000000000000000000000000000000000000000000081525060400191505060405180910390fd5b600060066000856000191660001916815260200190815260200160002060006101000a81548173ffffffffffffffffffffffffffffffffffffffff021916908373ffffffffffffffffffffffffffffffffffffffff16021790555050505050505050565b600060405160408401518152606084015160208201526080840151604082015260a0840151606082015260808120915050600073ffffffffffffffffffffffffffffffffffffffff168273ffffffffffffffffffffffffffffffffffffffff1614151515610e27576040517f08c379a00000000000000000000000000000000000000000000000000000000081526004018080602001828103825260248152602001807f6f776e6572206d7573742062652076616c696420457468657265756d2061646481526020017f726573730000000000000000000000000000000000000000000000000000000081525060400191505060405180910390fd5b600060066000836000191660001916815260200190815260200160002060009054906101000a900473ffffffffffffffffffffffffffffffffffffffff1673ffffffffffffffffffffffffffffffffffffffff16141515610f16576040517f08c379a000000000000000000000000000000000000000000000000000000000815260040180806020018281038252602d8152602001807f6578706563746564206f7574707574206e6f746520746f206e6f74206578697381526020017f7420696e2072656769737472790000000000000000000000000000000000000081525060400191505060405180910390fd5b8160066000836000191660001916815260200190815260200160002060006101000a81548173ffffffffffffffffffffffffffffffffffffffff021916908373ffffffffffffffffffffffffffffffffffffffff1602179055505050505600a165627a7a72305820922aea23812cb4e4d53cdf373ae34f8be5f6cf42fbeb2dc8c0bba690629187b80029",
  "source": "pragma solidity ^0.4.24;\n\nimport \"./AZTEC.sol\";\n\n/**\n * @title ERC20 interface\n * @dev https://github.com/ethereum/EIPs/issues/20\n **/\ncontract ERC20Interface {\n  function transfer(address to, uint256 value) external returns (bool);\n\n  function transferFrom(address from, address to, uint256 value)\n    external returns (bool);\n}\n\n/**\n * @title  AZTEC token, providing a confidential representation of an ERC20 token \n * @author Zachary Williamson, AZTEC\n * Copyright Spilsbury Holdings Ltd 2018. All rights reserved.\n * We will be releasing AZTEC as an open-source protocol that provides efficient transaction privacy for Ethereum.\n * Our full vision of the protocol includes confidential cross-asset interactions via our family of AZTEC zero-knowledge proofs\n * and the AZTEC token standard, stay tuned for updates!\n **/\ncontract AZTECERC20Bridge {\n    bytes32[4] setupPubKey;\n    bytes32 domainHash;\n    uint private constant groupModulusBoundary = 10944121435919637611123202872628637544274182200208017171849102093287904247808;\n    uint private constant groupModulus = 21888242871839275222246405745257275088548364400416034343698204186575808495617;\n    uint public scalingFactor;\n    mapping(bytes32 => address) public noteRegistry;\n    ERC20Interface token;\n\n    event Created(bytes32 domainHash, address contractAddress);\n    event ConfidentialTransfer();\n\n    /**\n    * @dev contract constructor.\n    * @param _setupPubKey the trusted setup public key (group element of group G2)\n    * @param _token the address of the ERC20 token being attached to\n    * @param _scalingFactor the mapping from note value -> ERC20 token value.\n    * AZTEC notes have a range between 0 and 2^{25}-1 and ERC20 tokens range between 0 and 2^{255} - 1\n    * so we don't want to directly map note value : token value\n    **/\n    constructor(bytes32[4] _setupPubKey, address _token, uint256 _scalingFactor, uint256 _chainId) public {\n        setupPubKey = _setupPubKey;\n        token = ERC20Interface(_token);\n        scalingFactor = _scalingFactor;\n        bytes32 _domainHash;\n        assembly {\n            let m := mload(0x40)\n            mstore(m, 0x8b73c3c69bb8fe3d512ecc4cf759cc79239f7b179b0ffacaa9a75d522b39400f) // \"EIP712Domain(string name, string version, uint256 chainId, address verifyingContract)\"\n            mstore(add(m, 0x20), 0x60d177492a60de7c666b3e3d468f14d59def1d4b022d08b6adf554d88da60d63) // name = \"AZTECERC20BRIDGE_DOMAIN\"\n            mstore(add(m, 0x40), 0x28a43689b8932fb9695c28766648ed3d943ff8a6406f8f593738feed70039290) // version = \"0.1.1\"\n            mstore(add(m, 0x60), _chainId) // chain id\n            mstore(add(m, 0x80), address) // verifying contract\n            _domainHash := keccak256(m, 0xa0)\n        }\n        domainHash = _domainHash;\n        emit Created(_domainHash, this);\n    }\n\n    /**\n    * @dev Determine validity of an input note and remove from note registry\n    * 1. validate that the note is signed by the note owner\n    * 2. validate that the note exists in the note registry\n    *\n    * Note signature is EIP712 signature (https://github.com/ethereum/EIPs/blob/master/EIPS/eip-712.md) over the following struct\n    * struct AZTEC_NOTE_SIGNATURE {\n    *     bytes32[4] note;\n    *     uint256 challenge;\n    *     address sender;    \n    * };\n    * @param note AZTEC confidential note being destroyed\n    * @param signature ECDSA signature from note owner\n    * @param challenge AZTEC zero-knowledge proof challenge\n    * @param domainHashT Temporary holding ```domainHash``` (to minimize # of sload ops)\n    **/\n    function validateInputNote(bytes32[6] note, bytes32[3] signature, uint challenge, bytes32 domainHashT) internal {\n        bytes32 noteHash;\n        bytes32 signatureMessage;\n        assembly {\n            let m := mload(0x40)\n            mstore(m, mload(add(note, 0x40)))\n            mstore(add(m, 0x20), mload(add(note, 0x60)))\n            mstore(add(m, 0x40), mload(add(note, 0x80)))\n            mstore(add(m, 0x60), mload(add(note, 0xa0)))\n            noteHash := keccak256(m, 0x80)\n            mstore(m, 0x0f1ea84c0ceb3ad2f38123d94a164612e1a0c14a694dc5bfa16bc86ea1f3eabd) // keccak256 hash of \"AZTEC_NOTE_SIGNATURE(bytes32[4] note,uint256 challenge,address sender)\"\n            mstore(add(m, 0x20), noteHash)\n            mstore(add(m, 0x40), challenge)\n            mstore(add(m, 0x60), caller)\n            mstore(add(m, 0x40), keccak256(m, 0x80))\n            mstore(add(m, 0x20), domainHashT)\n            mstore(m, 0x1901)\n            signatureMessage := keccak256(add(m, 0x1e), 0x42)\n        }\n        address owner = ecrecover(signatureMessage, uint8(signature[0]), signature[1], signature[2]);\n        require(owner != address(0), \"signature invalid\");\n        require(noteRegistry[noteHash] == owner, \"expected input note to exist in registry\");\n        noteRegistry[noteHash] = 0;\n    }\n\n    /**\n    * @dev Validate an output note from an AZTEC confidential transaction\n    * If the note does not already exist in ```noteRegistry```, create it\n    * @param note AZTEC confidential note to be created\n    * @param owner The address of the note owner\n    **/\n    function validateOutputNote(bytes32[6] note, address owner) internal {\n        bytes32 noteHash; // Construct a keccak256 hash of the note coordinates.\n        assembly {\n            let m := mload(0x40)\n            mstore(m, mload(add(note, 0x40)))\n            mstore(add(m, 0x20), mload(add(note, 0x60)))\n            mstore(add(m, 0x40), mload(add(note, 0x80)))\n            mstore(add(m, 0x60), mload(add(note, 0xa0)))\n            noteHash := keccak256(m, 0x80)\n        }\n        require(owner != address(0), \"owner must be valid Ethereum address\");\n        require(noteRegistry[noteHash] == 0, \"expected output note to not exist in registry\");\n        noteRegistry[noteHash] = owner;\n    }\n\n    /**\n    * @dev Perform a confidential transaction. Takes ```m``` input notes and ```notes.length - m``` output notes.\n    * ```notes, m, challenge``` constitute an AZTEC zero-knowledge proof that states the following:\n    * The sum of the values of the input notes is equal to a the sum of the values of the output notes + a public commitment value ```kPublic```\n    * \\sum_{i=0}^{m-1}k_i = \\sum_{i=m}^{n-1}k_i + k_{public} (mod p)\n    * notes[6][] contains value ```kPublic```  at notes[notes.length - 1][0].\n    * If ```kPublic``` is negative, this represents ```(GROUP_MODULUS - kPublic) * SCALING_FACTOR``` ERC20 tokens being converted into confidential note form.\n    * If ```kPublic``` is positive, this represents ```kPublic * SCALING_FACTOR``` worth of AZTEC notes being converted into ERC20 form\n    * @param notes defines AZTEC input notes and output notes. notes[0,...,m-1] = input notes. notes[m,...,notes.length-1] = output notes\n    * @param m where notes[0,..., m - 1] = input notes. notes[m,...,notes.length - 1] = output notes\n    * @param challenge AZTEC zero-knowledge proof challenge variable\n    * @param inputSignatures array of ECDSA signatures, one for each input note\n    * @param outputOwners addresses of owners, one for each output note\n    * Unnamed param is metadata: if AZTEC notes are assigned to stealth addresses, metadata should contain the ephemeral keys required for note owner to identify their note\n    */\n    function confidentialTransfer(bytes32[6][] notes, uint256 m, uint256 challenge, bytes32[3][] inputSignatures, address[] outputOwners, bytes) external {\n        require(inputSignatures.length == m, \"input signature length invalid\");\n        require(inputSignatures.length + outputOwners.length == notes.length, \"array length mismatch\");\n\n        // validate AZTEC zero-knowledge proof\n        require(AZTECInterface.validateJoinSplit(notes, m, challenge, setupPubKey), \"proof not valid!\");\n\n        // extract variable kPublic from proof\n        uint256 kPublic = uint(notes[notes.length - 1][0]);\n        require(kPublic < groupModulus, \"invalid value of kPublic\");\n\n        // iterate over the notes array and validate each input/output note\n        for (uint256 i = 0; i < notes.length; i++) {\n\n            // if i < m this is an input note\n            if (i < m) {\n\n                // call validateInputNote to check that the note exists and that we have a matching signature over the note.\n                // pass domainHash in as a function parameter to prevent multiple sloads\n                // this will remove the input notes from noteRegistry\n                validateInputNote(notes[i], inputSignatures[i], challenge, domainHash);\n            } else {\n\n                // if i >= m this is an output note\n                // validate that output notes, attached to the specified owners do not exist in noteRegistry.\n                // if all checks pass, add notes into note registry\n                validateOutputNote(notes[i], outputOwners[i - m]);\n            }\n        }\n\n        if (kPublic > 0) {\n            if (kPublic < groupModulusBoundary) {\n\n                // if value < the group modulus boundary then this public value represents a conversion from confidential note form to public form\n                // call token.transfer to send relevent tokens\n                require(token.transfer(msg.sender, kPublic * scalingFactor), \"token transfer to user failed!\");\n            } else {\n\n                // if value > group modulus boundary, this represents a commitment of a public value into confidential note form.\n                // only proceed if the required transferFrom call from msg.sender to this contract succeeds\n                require(token.transferFrom(msg.sender, this, (groupModulus - kPublic) * scalingFactor), \"token transfer from user failed!\");\n            }\n        }\n\n        // emit an event to mark this transaction. Can recover notes + metadata from input data\n        emit ConfidentialTransfer();\n    }\n}",
  "sourcePath": "/mnt/c/Users/zacha/CreditMint/Projects/AZTEC/contracts/AZTEC/AZTECERC20Bridge.sol",
  "compiler": {
    "name": "solc",
    "version": "0.4.24+commit.e67f0147.Emscripten.clang"
  },
  "schemaVersion": "2.0.1",
  "updatedAt": "2018-12-21T18:36:53.972Z"
}