{
  "contractName": "Doorbell",
  "abi": [
    {
      "constant": true,
      "inputs": [
        {
          "name": "",
          "type": "address"
        }
      ],
      "name": "addressBlockMap",
      "outputs": [
        {
          "name": "",
          "type": "uint256"
        }
      ],
      "payable": false,
      "stateMutability": "view",
      "type": "function"
    },
    {
      "constant": false,
      "inputs": [],
      "name": "setBlock",
      "outputs": [],
      "payable": false,
      "stateMutability": "nonpayable",
      "type": "function"
    }
  ],
  "bytecode": "0x608060405234801561001057600080fd5b5061014e806100206000396000f30060806040526004361061004c576000357c0100000000000000000000000000000000000000000000000000000000900463ffffffff168063d741396914610051578063fe5afe51146100a8575b600080fd5b34801561005d57600080fd5b50610092600480360381019080803573ffffffffffffffffffffffffffffffffffffffff1690602001909291905050506100bf565b6040518082815260200191505060405180910390f35b3480156100b457600080fd5b506100bd6100d7565b005b60006020528060005260406000206000915090505481565b6000439050806000803373ffffffffffffffffffffffffffffffffffffffff1673ffffffffffffffffffffffffffffffffffffffff16815260200190815260200160002081905550505600a165627a7a7230582064ae81b8a918c4c315bca0dbf5dbeee05b98ec369de8979e07a27a080fab21020029",
  "source": "pragma solidity ^0.4.24;\n\n/**\n * @title Maps a user's Ethereum address to the block number of a block that contains a transaction sent by the address\n * @author Tom Waite\n * @dev Purpose of this contract is to enable an AZTEC Dapp to get a user's public key from their Ethereum address.\n *      The public key is required in order to generate AZTEC note shared secrets.\n **/\ncontract Doorbell {\n\n    mapping(address => uint) public addressBlockMap;\n\n    /**\n    * @dev Writes to ```addressBlockMap``` to map from msg.sender to block.number\n    **/\n    function setBlock() external {\n        uint number = block.number; \n        addressBlockMap[msg.sender] = number;        \n    }\n}\n",
  "sourcePath": "/mnt/c/Users/zacha/CreditMint/Projects/AZTEC/contracts/AZTEC/Doorbell.sol",
  "compiler": {
    "name": "solc",
    "version": "0.4.24+commit.e67f0147.Emscripten.clang"
  },
  "schemaVersion": "2.0.1",
  "updatedAt": "2018-12-21T17:30:37.964Z"
}